:100000000C94EC0A0C94330B0C94330B0C94330BC0
:100010000C94330B0C94330B0C94330B0C94330B68
:100020000C94330B0C94330B0C948E250C9461269A
:100030000C949B1C0C94330B0C94330B0C94330BCF
:100040000C94330B0C94330B0C94330B0C94330B38
:100050000C94330B0C94FC1C0C94330B0C94330B4E
:100060000C94330B0C94330B0C94330B0C94330B18
:100070000C94330B0C94330B0C94330B0C94330B08
:100080000C94330B0C94330B0C94330B0C94330BF8
:100090000C94330B0C94330B0C94330B0C94330BE8
:1000A0000C94330B0C94330B0C94330B1E00000098
:1000B0000000000000000000000000000000000040
:1000C00000000000000000001F0000000000000011
:1000D0000000000000000000000000000000000020
:1000E00000000000200000000000000000000000F0
:1000F0000000000000000000000000000000000000
:1001000021000000000000000000000000000000CE
:100110000000270000000000000000002200000096
:1001200000000000000000000000000000000000CF
:10013000000000000000000023000000000000009C
:1001400000000000000000000000000000000000AF
:10015000000000002400000000000000000000007B
:10016000000000000000000000000000000000008F
:10017000250000000000000000000000000000005A
:100180000000000000000000000000002600000049
:10019000000000000000000000000000000000005F
:1001A000000000000000000004000000000000004B
:1001B000000000000000000000000000000000003F
:1001C000000000000500000000000000000000002A
:1001D000000000000000000000000000000000001F
:1001E0000600000001000000000000000000000008
:1001F00000000000000000000000000000000000FF
:1002000001000000000000000000000000000000ED
:1002100000000000000000000000000001000000DD
:1002200000000000000000000000000000000000CE
:1002300000000000000000000100000000000000BD
:1002400000000000000000000000010000000000AD
:10025000000000000100000000000000000000009D
:10026000000000000000000000000000000000008E
:10027000010000000000000000000000000000007D
:10028000000000000000000000000000010000006D
:10029000000000000000000000000000000000005E
:1002A000000000000000000001000000000000004D
:1002B000000000000000000000000000000000003E
:1002C000000000000100000000000000000000002D
:1002D000000000000000000000000000000000001E
:1002E000010000000000000000000000000000000D
:1002F00000000000000000000000000001000000FD
:1003000000000000000000000000000000000000ED
:1003100000000000000000000100000001000000DB
:1003200000000000000000000000000000000000CD
:1003300000000000000000000100000000000000BC
:1003400000000000000000000000000000000000AD
:10035000000000000100000000000000000000009C
:10036000000000000000000000000000000000008D
:10037000010000000000000000000000000000007C
:10038000000001000000000000000000010000006B
:10039000000000000000000000000000000000005D
:1003A000000000000000000001000000000000004C
:1003B000000000000000000000000000000000003D
:1003C000000000000100000000000000000000002C
:1003D000000000000000000000000000000000001D
:1003E000010000000000000000000000000000000C
:1003F00000000000000000000000000001000000FC
:1004000000000000000000000000000000000000EC
:1004100000000000000000000100000000000000DB
:1004200000000000000000000000000000000000CC
:1004300000000000010000000000000000000000BB
:1004400000000000000000000000000000000000AC
:10045000010000000100000000000000000000009A
:10046000000000000000000000000000000000008C
:10047000010000000000000000000000000000007B
:10048000000000000000000000000000010000006B
:10049000000000000000000000000000000000005C
:1004A000000000000000000001000000000000004B
:1004B000000000000000000000000100000000003B
:1004C000000000000100000000000000000000002B
:1004D000000000000000000000000000000000001C
:1004E000010000000000000000000000000000000B
:1004F00000000000000000000000000001000000FB
:1005000000000000000000000000000000000000EB
:1005100000000000000000000100000000000000DA
:1005200000000000000000000000000000000000CB
:1005300000000000010000000000000000000000BA
:1005400000000000000000000000000000000000AB
:10055000010000000000000000000000000000009A
:10056000000000000000000000000000010000008A
:10057000000000000000000000000000000000007B
:100580000000000000000000010000000100000069
:10059000000000000000000000000000000000005B
:1005A000000000000000000001000000000000004A
:1005B000000000000000000000000000000000003B
:1005C000000000000100000000000000000000002A
:1005D000000000000000000000000000000000001B
:1005E000010000000000000000000000000000000A
:1005F00000000100000000000000000001000000F9
:1006000000000000000000000000000000000000EA
:1006100000000000000000000100000000000000D9
:1006200000000000000000000000000000000000CA
:1006300000000000010000000000000000000000B9
:1006400000000000000000000000000000000000AA
:100650000100000000000000000000000000000099
:100660000000000000000000000000000100000089
:10067000000000000000000000000000000000007A
:100680000000000000000000010000000000000069
:10069000000000000000000000000000000000005A
:1006A0000000000001000000000000000000000049
:1006B000000000000000000000000000000000003A
:1006C0000100000001000000000000000000000028
:1006D000000000000000000000000000000000001A
:1006E0000100000000000000000000000000000009
:1006F00000000000000000000000000001000000F9
:1007000000000000000000000000000000000000E9
:1007100000000000000000000100000000000000D8
:1007200000000000000000000000010000000000C8
:1007300000000000010000000000000000000000B8
:1007400000000000000000000000000000000000A9
:100750000100000000000000000000000000000098
:100760000000000000000000000000000100000088
:100770000000000000000000000000000000000079
:100780000000000000000000010000000000000068
:100790000000000000000000000000000000000059
:1007A0000000000001000000000000000000000048
:1007B0000000000000000000000000000000000039
:1007C0000100000000000000000000000000000028
:1007D0000000000000000000000000000100000018
:1007E0000000000000000000000000000000000009
:1007F00000000000000000000100000001000000F7
:1008000000000000000000000000000000000000E8
:1008100000000000000000000100000000000000D7
:1008200000000000000000000000000000000000C8
:1008300000000000010000000000000000000000B7
:1008400000000000000000000000000000000000A8
:100850000100000000000000000000000000000097
:100860000000010000000000000000000100000086
:100870000000000000000000000000000000000078
:100880000000000000000000010000000000000067
:100890000000000000000000000000000000000058
:1008A0000000000001000000000000000000000047
:1008B0000000000000000000000000000000000038
:1008C0000100000000000000000000000000000027
:1008D0000000000000000000000000000100000017
:1008E0000000000000000000000000000000000008
:1008F00000000000000000000100000000000000F7
:1009000000000000000000000000000000000000E7
:1009100000000000010000000000000000000000D6
:1009200000000000000000000000000000000000C7
:1009300001000000010000000000000000000000B5
:1009400000000000000000000000000000000000A7
:100950000100000000000000000000000000000096
:100960000000000000000000000000000100000086
:100970000000000000000000000000000000000077
:100980000000000000000000010000000000000066
:100990000000000000000000000001000000000056
:1009A0000000000001000000000000000000000046
:1009B0000000000000000000000000000000000037
:1009C0000100000000000000000000000000000026
:1009D0000000000000000000000000000100000016
:1009E0000000000000000000000000000000000007
:1009F00000000000000000000100000000000000F6
:100A000000000000000000000000000000000000E6
:100A100000000000010000000000000000000000D5
:100A200000000000000000000000000000000000C6
:100A300001000000000000000000000000000000B5
:100A400000000000000000000000000001000000A5
:100A50000000000000000000000000000000000096
:100A60000000000000000000010000000100000084
:100A70000000000000000000000000000000000076
:100A80000000000000000000010000000000000065
:100A90000000000000000000000000000000000056
:100AA0000000000001000000000000000000000045
:100AB0000000000000000000000000000000000036
:100AC0000100000000000000000000000000000025
:100AD0000000010000000000000000000100000014
:100AE0000000000000000000000000000000000006
:100AF00000000000000000000100000000000000F5
:100B000000000000000000000000000000000000E5
:100B100000000000010000000000000000000000D4
:100B200000000000000000000000000000000000C5
:100B300001000000000000000000000000000000B4
:100B400000000000000000000000000001000000A4
:100B50000000000000000000000000000000000095
:100B60000000000000000000010000000000000084
:100B70000000000000000000000000000000000075
:100B80000000000001000000000000000000000064
:100B90000000000000000000000000000000000055
:100BA0000100000001000000000000000000000043
:100BB0000000000000000000000000000000000035
:100BC0000100000000000000000000000000000024
:100BD0000000000000000000000000000100000014
:100BE0000000000000000000000000000000000005
:100BF00000000000000000000100000000000000F4
:100C000000000000000000000000010000000000E3
:100C100000000000010000000000000000000000D3
:100C200000000000000000000000000000000000C4
:100C300001000000000000000000000000000000B3
:100C400000000000000000000000000001000000A3
:100C50000000000000000000000000000000000094
:100C60000000000000000000010000000000000083
:100C70000000000000000000000000000000000074
:100C80000000000001000000000000000000000063
:100C90000000000000000000000000000000000054
:100CA0000100000000000000000000000000000043
:100CB0000000000000000000000000000100000033
:100CC0000000000000000000000000000000000024
:100CD0000000000000000000010000000100000012
:100CE0000000000000000000000000000000000004
:100CF00000000000000000000100000000000000F3
:100D000000000000000000000000000000000000E3
:100D100000000000010000000000000000000000D2
:100D200000000000000000000000000000000000C3
:100D300001000000000000000000000000000000B2
:100D400000000100000000000000000001000000A1
:100D50000000000000000000000000000000000093
:100D60000000000000000000010000000000000082
:100D70000000000000000000000000000000000073
:100D80000000000001000000000000000000000062
:100D90000000000000000000000000000000000053
:100DA0000100000000000000000000000000000042
:100DB0000000000000000000000000000100000032
:100DC0000000000000000000000000000000000023
:100DD0000000000000000000010000000000000012
:100DE0000000000000000000000000000000000003
:100DF00000000000010000000000000000000000F2
:100E000000000000000000000000000000000000E2
:100E100001000000010000000000000000000000D0
:100E200000000000000000000000000000000000C2
:100E300001000000000000000000000000000000B1
:100E400000000000000000000000000001000000A1
:100E50000000000000000000000000000000000092
:100E60000000000000000000010000000000000081
:100E70000000000000000000000001000000000071
:100E80000000000001000000000000000000000061
:100E90000000000000000000000000000000000052
:100EA0000100000000000000000000000000000041
:100EB0000000000000000000000000000100000031
:100EC0000000000000000000000000000000000022
:100ED0000000000000000000010000000000000011
:100EE0000000000000000000000000000000000002
:100EF00000000000010000000000000000000000F1
:100F000000000000000000000000000000000000E1
:100F100001000000000000000000000000000000D0
:100F200000000000000000000000000001000000C0
:100F300000000000000000000000000000000000B1
:100F4000000000000000000001000000010000009F
:100F50000000000000000000000000000000000091
:100F60000000000000000000010000000000000080
:100F70000000000000000000000000000000000071
:100F80000000000001000000000000000000000060
:100F90000000000000000000000000000000000051
:100FA0000100000000000000000000000000000040
:100FB000000001000000000000000000010000002F
:100FC0000000000000000000000000000000000021
:100FD0000000000000000000010000000000000010
:100FE0000000000000000000000000000000000001
:100FF00000000000010000000000000000000000F0
:1010000000000000000000000000000000000000E0
:1010100001000000000000000000000000000000CF
:1010200000000000000000000000000001000000BF
:1010300000000000000000000000000000000000B0
:10104000000000000000000001000000000000009F
:101050000000000000000000000000000000000090
:10106000000000000100000000000000000000007F
:101070000000000000000000000000000000000070
:10108000010000000100000000000000000000005E
:101090000000000000000000000000000000000050
:1010A000010000000000000000000000000000003F
:1010B000000000000000000000000000010000002F
:1010C0000000000000000000000000000000000020
:1010D000000000000000000001000000000000000F
:1010E00000000000000000000000010000000000FF
:1010F00000000000010000000000000000000000EF
:1011000000000000000000000000000000000000DF
:1011100001000000000000000000000000000000CE
:1011200000000000000000000000000001000000BE
:1011300000000000000000000000000000000000AF
:10114000000000000000000001000000000000009E
:10115000000000000000000000000000000000008F
:10116000000000000100000000000000000000007E
:10117000000000000000000000000000000000006F
:10118000010000000000000000000000000000005E
:10119000000000000000000000000000010000004E
:1011A000000000000000000000000000000000003F
:1011B000000000000000000001000000010000002D
:1011C000000000000000000000000000000000001F
:1011D000000000000000000001000000000000000E
:1011E00000000000000000000000000000000000FF
:1011F00000000000010000000000000000000000EE
:1012000000000000000000000000000000000000DE
:1012100001000000000000000000000000000000CD
:1012200000000100000000000000000001000000BC
:1012300000000000000000000000000000000000AE
:10124000000000000000000001000000000000009D
:10125000000000000000000000000000000000008E
:10126000000000000100000000000000000000007D
:10127000000000000000000000000000000000006E
:10128000010000000000000000000000000000005D
:10129000000000000000000000000000010000004D
:1012A000000000000000000000000000000000003E
:1012B000000000000000000001000000000000002D
:1012C000000000000000000000000000000000001E
:1012D000000000000100000000000000000000000D
:1012E00000000000000000000000000000000000FE
:1012F00001000000010000000000000000000000EC
:1013000000000000000000000000000000000000DD
:1013100001000000000000000000000000000000CC
:1013200000000000000000000000000001000000BC
:1013300000000000000000000000000000000000AD
:10134000000000000000000001000000000000009C
:10135000000000000000000000000100000000008C
:10136000000000000100000000000000000000007C
:10137000000000000000000000000000000000006D
:10138000010000000000000000000000000000005C
:10139000000000000000000000000000010000004C
:1013A000000000000000000000000000000000003D
:1013B000000000000000000001000000000000002C
:1013C000000000000000000000000000000000001D
:1013D000000000000100000000000000000000000C
:1013E00000000000000000000000000000000000FD
:1013F00001000000000000000000000000000000EC
:1014000000000000000000000000000001000000DB
:1014100000000000000000000000000000000000CC
:1014200000000000000000000100000012036B003B
:101430006500790062006F006100720064000000C6
:10144000160371006D006B006200750069006C008E
:1014500064006500720000000403090409026D00C5
:10146000040100A0FA0904000001030101000921A0
:10147000110100012240000705810308000A090448
:1014800001000103010200092111010001224D00A8
:101490000705820308000A09040200010300000096
:1014A0000921110100012236000705830308000A03
:1014B00009040300010300000009211101000122B9
:1014C000390007058403200001120110010000000B
:1014D00008EDFE606001000102000105010906A19E
:1014E00001050719E029E715002501950875018117
:1014F00002050819012905950575019102950175E7
:101500000391010507190029F71500250195F875C4
:10151000018102C005010980A10185021601002692
:1015200003001A81002A8300751095018100C0050F
:101530000C0901A1018503160100269C021A010075
:101540002A9C02751095018100C005010902A101C4
:101550000901A100050919012905150025019505B5
:101560007501810295017503810105010930093179
:101570001581257F95027508810609381581257F1B
:10158000950175088106050C0A38021581257F959D
:101590000175088106C0C005010906A101050719EA
:1015A000E029E7150025019508750181029501756F
:1015B0000881010508190129059505750191029514
:1015C00001750391010507190029FF150026FF0089
:1015D000950675088100C00011241FBECFEFDAE028
:1015E000DEBFCDBF04B603FE27C08091AE0290914E
:1015F000AF02A091B002B091B1028730904BA740EA
:10160000B04BD1F41092AE021092AF021092B00221
:101610001092B10214BE84B7877F84BF0FB6F894CE
:10162000A8958091600088618093600010926000AE
:101630000FBEE0E0FFE3099511E0A0E0B1E0ECE9C6
:10164000F3E502C005900D92A034B107D9F722E06E
:10165000A0E4B1E001C01D92AE3AB207E1F70E94EA
:10166000E4220C94A0290C94000090E080E00895FE
:101670000895089581E00895089581E008950C94F7
:101680003A0B0E94EC142FEF84E39CE02150804041
:101690009040E1F700C000000C941F1DEF92FF92F4
:1016A0000F931F93CF93DF938C01FC01E080F180B7
:1016B0008091A401811140C082818823C1F1C701BA
:1016C0000E94711AC82F682FC7010E941A1AB70109
:1016D0008C2F0E94860CEC01B8010E943F0B8823DE
:1016E00009F44BC0B801CE010E948F0E882309F483
:1016F00044C0C531F0E7DF0720F5C23080E7D807E6
:1017000008F04DC0C115E0E7DE0791F1C130D047C8
:10171000E1F181E08093420180934301C801DF91B0
:10172000CF911F910F91FF90EF900C943D0BC7014B
:101730000E94481AC82FCBCFC7010E94711AB70167
:10174000C8CFCC3380E7D80709F49BC0CD33D0474E
:1017500001F7F8018281882309F4BAC0109243018D
:101760000E94CB1C909341018093400180E296C07F
:10177000F801828181110E94410B80E0DF91CF91BD
:101780001F910F91FF90EF900895F80182818823B7
:10179000A1F380916E02816080936E02EECFF8011A
:1017A0008281882309F4BACF0E942C1C811102C0C7
:1017B0000E94121C0E94491C90E09093A00280930A
:1017C0009F02FE01E350F04780919F028160E23169
:1017D000F10538F4EE55F64D0C94502980919F0296
:1017E000826080939F0280919F020E944D1C0E9404
:1017F000EC14C3CF80919F028460F3CF80919F024D
:101800008860EFCF80919F028061EBCF80919F0233
:101810008062E7CF80919F028064E3CF80919F0236
:101820008068DFCF80919F028C60DBCF80919F0228
:101830008E7FD7CF80919F028D7FD3CF80919F02E3
:101840008B7FCFCF80919F02877FCBCF80919F02EC
:101850008F7EC7CF80919F028F7DC3CF80919F02E3
:101860008F7BBFCF80919F028F77BBCF80919F02EC
:10187000837FB7CF90919F02892F97FB87F980587C
:10188000B0CFF8018281882361F0109242010E945A
:10189000CB1C909341018093400182E00E94511241
:1018A0006CCF8091420181110FC0809140019091D5
:1018B00041010E94D71C883C910530F486E20E94C9
:1018C000261186E20E94021282E00E94581255CF31
:1018D0008091430181110FC080914001909141019D
:1018E0000E94D71C883C910530F487E20E942611A3
:1018F00087E20E94021280E2E8CF0C94DE0E0C9484
:10190000E00E0C943C0B0C94810C0895972F70E022
:101910002DE0929F600D711D1124FB019CE9899FB0
:10192000E00DF11D1124EE0FFF1FE455FF4F8591CF
:1019300094910895FC01EE0FFF1FE45DFB4E85912D
:10194000949108950E94860C0E94130E9C018115AB
:1019500040E4940708F097C0211580E3380708F0A9
:10196000FAC0203E310508F074C0203C310508F073
:10197000E5C0283A310588F4253A310508F0E2C07F
:101980002130310509F477C0C9010497813A9105E6
:1019900008F471C030E020E06EC0C901885A910996
:1019A0004597C0F7283A310509F4FEC0293A3105B8
:1019B00009F4FDC02A3A310509F4FCC02B3A31057F
:1019C00009F4FBC02C3A310509F4FAC02B3B310570
:1019D00009F4F9C02C3B310509F4F8C02D3A310562
:1019E00009F4F7C0203B310509F4F6C02E3A310561
:1019F00009F4F5C02F3A310509F4F4C0213B310553
:101A000009F4F3C0223B310509F4F2C0233B310550
:101A100009F4F1C0243B310509F4F0C0253B310540
:101A200009F4EFC0263B310509F4EEC0273B310530
:101A300009F4EDC0283B310509F4ECC0293B310520
:101A400009F4EBC02A3B310509F4EAC020E034E494
:101A500012C0211590E2390780F42F3F310509F0BB
:101A600050F4283E310538F0C901805F9109306596
:101A7000409708F08FCFC9010895C9019F700E9457
:101A80009A0C9C01F8CF8115944508F041C02115AE
:101A900083E5380708F06AC0211592E5390738F563
:101AA000211541E5340708F05CC0211580E53807B1
:101AB00008F454C0C90134E0969587953A95E1F74A
:101AC0008370422F46954695437090E2499FA0014E
:101AD0001124582B822F837021E030E002C0220FA6
:101AE000331F8A95E2F7242B352B3C68C4CFC901FC
:101AF0008370992741E050E002C0440F551F8A953A
:101B0000E2F72695269580E2289F90011124EBCFDD
:101B1000211596E5390748F4922F88272115354578
:101B2000C8F59C01246F306AA6CFC90190563F705A
:101B30008115904108F02ECF30629DCFC901805CA5
:101B400091099DCF253A310549F1263A310549F5EC
:101B500022E830E490CF3327306C8DCF3F70306A6D
:101B60008ACF322F2227216F306A85CFC901837037
:101B7000992741E050E002C0440F551F8A95E2F7D3
:101B80002695269580E2289F90011124242B352B41
:101B90003A6871CF88279F719C01CECF21E830E44D
:101BA0006ACF23E830E467CF22EE34E464CF29EE35
:101BB00034E461CF2AEE34E45ECF25EB34E45BCF2E
:101BC00026EB34E458CF23EB34E455CF24EB34E454
:101BD00052CF27EB34E44FCF2CEC34E44CCF2DEC38
:101BE00034E449CF23E835E446CF2AE835E443CF4F
:101BF00022E935E440CF24E935E43DCF21E236E463
:101C00003ACF23E236E437CF24E236E434CF25E27C
:101C100036E431CF26E236E42ECF27E236E42BCF6E
:101C20002AE236E428CF803E910581F1C8F4813361
:101C3000910509F462C048F48932910509F456C04F
:101C40008A32910509F460C0089589339105B9F08D
:101C500082389105A1F08533910509F440C00895BB
:101C6000863E910561F138F4823E9105B1F0833EE4
:101C70009105E1F00895873E910551F10895209175
:101C80009F022370D9F080EE90E0089520919F028A
:101C900020FF14C089E390E0089520919F0222FF65
:101CA0000DC024FD09C083EE90E0089520919F02AD
:101CB00022FD31C024FF02C090E080E00895209111
:101CC0009F0223FFFBCF24FDF7CF87EE90E008951E
:101CD00020919F0223FFEECF86EE90E008952091A1
:101CE0009F0225FFEBCF89E290E0089520919F02AB
:101CF00025FFE4CF85E390E0089520919F0226FF21
:101D0000DDCF8AE290E0089520919F0226FFD6CF92
:101D100081E390E0089582EE90E0089508950F9396
:101D20001F93CF938C01FB018281811106C0C1E01A
:101D30008C2FCF911F910F910895C0915101C11126
:101D400025C00531104799F70E948E0E81E08093DF
:101D500051010E94CB1C9093500180934F0110922F
:101D600044011092460110924501109248011092D0
:101D7000470110924A011092490110924C011092B1
:101D80004B0110924E0110924D01D2CF80914F0124
:101D9000909150010E94D71C883C910540F680919B
:101DA0004401E82FF0E0EE0FFF1FEB5BFE4F1183C5
:101DB00000838F5F80934401C0E0BACF0C94380B4E
:101DC0000C94390B85B7806885BF85B7806885BF5F
:101DD000A0E2B1E061E070E08D91E82FE295EF7054
:101DE000F0E041A18F709B0101C0220F8A95EAF7B4
:101DF000922F9095942391A382A1822B82A381E0BC
:101E0000AC32B80749F7A3E1B1E061E070E08D9131
:101E1000E82FE295EF70F0E041A18F709B0101C0C7
:101E2000220F8A95EAF7922F9095942391A382A18D
:101E3000822B82A381E0A032B80749F7EAE6F1E0FD
:101E4000A2E5B1E082E891E0119211921D921D92FB
:101E50008E179F07C9F70C947D0C2F923F924F92DB
:101E60005F926F927F928F929F92AF92BF92CF922A
:101E7000DF92EF92FF920F931F93CF93DF9302E5D0
:101E800011E080E2C82E81E0D82E1801EE24E39400
:101E9000F12C66246394D1018D909D901D011E92BA
:101EA0001E92E60189916E01E82FE295EF70F0E055
:101EB00091A18F70970101C0220F8A95EAF7892FAF
:101EC000822B81A382A1722E7094872182A3D0EAF3
:101ED000DA95F1F763E171E090E080E0EB01599071
:101EE000BE01452D42954F7050E0EA0148A0AD90EB
:101EF000BC901197552D5F70E70102C0CC0FDD1F1C
:101F00005A95E2F7AE01442109F059C0A701082E05
:101F100002C0440F551F0A94E2F74A295B29119623
:101F20005C934E9301968D309105C1F681A1782284
:101F300071A282A1282B22A38D919C9188169906CB
:101F400041F0609282010E94CB1C909384018093A7
:101F50008301DAE62D16D1E03D0609F09CCF809191
:101F600082018823B1F080918301909184010E94C5
:101F7000D71C069770F0EAE6F1E0D8018D919D91AB
:101F80008D0181939193B1E00A361B07B1F710924E
:101F900082010E947F0C81E0DF91CF911F910F9110
:101FA000FF90EF90DF90CF90BF90AF909F908F9079
:101FB0007F906F905F904F903F902F90089550E0EA
:101FC00040E0ABCFE82FF0E0EE0FFF1FE659FE4FE9
:101FD000808191810895089590938A018093890169
:101FE0000895E0918901F0918A01309721F00190E4
:101FF000F081E02D099480E00895E0918901F0914D
:102000008A01309721F00280F381E02D0994089530
:10201000E0918901F0918A01309721F00480F581E7
:10202000E02D0994089520918701309188012817A7
:10203000390771F09093880180938701E0918901BD
:10204000F0918A01309721F00680F781E02D099404
:10205000089520918501309186012817390771F084
:102060009093860180938501E0918901F0918A0126
:10207000309721F00084F185E02D099408950895AA
:102080000C943F100E94C21C0E94E20E0C948C1D06
:102090005F926F927F928F929F92AF92BF92CF92F8
:1020A000DF92EF92FF920F931F93CF93DF9300D0B5
:1020B00000D00F92CDB7DEB70E942D0F9CE8A92E5D
:1020C00091E0B92E10E000E088248394912C502EEA
:1020D000802F0E94E20F7C01F501C190D1905F0139
:1020E000C816D90609F45DC080916E0281FD0E9478
:1020F000EB0F90E080E0CE24DF243401082E02C0F4
:10210000660C771C0A94E2F7960126213721232BCF
:1021100009F442C089835A82E620F72081E0EF2843
:1021200009F480E08B830E94CB1C8160782F9D8313
:102130008C8349815A816B818D810E94FD10000F33
:10214000111FF801E457FE4F80819181682679269E
:10215000718260820E9439200E94F10F90918B0160
:102160008917B1F10E94F10F80938B010F900F90AE
:102170000F900F900F90DF91CF911F910F91FF90D3
:10218000EF90DF90CF90BF90AF909F908F907F9017
:102190006F905F900C94830C01968D30910509F03F
:1021A000ACCF0F5F1F4F0C30110509F090CF8FEFB0
:1021B00089838A831B820E94CB1C8160782F9D8338
:1021C0008C8349815A816B818D810E94FD10C2CF21
:1021D0000F900F900F900F900F90DF91CF911F9164
:1021E0000F91FF90EF90DF90CF90BF90AF909F90B6
:1021F0008F907F906F905F900895CF93DF93CDB7CE
:10220000DEB72B970FB6F894DEBF0FBECDBF4F835E
:10221000588769877A878B871E8285E0FE0137960B
:10222000DE01119601900D928A95E1F749815A815C
:102230006B817C818D819E812B960FB6F894DEBFD9
:102240000FBECDBFDF91CF910C947417882309F492
:10225000D8C0823871F40E94F10F81FDD2C089E3A9
:102260000E94191B0E94E31B89E30E94561B0C94D9
:10227000E31B833859F40E94F10F80FDC2C083E54F
:102280000E94191B0E94E31B83E5EFCF843859F4A9
:102290000E94F10F82FDB5C087E40E94191B0E94C5
:1022A000E31B87E4E2CF9CEF980F913A18F40E9469
:1022B000191BDDCF90E2980F983050F4877091E0B1
:1022C00001C0990F8A95EAF7892F0E949A1BCFCFF8
:1022D0009BE5980F933070F4853A31F0863A39F0E7
:1022E00083E890E00C94131081E890E0FBCF82E843
:1022F00090E0F8CF98E5980F953108F082C0883AC1
:1023000009F440C0893A09F440C08A3A09F440C04F
:102310008B3A09F440C08C3A09F440C08B3B09F475
:1023200040C08C3B09F440C08D3A09F440C0803B6A
:1023300009F440C08E3A09F440C08F3A09F440C015
:10234000813B09F440C0823B09F440C0833B09F45F
:1023500040C0843B09F440C0853B09F440C0863B43
:1023600009F440C0873B09F440C0883B09F440C0F1
:10237000893B09F440C08A3B09F440C090E080E00A
:102380000C94291082EE90E0FBCF89EE90E0F8CF1C
:102390008AEE90E0F5CF85EB90E0F2CF86EB90E00F
:1023A000EFCF83EB90E0ECCF84EB90E0E9CF87EBCD
:1023B00090E0E6CF8CEC90E0E3CF8DEC90E0E0CFC6
:1023C00083E891E0DDCF8AE891E0DACF82E991E01D
:1023D000D7CF84E991E0D4CF81E292E0D1CF83E2FC
:1023E00092E0CECF84E292E0CBCF85E292E0C8CFFC
:1023F00086E292E0C5CF87E292E0C2CF8AE292E025
:10240000BFCF0895882309F44BC0823871F40E942D
:10241000F10F81FF45C089E30E94191B0E94E31B55
:1024200089E30E94561B0C94E31B833859F40E94E5
:10243000F10F80FF35C083E50E94191B0E94E31B4A
:1024400083E5EFCF843859F40E94F10F82FF28C052
:1024500087E40E94191B0E94E31B87E4E2CF9CEFF4
:10246000980F913AF0F290E2980F983050F48770FC
:1024700091E001C0990F8A95EAF7892F0E94A01B6D
:10248000D2CF9BE5980F933020F490E080E00C943D
:102490001310885A853120F490E080E00C942910C4
:1024A0000895882321F00E949A1B0C94E31B089541
:1024B000882321F00E94A01B0C94E31B08958F92A7
:1024C0009F92AF92BF92DF92EF92FF920F931F9372
:1024D000CF93DF9300D000D00F92CDB7DEB77C0151
:1024E0006D837983FC01058102950F7012811111B2
:1024F0000E94B91B0E94121BD82E882371F0112351
:10250000A1F08D81805E883080F082E00E94FC1A0C
:102510000E94121B91E0D82ED926E981E295EF7036
:10252000F0E0EC54F64D0C945029D12CF6CF0981F3
:102530000F70F981F07F11F00295007F1123B1F047
:10254000002361F08D81805E883018F02D8121118B
:1025500009C0802F0E949A1B0E94E31B8D810E945C
:10256000261115C0802F0E94AB1BF6CF8D810E94D3
:102570000212002361F08D81805E883018F03D8169
:10258000311129C0802F0E94A01B0E94E31BDD2077
:1025900009F4D3C10E94EF1A80FDCFC1F701128266
:1025A0000E94E91A0E943219C7010E94AE140E94CB
:1025B000E91A0F900F900F900F900F90DF91CF912D
:1025C0001F910F91FF90EF90DF90BF90AF909F9081
:1025D0008F900C945419802F0E94B11BD6CF498143
:1025E0004F70B42E5981507F503219F0B29480EF61
:1025F000B8228D81882369F0813029F1112369F196
:10260000002359F0F701858180FFA8CF8F70858363
:1026100004C0112361F0011104C08B2D0E945112DE
:10262000B6CF8B2D0130D1F70E94CD1BB0CF011159
:1026300006C00E94D01B8B2D0E945812A8CF0130DB
:1026400009F4A5CFF6CF112321F0063008F09FCF73
:10265000E4CF053008F09BCFEECF002361F38D81EE
:102660000E94021294CF898186958695837069F0C5
:10267000813009F08CCF8D8199819370111102C046
:1026800090E080E00E94291082CF8D819981937023
:10269000111102C090E080E00E94131078CF8D816C
:1026A000112329F00E94471F0E942E2070CF0E9404
:1026B000AF1FFACF8981837009F05FC0111167CF16
:1026C0002D81229526952770220F220F8D818F70E4
:1026D00090E0B0E0A0E04C015D01022E04C0880C47
:1026E000991CAA1CBB1C0A94D2F7FD8160E070E023
:1026F000CB01F4FF0FC06FE070E080E090E004C019
:10270000660F771F881F991F2A95D2F760957095DD
:102710008095909529812695269523702D832230CA
:10272000B1F0233019F19B01AC01282939294A293C
:102730005B2929833A834B835C833D8169817A815C
:102740008B819C813130B1F00E94BF1820CF9B015A
:10275000AC01282939294A295B2929833A834B83EB
:102760005C83CA01B9010E94E91811CF0E94BF1809
:10277000C501B4010E9495180ACF8695112311F066
:1027800089818170882309F402CF2D8122952695B5
:102790002770220F220F8D818F7090E0B0E0A0E0B3
:1027A0004C015D01022E04C0880C991CAA1CBB1CA4
:1027B0000A94D2F73D8160E070E0CB0134FF0FC096
:1027C0006FE070E080E090E004C0660F771F881F24
:1027D000991F2A95D2F760957095809590954981BB
:1027E0004695469543704D834230B1F0433019F120
:1027F0009B01AC01282939294A295B2929833A837D
:102800004B835C833D8169817A818B819C813130EE
:10281000B1F00E94C519BBCE9B01AC012829392912
:102820004A295B2929833A834B835C83CA01B90116
:102830000E94EF19ACCE0E94C519C501B4010E94D7
:102840009B19A5CE3D81323F09F447C080F4303F4B
:1028500079F1313FD9F1832F805E8031D0F011239F
:1028600009F456C001117ACE89818F7133C04D8130
:10287000433FD1F1443F99F7112309F43FC08981C7
:102880008F7189830E94321963E089810E94F31A53
:102890007ECE5D815F705D8389818F71112321F010
:1028A0000E9432198D81BACE0E9454198D81C4CEF6
:1028B000112341F0053008F06ACE89818F710E94A2
:1028C000791965CE063008F062CEF7CF89818F7115
:1028D000112339F00E9432195ACE89818F71112348
:1028E000C9F30E94541953CE112329F089818F71A5
:1028F0000E941D194CCE0E94131949CE81E00E94FE
:10290000FC1A023008F443CE82E00E94FC1A3FCE4B
:102910000111A5CE89818F71E4CF49814F706D81FE
:10292000C7010E94350B0E940E1831CE49814F70AD
:102930006D81C7010E94850C2ACE0F900F900F90D9
:102940000F900F90DF91CF911F910F91FF90EF901B
:10295000DF90BF90AF909F908F9008950F931F933B
:10296000CF93DF93EC018B819C81892B29F08881A7
:10297000998189238F3F29F4DF91CF911F910F9186
:102980000895CE010E944E0B8823B1F368817981AE
:102990008A810E94BF1A8C010E94191A0E948A180B
:1029A000B801CE01DF91CF911F910F910C945F126E
:1029B0000E94B91B0E94CA1B0E948C1B0E94E31B31
:1029C0000E941F210E942E2090E080E00E941310A0
:1029D00090E080E00C9429100E94A81B0C94D8145D
:1029E0000E94B31A282F892F82958F70903C80F413
:1029F0008A30B0F4843020F4823090F480E008957E
:102A00008630E1F781E0203E88F0213FB9F70EC023
:102A10008C3011F08F3091F793FB882780F908955F
:102A200081E0203F39F018F4203E40F70895243F1C
:102A300029F7FCCF0895CF93DF9300D000D00F92F9
:102A4000CDB7DEB70F900F900F900F900F90DF91E2
:102A5000CF910895CF93DF9300D000D000D0CDB7B1
:102A6000DEB726960FB6F894DEBF0FBECDBFDF915E
:102A7000CF9108951F93CF93DF93E091A50116E0C6
:102A80008091A6018E1304C0DF91CF911F9108950C
:102A9000CE2FD0E01E9FF0011124E955FE4F40815A
:102AA000518162817381848195810E942A15FE0182
:102AB0003196E770E5CF4091D7015091D8016091F0
:102AC000D9017091DA018091DB019091DC010C94C5
:102AD0002A151F93CF93DF938091DC01807FC1F48F
:102AE0008091D9018823A1F08091A501C091A60110
:102AF0006091D7017091D8014091DA015091DB01CA
:102B0000D62FD723DA01A095B09516E0C81304C0DC
:102B1000DF91CF911F91089590E04115510511F07B
:102B2000DF3F31F401968770F1CF2A0F3B1F17C0AA
:102B3000189FF001199FF00D1124E955FE4F2181D6
:102B40002713F0CF20812613EDCF22812111EACF68
:102B5000238134812417350740F3241B350B283C8F
:102B6000310500F72091DC012F7020612093DC01FA
:102B700026E0289FF001299FF00D1124E455FE4F17
:102B800080818F708061808387ED91E00E94AE1418
:102B9000DF91CF911F910C943A159F92AF92BF9203
:102BA000CF92DF92EF92FF920F931F93CF93DF9319
:102BB000CDB7DEB72B970FB6F894DEBF0FBECDBFF3
:102BC0008C0185E0F801DE01179601900D928A953F
:102BD000E1F7D8014C9111965C9111971296EC9007
:102BE00012978091DA019091DB01009709F46BC193
:102BF0002091D7013091D801632F62236F3F09F4F0
:102C000062C11396CD90DC909090D901992009F47F
:102C1000F8C0C816D90608F43FC0F601E81BF90B46
:102C2000CF01FF24F394883C910508F0F12C87ED47
:102C3000A82E81E0B82E8091DC01982F907FFF2094
:102C400009F4B7C0911180C0FE2C35132AC024139B
:102C500028C0E11026C08F7080618093DC010E9443
:102C60005B15C5010E94AE148091DC01D801159658
:102C70008C938F2D2B960FB6F894DEBF0FBECDBF71
:102C8000DF91CF911F910F91FF90EF90DF90CF9048
:102C9000BF90AF909F900895809590958C0D9D1D4D
:102CA000C0CFCD2829F0842F85238F3F09F019C18B
:102CB00080E0B82FB170DB2EE091A5012091A60134
:102CC00036E080FD1CC0EE20A1F28091DC01816025
:102CD0008093DC01F12CCDCF8E2F90E03E9FF00150
:102CE0001124E955FE4F6181651306C060816413AC
:102CF00003C062816E11E7CFFC013196E770E213E9
:102D0000EBCF4F8358878F8198850E94B31A292F64
:102D100022952F70903260F0225F2F70223078F46D
:102D20009F7051F0F8019581907F31F4D12C0AC049
:102D30009F7011F08823D1F3805E8830B8F3C8010A
:102D40000E94AE14FD2C95CF351306C0241304C089
:102D5000D801EE2009F47BC04F8358878F81988576
:102D60000E94F014882309F4B8C0EE2009F4B5C01D
:102D70008091DC01803270F02091D7013091D80130
:102D80003A8329831B82DD82CC828E83CE01019619
:102D90000E94AE1486E0F801A7EDB1E001900D921B
:102DA0008A95E1F70E9469150E945B15FF24F39450
:102DB00060CF911113C07C2DDB86CA866E2D8B856A
:102DC0000E941B1587ED91E00E94AE1486E0F5018C
:102DD00011928A95E9F70E945B154BCF3513BCCF52
:102DE0002413BACFE110B8CFD80115968C93C8013F
:102DF0000E94AE1486E0F50111928A95E9F7F92C4C
:102E000038CFC816D90688F1B601681B790BCB01FB
:102E1000F12C883C910508F047C0FE2CEE2009F407
:102E20005CC0351330C024132EC08091DC0180FDBE
:102E300021C0982F907FF1F0D80115968C931597AB
:102E4000903F39F0982F907F905F8F70892B159667
:102E50008C93C8010E94AE1486E0F801A7EDB1E0A2
:102E600001900D928A95E1F7B6CF809590958C0DE3
:102E70009D1DCECF86E0F801A7EDB1E001900D9247
:102E80008A95E1F7F6CE4F8358878F8198850E9407
:102E9000F01481117FCF8091DC0181608093DC018F
:102EA000C8010E94AE14E5CE7C2DDB86CA866E2D4D
:102EB0008B850E941B1586E0E7EDF1E0DF011D9296
:102EC0008A95E9F788CFEE2041F04F8358878F81AC
:102ED00098850E94F01481115DCFC8010E94AE1444
:102EE00065CF81E08E25E5CE1F93CF93DF93CDB7DD
:102EF000DEB72C970FB6F894DEBF0FBECDBF4F8361
:102F0000588769877A878B879C87CE0107960E94AE
:102F1000CD15882369F08A859B85892B39F04F81EF
:102F20005885842F85238F3F09F071C016E05FC05C
:102F300086E0FE013796DE01119601900D928A958A
:102F4000E1F78A859B85892B89F388859F81892371
:102F50008F3F61F32091A60130E0C901019687708F
:102F600099274091A5014817190671F40E94EC14A5
:102F70001092A6011092A50186E0E7EDF1E0DF01D5
:102F80001D928A95E9F7D2CF96E0929FD001939F48
:102F9000B00D1124A955BE4FFE01319601900D923E
:102FA0009A95E1F78093A6010E943A15BFCF819FC1
:102FB000C001112489559E4F0E94CD158823E9F048
:102FC000E091A5011E9FF0011124E955FE4F4081BB
:102FD000518162817381848195810E942A1580913B
:102FE000A50190E00196877099278093A5018091B3
:102FF000A5019091A6018913DACF2C960FB6F8940B
:10300000DEBF0FBECDBFDF91CF911F9108956985BF
:103010007A858B859C850E942A1588CFEF92FF9236
:103020000F931F93CF93DF938C01892B89F0F12CA1
:10303000EE24E394E8012196F8018491843709F4A1
:1030400057C0A0F4823009F43EC048F48130D1F07A
:10305000DF91CF911F910F91FF90EF9008959CEF1A
:10306000980F9037A8F70E9426110AC0853709F4F7
:103070004CC09CE7980F903758F78F770E94021248
:103080008E0116C00E5F1F4FFE01849190E2980FD3
:10309000983060F48770FE2D01C0FF0F8A95EAF723
:1030A0008F2F0E94BC1B0E94E31B02C00E942611AE
:1030B0008F2D815008F4BECFEFE9FFE03197F1F793
:1030C00000C00000F6CF0E5F1F4FFE01849190E21A
:1030D000980F983050F48770FE2D01C0FF0F8A952D
:1030E000EAF78F2F0E94C21BDECF0E940212E0CFB0
:1030F0000E5F1F4FFE01C491C150D0F28FE99FE0D7
:103100000197F1F700C00000F7CF0E5F1F4FFE01DF
:10311000F490CECF08956093450270934602809359
:103120004702909348020C94D814CF93DF9300D0B9
:1031300000D0CDB7DEB769837A838B839C8380917F
:10314000450290914602A0914702B0914802298120
:103150003A814B815C81822B932BA42BB52B8093DE
:10316000450290934602A0934702B09348020F9005
:103170000F900F900F90DF91CF910C94D814CF93B4
:10318000DF9300D000D0CDB7DEB769837A838B831D
:103190009C838091450290914602A0914702B09194
:1031A000480229813A814B815C8182239323A423A5
:1031B000B5238093450290934602A0934702B093B3
:1031C00048020F900F900F900F90DF91CF910C94C9
:1031D000D814CF93DF9300D000D0CDB7DEB769838A
:1031E0007A838B839C838091450290914602A091C3
:1031F0004702B091480229813A814B815C81822744
:103200009327A427B5278093450290934602A09365
:103210004702B09348020F900F900F900F90DF91EC
:10322000CF910C94D8141092410210924202109245
:103230004302109244020C94D81441E050E060E044
:1032400070E004C0440F551F661F771F8A95D2F7A0
:1032500040934102509342026093430270934402B0
:103260000C94D814282F81E090E0A0E0B0E004C0D6
:10327000880F991FAA1FBB1F2A95D2F740914102C0
:10328000509142026091430270914402842B952B2D
:10329000A62BB72B8093410290934202A093430246
:1032A000B09344020C94D81441E050E060E070E028
:1032B00004C0440F551F661F771F8A95D2F74095AB
:1032C0005095609570958091410290914202A09135
:1032D0004302B091440284239523A623B72380930D
:1032E000410290934202A0934302B09344020C9493
:1032F000D814282F81E090E0A0E0B0E004C0880F4F
:10330000991FAA1FBB1F2A95D2F7409141025091E5
:103310004202609143027091440284279527A627B8
:10332000B7278093410290934202A0934302B09347
:1033300044020C94D814CF93DF9300D000D0CDB7C3
:10334000DEB769837A838B839C838091410290915D
:103350004202A0914302B091440229813A814B81FB
:103360005C81822B932BA42BB52B809341029093ED
:103370004202A0934302B09344020F900F900F902B
:103380000F90DF91CF910C94D814CF93DF9300D09E
:1033900000D0CDB7DEB769837A838B839C8380911D
:1033A000410290914202A0914302B09144022981CE
:1033B0003A814B815C8182239323A423B52380939C
:1033C000410290934202A0934302B09344020F90B3
:1033D0000F900F900F90DF91CF910C94D814CF9352
:1033E000DF9300D000D0CDB7DEB769837A838B83BB
:1033F0009C838091410290914202A0914302B0913E
:10340000440229813A814B815C8182279327A4273A
:10341000B5278093410290934202A0934302B09358
:1034200044020F900F900F900F90DF91CF910C946A
:10343000D8140895E82F2DE0929FE00D11248E2FCF
:10344000877041E001C0440F8A95EAF7E695E6955A
:10345000E69585E0E89FF0011124E352FE4F30E04D
:1034600020E070E05191DF011197CB01022E02C0E4
:10347000969587950A94E2F7817081958527842334
:1034800085278C932F5F3F4F2530310559F70895DD
:10349000E82F2DE0929FE00D11249E2F9770E69566
:1034A000E695E69585E0E89FF0011124E352FE4F92
:1034B00050E040E080E0219130E0092E02C03695D6
:1034C00027950A94E2F721703327042E01C0220FBA
:1034D0000A94EAF7822B4F5F5F4F4530510559F749
:1034E0000895BF92CF92DF92EF92FF920F931F93B6
:1034F000CF93DF938C01C0904102D0904202E090C4
:103500004302F09044028091450290914602A091BE
:103510004702B0914802C82AD92AEA2AFB2ACFE1F9
:10352000D0E0BC2ED701C6010C2E04C0B695A795DD
:10353000979587950A94D2F780FD0EC0219788F75A
:10354000B12C8B2DDF91CF911F910F91FF90EF90B8
:10355000DF90CF90BF900895B8018C2F0E94A20CED
:10356000019761F3EECFCF93DF93D82FC92F0E943D
:10357000711A6D2F7C2FDF91CF910C94A20C1F93A9
:10358000CF93DF93162FD72F9091A401992339F071
:10359000862F972FDF91CF911F910C94B31A882318
:1035A00091F0862F972F0E94711AC82F682F812FB4
:1035B0009D2F0E941A1A612F7D2F8C2FDF91CF91A2
:1035C0001F910C94A20C862F972F0E94481AC82F87
:1035D000F2CF8091490285958595859508958091D2
:1035E00049028770089598E0899F90011124622B09
:1035F000609349020C943219909149028095892375
:1036000080934902282F277061F4282F082E000C80
:10361000330B9217130629F08595859585950C94A3
:103620005419089590914902977081E009F480E05F
:103630000895909112019923E1F090919F0297FFD4
:1036400018C0E82FE695E695E695EF3139F120911F
:10365000000130910101E20FF32FF11D877021E08D
:1036600030E001C0220F8A95EAF78181822B8183A5
:1036700008952091000130910101F90132969FEFE8
:1036800040E05191851751F09F3F19F4511101C04D
:10369000942F4F5F4E31A9F79F3F09F40895290FEA
:1036A000311D97FD3A95F901828308959091120199
:1036B000992301F190919F0297FF1CC0E82FE69596
:1036C000E695E695EF3139F1209100013091010145
:1036D000E20FF32FF11D877021E030E0A90102C055
:1036E000440F551F8A95E2F7CA018095918189237D
:1036F000818308952091000130910101F9013296F2
:10370000205E3F4F9191891303C0DF0111971C92F6
:10371000E217F307B9F7089581E090E0E091000126
:10372000F0910101E80FF91F108201968032910596
:10373000A9F7089590916D02982B90936D020895CA
:10374000982F909580916D02892380936D02089542
:1037500010926D02089590916C02982B90936C02D8
:103760000895982F909580916C02892380936C0224
:10377000089510926C02089590916B02982B90938B
:103780006B020895982F909580916B028923809306
:103790006B02089510926B02089580934A02089577
:1037A00010924A0208952091000130910101F9011F
:1037B0003196205E3F4F80E0919191118F5FE2172B
:1037C000F307D1F70895E0910001F0910101809194
:1037D0006D028083E0910001F09101018081909160
:1037E0006C02892B8083E0910001F09101018081BE
:1037F00090916B02892B808390914A02992361F00A
:10380000E0910001F09101018081892B80830E9469
:10381000D31B811110924A02809100019091010105
:103820000C94FD0F6DEE7EEF90E080E00E948A29FF
:1038300060E082E090E00E94782960E083E090E020
:103840000E94782960E084E090E00E94782960E09E
:1038500085E090E00C94782990E080E00E94722945
:103860009C0181E02D3E3E4F09F080E0089582E00A
:1038700090E00C946A29682F82E090E00C947829FB
:1038800083E090E00C946A29682F83E090E00C9428
:10389000782984E090E00C946A29682F84E090E015
:1038A0000C9478298091A502843039F110926F022E
:1038B00088E190E020E40FB6F894A895809360002A
:1038C0000FBE2093600080E00E94830C83B7817F4D
:1038D000846083BF83B7816083BF7894889583B702
:1038E0008E7F83BF0FB6F894A895809160008861A1
:1038F00080936000109260000FBE089508950895AF
:10390000CF930E947E1C0E942D0F0E947F1CC0E05E
:103910008C2F0E94E20F892B31F4CF5FCC30C1F79E
:1039200080E0CF91089581E0FCCF0E94EC140E94CA
:10393000F10F0C94830C1F921FB61F9211248F93CA
:103940009F93AF93BF9380916F02811113C08091B9
:103950009B0290919C02A0919D02B0919E02419683
:10396000A11DB11D80939B0290939C02A0939D0288
:10397000B0939E02BF91AF919F918F911F901FBEF8
:103980001F90189582E084BD93E095BD9AEF97BD96
:1039900080936E0008952FB7F89480919B029091C8
:1039A0009C02A0919D02B0919E022FBF0895CF92DC
:1039B000DF92EF92FF929C014FB7F89480919B02A7
:1039C00090919C02A0919D02B0919E024FBF6C010C
:1039D0007D01EE24FF24A90170E060E0C416D50645
:1039E000E606F70638F0821B930BFF90EF90DF900E
:1039F000CF9008950197F7CF1F921FB61F92112401
:103A00008F939F93AF93BF9380919B0290919C0261
:103A1000A0919D02B0919E020196A11DB11D8093BF
:103A20009B0290939C02A0939D02B0939E02BF9133
:103A3000AF919F918F911F901FBE1F9018950E946C
:103A40001325F8942FEF87EA91E6215080409040AB
:103A5000E1F700C0000087E090EBDC018093AE024C
:103A60009093AF02A093B002B093B10288E19CE0C2
:103A70000FB6F894A895809360000FBE90936000F5
:103A8000FFCFAF92BF92CF92DF92EF92FF920F9350
:103A90001F93CF93C0E0AA24A394B12CE82EF12C5D
:103AA0008C2F0E94E20F6C0110E000E0C501002E97
:103AB00002C0880F991F0A94E2F78C219D21892B5F
:103AC00099F0602F7C2F80E00E94860CE816F906A2
:103AD00059F481E0CF911F910F91FF90EF90DF900B
:103AE000CF90BF90AF9008950F5F1F4F0D3011051D
:103AF000E9F6CF5FCC30A1F680E0ECCFCF93C82FB2
:103B00008CE20E94411D882321F08C2FCF910C94D0
:103B1000411D80E0CF910895CF93DF9300D000D076
:103B2000CDB7DEB70E942C1C811102C00E94121C6E
:103B300095E6998308C00E942D0F8FE39CE90197B9
:103B4000F1F700C00000A981A150A983A111F3CF12
:103B500089E20E947E1D811110C18AE20E947E1DB1
:103B600081110E94121C85E00E947E1D81110E941D
:103B70001F1D0E94371C80936E0287E00E947E1DED
:103B8000882371F08BE10E947E1D882309F4D1C047
:103B900090916E02892F8D7F91FF826080936E02DB
:103BA00080916E020E943B1C0E94491C90E0909301
:103BB000A00280939F0280EE0E947E1D882341F028
:103BC00090919F02892F8E7F90FF816080939F024A
:103BD00089E30E947E1D882341F090919F02892FE6
:103BE0008D7F91FF826080939F0282EE0E947E1DF6
:103BF000882341F090919F02892F8B7F92FF8460F0
:103C000080939F0286EE0E947E1D882341F0909152
:103C10009F02892F877F93FF886080939F0283EEA6
:103C20000E947E1D882341F090919F02892F8F7EF4
:103C300094FF806180939F0285E30E947E1D88230C
:103C400041F090919F02892F8F7D95FF8062809334
:103C50009F0281E30E947E1D882341F090919F0284
:103C6000892F8F7B96FF806480939F0281E10E9461
:103C70007E1D882341F090919F02892F97FB87F941
:103C8000805880939F0280919F020E944D1C87E282
:103C90000E947E1D89838EE10E947E1D882319F07B
:103CA000B981B260B9838FE10E947E1D882319F02B
:103CB00029812460298380E20E947E1D882319F0D7
:103CC00039813860398381E20E947E1D882319F092
:103CD00049814061498382E20E947E1D882319F058
:103CE00059815062598383E20E947E1D882319F016
:103CF00089818064898384E20E947E1D8823B1F1DA
:103D000099819068998389810E94441C3981232F6D
:103D100030E050E040E029833A834B835C83CA0162
:103D2000B9010F900F900F900F90DF91CF910C94ED
:103D30008B188EE00E947E1D882339F090916E02D0
:103D4000892F8B7F92FF846029CF80E10E947E1DA6
:103D500090916E02882329F0892F877F93FF8860D6
:103D60001DCF892F8E7F90FF816018CFA981A1116F
:103D7000CACF0E94401C282FCBCF0F900F900F90DE
:103D80000F90DF91CF9108958091720280FF12C051
:103D90006091050185E0689FB001112475956795D4
:103DA0007595679560387105A8F561157105A1F1E4
:103DB000862F089581FF09C06091050185E0689F05
:103DC000B001112475956795EDCF6091050182FDD5
:103DD0000AC0809173028823D1F090910401609110
:103DE0000501891728F085E0689FB0011124DACF1A
:103DF000869FB001112485E0869F9001879F300D3A
:103E00001124692F70E0C9010E943C29CBCF65E0E5
:103E100070E0CECF8FE7089581E00895809172021F
:103E200080FF0CC06091030170E0759567957595F2
:103E300067956115710549F1862F089581FF06C0C8
:103E40006091030170E075956795F3CF6091030170
:103E500082FD0BC0909173029923A1F06091020141
:103E600080910301961738F0682F70E06038710573
:103E700000F38FE70895899FC001112470E00E942C
:103E80003C29F4CF61E070E0D7CF81E00895803F16
:103E900031F40E94C41E8195809376020895813F7B
:103EA00019F40E94C41EF8CF823F31F40E94C41E50
:103EB0008195809375020895833F19F40E94C41E72
:103EC000F8CF893F29F40E940E1F8093770208954E
:103ED0008A3F21F40E940E1F8195F7CF8B3F31F46A
:103EE0000E940E1F81958093780208958C3F19F4EB
:103EF0000E940E1FF8CF843F31F4809174028160DC
:103F0000809374020895853F21F480917402826049
:103F1000F7CF863F21F4809174028460F1CF873F10
:103F200021F4809174028860EBCF883F21F4809166
:103F300074028061E5CF8D3F31F48091720281601F
:103F40008093720208958E3F21F480917202826004
:103F5000F7CF8F3FB9F7809172028460F1CF9091D3
:103F60007502803F41F48091760287FD10927602BF
:103F7000992371F00895813F29F4809176021816F3
:103F8000ACF3F6CF823F81F497FFF2CF1092750227
:103F90008091760290917702892B90917802892BFB
:103FA00049F7109273020895833F19F4191674F3B8
:103FB000DFCF893F39F4809177021816CCF6109242
:103FC0007702D6CF8A3F29F48091770287FFD0CF3E
:103FD000F6CF8B3F39F48091780287FFC9CF1092DA
:103FE0007802C6CF8C3F29F4809178021816BCF372
:103FF000BFCF843F31F4809174028E7F809374022E
:10400000B7CF853F21F4809174028D7FF7CF863F33
:1040100021F4809174028B7FF1CF873F21F480914E
:104020007402877FEBCF883F21F4809174028F7EEA
:10403000E5CF8D3F31F4809172028E7F80937202C2
:1040400097CF8E3F21F4809172028D7FF7CF8F3F03
:1040500009F08ECF809172028B7FF0CF84E792E0DF
:104060000E9408100E94CB1C9093710280937002F2
:1040700008951F93CF93DF9300D000D000D0CDB729
:10408000DEB780917002909171020E94D71CAC0142
:10409000809173022091060130E0811106C02091C9
:1040A00007019AE0299F900111244217530788F0D5
:1040B00020917502A0917602A98310917702B091A8
:1040C0007802BE8321110FC09A2F912B9B2B09F0F0
:1040D000B2C026960FB6F894DEBF0FBECDBFDF91FB
:1040E000CF911F9108958F3F19F08F5F80937302D6
:1040F000121624F40E94C41E8093750280917502EA
:1041000087FF05C00E94C41E819580937502298196
:10411000121624F40E94C41E8093760280917602C7
:1041200087FF05C00E94C41E81958093760280910E
:104130007502882309F455C0309176023D833323FC
:1041400009F44FC0282F880F330B440B550B2983DC
:104150003A834B835C83CA01B9010E94432823E35D
:1041600033E343E35FE369837A838B839C836981D1
:104170007A818B819C810E94A72869837A838B83B3
:104180009C8369817A818B819C810E940B2860933A
:1041900075028D81082E000C990BAA0BBB0B89832D
:1041A0009A83AB83BC83BC01CD010E94432823E3E7
:1041B00033E343E35FE369837A838B839C83698181
:1041C0007A818B819C810E94A72869837A838B8363
:1041D0009C8369817A818B819C810E940B286093EA
:1041E0007602111624F40E940E1F809377028091AC
:1041F000770287FF05C00E940E1F8195809377028A
:104200009E81191624F40E940E1F809378028091DB
:10421000780287FF05C00E940E1F81958093780267
:1042200026960FB6F894DEBF0FBECDBFDF91CF91BB
:104230001F910C942E208F3F09F057CF68CF85E057
:10424000E4E7F2E0DF011D928A95E9F7109273022C
:10425000109272020895809199020895CF93DF938E
:1042600000D00F92CDB7DEB72091A502243019F50A
:1042700023E029838A839B832093E9008FEF909129
:10428000E800815095FD06C095ED9A95F1F7000084
:104290008111F5CF8091E80085FF0DC050E040E02E
:1042A00063E070E0CE0101960E948B238091E800CC
:1042B0008E778093E8000F900F900F90DF91CF9151
:1042C0000895CF93DF9300D00F92CDB7DEB79C0156
:1042D0008091A502843031F582E08983205831092C
:1042E0003B832A8383E08093E9008FEF9091E8007D
:1042F000815095FD06C095ED9A95F1F7000081116A
:10430000F5CF8091E80085FF0DC050E040E063E00C
:1043100070E0CE0101960E948B238091E8008E7799
:104320008093E8000F900F900F90DF91CF91089548
:104330002091A5022430F1F422E02093E9002FEF30
:104340003091E800215035FD06C035ED3A95F1F782
:1043500000002111F5CF2091E80025FF0BC050E0AF
:1043600040E065E070E00E948B238091E8008E774A
:104370008093E8000895CF93DF93D82FC92F8091C1
:10438000A5028430F1F4909112019923E9F0909103
:104390009F0297FF19C08093E9008FEF9091E8008A
:1043A000815095FD06C095E19A95F1F700008111C5
:1043B000F5CF8091E80050E040E060E270E085FDDC
:1043C0001AC0DF91CF91089581E08093E9008FEFCB
:1043D0009091E800815095FD06C095ED9A95F1F712
:1043E00000008111F5CF8091E80085FFEACF50E011
:1043F00040E068E070E08D2F9C2F0E948B2380911D
:10440000E8008E778093E80080E2ED2FFC2FA9E78B
:10441000B2E001900D928A95E1F7D3CF8091A4028A
:10442000811109C00E9413250E9470258091E2002D
:1044300084608093E20008951092A4020895089584
:1044400008950C94951C42E061EC81E00E948F2459
:1044500042E061EC82E00E948F2442E061EC83E064
:104460000E948F2442E261EC84E00C948F248091BE
:10447000A702893089F148F4823009F494C083306E
:1044800009F44FC0813041F008958A3009F47BC0AF
:104490008B3009F461C008958091A602813A09F039
:1044A0003FC08091E800877F8093E8008091AA0256
:1044B0009091AB02892B61F460E289E792E070E0B1
:1044C0000E94DA238091E8008B778093E8000895BA
:1044D00060E090E080E0F3CF8091A602813201F5A8
:1044E0008091AA029091AB02009711F00397C1F45A
:1044F0008091E800877F8093E8008091E80082FF48
:104500000BC08091F100809399028091E8008B7735
:104510008093E8000C94C3248091A5028111EDCF13
:1045200008958091A602813AD9F78091AA029091CC
:10453000AB02892BA9F78091E800877F8093E80080
:104540008091E80080FFFCCF809112018093F10000
:104550008091E8008E77DCCF8091A602813201F74E
:104560008091AA029091AB02892BD1F68091E8004C
:10457000877F8093E8000E94C3248091A8028093E3
:1045800012010C94EC148091A602813249F68091BC
:10459000E800877F8093E8000E94C3248091A902ED
:1045A00080939A0208958091A602813A09F0B8CFCB
:1045B0008091E800877F8093E8008091E80080FF89
:1045C000FCCF80919A02C2CF84B7877F84BF0FB699
:1045D000F894A895809160008861809360001092A3
:1045E00060000FBE80E880936100109261000E941D
:1045F00040100E9413250E9470258091E200846083
:104600008093E20078940E94F0270E94421088E094
:1046100091E00E94EC0F8091A502853019F00E9474
:104620004810F9CF0E94521C8091A302882399F36D
:104630000E94801C882379F30E947523ECCF9C0193
:10464000DA01892F992783309105C1F068F4813010
:10465000910509F445C0029761F48DE690E02CE5E0
:1046600034E12D933C93089581329105E1F08297D6
:1046700039F190E080E030E020E0F3CFC9019927E4
:10468000213059F08230910559F0E8E5F4E1892BA9
:1046900081F7849190E09F01E4CFE0E4F4E1F9CF69
:1046A000ECE2F4E1F6CF643020F7E62FF0E0EE0F15
:1046B000FF1FE85CFE4F2081318189E090E0D1CF7F
:1046C0006430B8F670E0FB01EE0FFF1FE05DFE4FB7
:1046D00020813181645D7E4FFB01808190E0C1CFFC
:1046E00082E190E029EC34E1BCCF80E189BD82E138
:1046F00089BD09B400FEFDCF8091D8008F7D8093E5
:10470000D8008091E00082608093E0008091E0001A
:1047100081FDFCCF0895AF92BF92CF92DF92FF92BE
:104720000F931F93CF93DF936C01EB018A010E94DB
:10473000E224F82E811123C00115110539F0F8018A
:1047400080819181C81BD90BC80ED91EB12CA12C18
:104750002097A9F08091E80085FD22C08091E800B3
:104760008E778093E80001151105A1F0F801808192
:104770009181A80EB91EB182A08285E0F82E8F2DFE
:10478000DF91CF911F910F91FF90DF90CF90BF905D
:10479000AF9008950E94E2248823D1F2F82EEFCF43
:1047A000F60181916F018093F1002197FFEFAF1A1D
:1047B000BF0ACECFFC01CB012091AC023091AD02FB
:1047C0002617370790F0009729F42091E8002E77FC
:1047D0002093E80040E0009751F4411108C0809117
:1047E000E80082FF31C080E00895C901F3CF209135
:1047F000A5022223A9F12530A9F12091E80023FD8B
:104800002DC02091E80022FDEACF2091E80020FF92
:10481000E2CF3091F3002091F200009719F0283098
:10482000310558F041E02830310509F040E0209191
:10483000E8002E772093E800CECF41914093F1001D
:1048400001972F5F3F4FE9CF8091A502882341F068
:10485000853041F08091E80083FFC1CF81E0089569
:1048600082E0089583E00895FC01CB012091AC0221
:104870003091AD022617370790F0009729F4209168
:10488000E8002E772093E80040E0009751F44111B2
:1048900008C08091E80082FF32C080E00895C9011D
:1048A000F3CF2091A5022223B1F12530B1F120915F
:1048B000E80023FD2EC02091E80022FDEACF2091E0
:1048C000E80020FFE2CF3091F3002091F200009742
:1048D00019F02830310558F041E02830310509F051
:1048E00040E02091E8002E772093E800CECF44915D
:1048F0004093F100319601972F5F3F4FE8CF8091B1
:10490000A502882341F0853041F08091E80083FFC3
:10491000C0CF81E0089582E0089583E00895982F44
:10492000973028F08F708093E90081E0089590938C
:10493000E900242F762F50E0981731F07091EC00A9
:104940002091ED005091F00021FD02C09F5FE8CF63
:104950003091EB003E7F3093EB003091ED003D7FD6
:104960003093ED003091EB0031603093EB007093A9
:10497000EC002093ED005093F0002091EE0027FD15
:10498000E5CF80E008958091A60287FF13C0809153
:10499000E80082FF06C08091E8008B778093E800F2
:1049A00004C08091A5028111F2CF08958091A502E3
:1049B0008823D9F38091E80080FFF8CF8091E80048
:1049C0008E77ECCF2091E4003091E50095E6A901C7
:1049D0002091EC00822F817020FF06C08091E800BA
:1049E00080FF06C080E008952091E80022FD1AC0F3
:1049F0008091A502882389F0853089F08091EB00B1
:104A000085FD0FC02091E4003091E5004217530767
:104A1000F9F29150E1F684E0089582E0089583E090
:104A2000089581E008950E9481250E948925E0EE85
:104A3000F0E0808181608083E8EDF0E080818F7715
:104A4000808319BCA7EDB0E08C918E7F8C93808120
:104A50008F7E80831092A40208950F931F93CF93AB
:104A6000DF930E9481250E948925C8EDD0E08881CE
:104A70008F77888388818068888388818F7D888309
:104A800019BC1092A5021092A1021092A3021092DA
:104A9000A20200EE10E0F80180818B7F8083888184
:104AA0008160888342E060E080E00E948F24E1EE34
:104AB000F0E080818E7F8083E2EEF0E08081816093
:104AC0008083808188608083F80180818E7F8083ED
:104AD000888180618883DF91CF911F910F91089524
:104AE000E8EDF0E080818F7E8083E7EDF0E080816B
:104AF0008160808384E082BF81E08093A4020C9473
:104B00002D25E8EDF0E080818E7F80831092E20019
:104B100008951092DA001092E10008951F920F920A
:104B20000FB60F9211242F933F934F935F936F9380
:104B30007F938F939F93AF93BF93EF93FF93809156
:104B4000E10082FF0BC08091E20082FF07C08091EC
:104B5000E1008B7F8093E1000E94EF278091DA00D3
:104B600080FF19C08091D80080FF15C08091DA00C5
:104B70008E7F8093DA008091D90080FF94C080E11D
:104B800089BD82E189BD09B400FEFDCF81E080933B
:104B9000A5020E940E228091E10080FF19C0809141
:104BA000E20080FF15C08091E2008E7F8093E200DA
:104BB0008091E20080618093E2008091D800806261
:104BC0008093D80019BC85E08093A5020E94202222
:104BD0008091E10084FF29C08091E20084FF25C01C
:104BE00080E189BD82E189BD09B400FEFDCF8091DD
:104BF000D8008F7D8093D8008091E1008F7E8093D4
:104C0000E1008091E2008F7E8093E2008091E200DB
:104C100081608093E2008091A102882309F449C059
:104C200084E08093A5020E9421228091E10083FF0D
:104C300029C08091E20083FF25C08091E100877F39
:104C40008093E10082E08093A5021092A1028091FE
:104C5000E1008E7F8093E1008091E2008E7F80935F
:104C6000E2008091E20080618093E20042E060E037
:104C700080E00E948F248091F00088608093F00093
:104C80000E941F22FF91EF91BF91AF919F918F9151
:104C90007F916F915F914F913F912F910F900FBE38
:104CA0000F901F90189519BC1092A5020E941C220B
:104CB00072CF8091E30087FD02C081E0B2CF83E034
:104CC000B0CF1F920F920FB60F9211242F933F93E4
:104CD0004F935F936F937F938F939F93AF93BF9304
:104CE000CF93DF93EF93FF93D091E900DF70809132
:104CF000EC00C82FC17080FDC0E81092E9008091DF
:104D0000F000877F8093F00078940E94A52610928F
:104D1000E9008091F00088608093F000CD2BCF7087
:104D2000C093E900FF91EF91DF91CF91BF91AF91D7
:104D30009F918F917F916F915F914F913F912F91B3
:104D40000F900FBE0F901F9018951F93CF93DF9376
:104D5000CDB7DEB7AA970FB6F894DEBF0FBECDBFB2
:104D600086EA92E0FC0101962091F100208322E086
:104D70008E3A9207B9F70E9437228091E80083FFAC
:104D800016C18091A6029091A7029A3008F00FC137
:104D9000E92FF0E0EC53F64D0C945029803881F067
:104DA000823809F004C18091AA028F708093E900D3
:104DB0008091EB0085FB882780F91092E90006C0FE
:104DC0008091A2029091A302911182609091E800DB
:104DD000977F9093E8008093F1001092F10080910A
:104DE000E8008E77E0C0882309F4CEC0823009F055
:104DF000DEC08091A8028111D1C08091AA028F707B
:104E000009F4D5C08093E9002091EB0020FFC6C0D3
:104E1000933031F48091EB0080628093EB00BEC050
:104E20009091EB0090619093EB0021E030E001C0A5
:104E3000220F8A95EAF72093EA001092EA00809107
:104E4000EB008860EACF8111B2C01091A8021F77F1
:104E50008091E3008078812B8093E3008091E800CB
:104E6000877F8093E8000E94C3248091E80080FF40
:104E7000FCCF8091E30080688093E30082E0111111
:104E800083E08093A50293C08058823008F08FC0E1
:104E90008091A8029091A9028C3D23E09207A1F590
:104EA00083E08A838AE289834FB7F894DE01139600
:104EB00020E03EE051E2E32FF0E050935700E49110
:104EC00020FF03C0E295EF703F5FEF708E2F90E000
:104ED000EA30C0F0C7968D939D932F5F243159F728
:104EE0004FBF8091E800877F8093E8006AE270E01E
:104EF000CE0101960E94DA238091E8008B7780939F
:104F0000E80055C0C096E7CFAE014F5F5F4F60919C
:104F1000AA020E941F23BC01892B09F448C080917A
:104F2000E800877F8093E80089819A810E94342479
:104F3000E3CF8038E1F58091E800877F8093E80037
:104F40008091A1028093F1004ACF811130C09091ED
:104F5000A802923060F58091E800877F8093E80096
:104F60009093A1020E94C3248091A102882311F092
:104F700084E005C08091E30087FDFACF81E0809353
:104F8000A5020E94232213C08091A802813079F4E7
:104F900081E0933009F080E08093A3021092E90051
:104FA0008091E800877F8093E8000E94C32480916D
:104FB000E80083FF0AC08091E800877F8093E800C3
:104FC0008091EB0080628093EB00AA960FB6F89474
:104FD000DEBF0FBECDBFDF91CF911F910895089521
:104FE000CF938091A5028823A1F0C091E900CF70F2
:104FF0009091EC00892F817090FD80E8C82B109271
:10500000E9008091E80083FD0E94A526CF70C0933F
:10501000E900CF9108950E9412286894B1110C9470
:10502000A12808950E94862888F09F5798F0B92FEC
:105030009927B751B0F0E1F0660F771F881F991FCD
:105040001AF0BA95C9F714C0B13091F00E94A028A7
:10505000B1E008950C94A028672F782F8827B85FB7
:1050600039F0B93FCCF3869577956795B395D9F725
:105070003EF490958095709561957F4F8F4F9F4F2F
:105080000895E89409C097FB3EF49095809570953B
:1050900061957F4F8F4F9F4F9923A9F0F92F96E984
:1050A000BB279395F695879577956795B795F111F9
:1050B000F8CFFAF4BB0F11F460FF1BC06F5F7F4F96
:1050C0008F4F9F4F16C0882311F096E911C07723A8
:1050D00021F09EE8872F762F05C0662371F096E8B1
:1050E000862F70E060E02AF09A95660F771F881F80
:1050F000DAF7880F9695879597F9089557FD905898
:10510000440F551F59F05F3F71F04795880F97FB8B
:10511000991F61F09F3F79F0879508951216130645
:105120001406551FF2CF4695F1DF08C01616170674
:105130001806991FF1CF86957105610508940895A9
:10514000E894BB2766277727CB0197F908950E943B
:10515000BA280C942B290E941D2938F00E9424297A
:1051600020F0952311F00C9414290C941A29112481
:105170000C94A1280E947E2870F3959FC1F3950F8F
:1051800050E0551F629FF001729FBB27F00DB11DCB
:10519000639FAA27F00DB11DAA1F649F6627B00D5B
:1051A000A11D661F829F2227B00DA11D621F739F44
:1051B000B00DA11D621F839FA00D611D221F749F52
:1051C0003327A00D611D231F849F600D211D822F99
:1051D000762F6A2F11249F5750409AF0F1F08823C0
:1051E0004AF0EE0FFF1FBB1F661F771F881F9150ED
:1051F0005040A9F79E3F510580F00C9414290C945F
:10520000A1285F3FE4F3983ED4F3869577956795A0
:10521000B795F795E7959F5FC1F7FE2B880F911D16
:105220009695879597F9089597F99F6780E870E0BC
:1052300060E008959FEF80EC089500240A9416160C
:10524000170618060906089500240A941216130674
:10525000140605060895092E0394000C11F4882302
:1052600052F0BB0F40F4BF2B11F460FF04C06F5F1E
:105270007F4F8F4F9F4F089597FB072E16F4009492
:1052800007D077FD09D00E94562907FC05D03EF4CF
:10529000909581959F4F0895709561957F4F0895E2
:1052A000EE0FFF1F0590F491E02D0994AA1BBB1B84
:1052B00051E107C0AA1FBB1FA617B70710F0A61B16
:1052C000B70B881F991F5A95A9F780959095BC0137
:1052D000CD010895F999FECF92BD81BDF89A992725
:1052E00080B50895A8E1B0E042E050E00C94922926
:1052F000262FF999FECF92BD81BDF89A019700B48F
:10530000021639F01FBA20BD0FB6F894FA9AF99A2E
:105310000FBE08950196272F0E9479290C947829B1
:10532000DC01CB01FC01F999FECF06C0F2BDE1BD65
:10533000F89A319600B40D9241505040B8F7089554
:10534000F894FFCFEE0BFA0BFE0B020C060C0A0CC6
:105350000E0C120C160C1A0C1E0C220C260C2A0C0D
:105360002E0C320C360C3A0C97129712EF12EF12E9
:1053700033134F13C712C7125A13C7122214221421
:105380008D14C712C7129614CE26F326D727F326FC
:0C539000D72723274427D7279927A527D4
:10539C004B022808140A321E2B21BB2198216121B3
:1053AC002E2101303132333790919293666795C636
:1053BC00F0F1F4F5F6F7363534979694404D3639CE
:1053CC0097154A151415DB146E148714A014B91410
:00000001FF
