:100000000C9453040C948B040C948B040C948B046C
:100010000C948B040C948B040C948B040C948B0424
:100020000C948B040C948B040C942B2B0C94FF2BB2
:100030000C945B250C948B040C948B040C948B0413
:100040000C948B040C948B040C948B040C948B04F4
:100050000C948B040C94E1250C948B040C948B046D
:100060000C948B040C948B040C948B040C948B04D4
:100070000C948B040C948B040C948B040C948B04C4
:100080000C948B040C948B040C948B040C948B04B4
:100090000C948B040C948B040C948B040C948B04A4
:1000A0000C948B040C948B040C948B041E000000A5
:1000B0001F00000020000000210000001A000000C6
:1000C000000018000C001200040016000700015187
:1000D0000D000E000F0000000000060000001100DF
:1000E000000000000100000001000000010000000D
:1000F00001000000010000000000C55CC75CC95C95
:100100000100010001000100C65CC85CCA5C00007F
:100110000000C25C0000C35C0000000001000000A1
:1001200001000000010000000100000001000000CB
:1001300000000100010001000100010001000100B8
:1001400001000100010000000000010000000100AA
:10015000000000000100000001000000010000009C
:10016000010000000100000000000100010001008A
:100170000100010001000100010001000100000078
:10018000000001000000010000000000010000006C
:10019000010000000100000001000000010000005B
:1001A0000000010001000100010001000100010048
:1001B000010001000100000000000100000001003A
:1001C000000000000100000001000000010000002C
:1001D000010000000100000000000100010001001A
:1001E0000100010001000100010001000100000008
:1001F00000000100000001000000000001000000FC
:1002000001000000010000000100000001000000EA
:1002100000000100010001000100010001000100D7
:1002200001000100010000000000010000000100C9
:1002300000000000010000000100000001000000BB
:1002400001000000010000000000010001000100A9
:100250000100010001000100010001000100000097
:10026000000001000000010000000000010000008B
:10027000010000000100000001000000010000007A
:100280000000010001000100010001000100010067
:100290000100010001000000000001000000010059
:1002A000000000000100000001000000010000004B
:1002B0000100000001000000000001000100010039
:1002C0000100010001000100010001000100000027
:1002D000000001000000010000000000010000001B
:1002E000010000000100000001000000010000000A
:1002F00000000100010001000100010001000100F7
:1003000001000100010000000000010000000100E8
:1003100000000000010000000100000001000000DA
:1003200001000000010000000000010001000100C8
:1003300001000100010001000100010001000000B6
:1003400000000100000001000000000001000000AA
:100350000100000001000000010000000100000099
:100360000000010001000100010001000100010086
:100370000100010001000000000001000000010078
:10038000000000000100000001000000010000006A
:100390000100000001000000000001000100010058
:1003A0000100010001000100010001000100000046
:1003B000000001000000010000000000010000003A
:1003C0000100000001000000010000000100000029
:1003D0000000010001000100010001000100010016
:1003E0000100010001000000000001000000010008
:1003F00000000000010000000100000001000000FA
:1004000001000000010000000000010001000100E7
:1004100001000100010001000100010001000000D5
:1004200000000100000001000000000000000000CA
:10043000000000002A2B280000000000000000003F
:100440000000000000000029000000002C1E3420E5
:10045000212224342627252E362D3738271E1F200B
:100460002122232425263333362E37381F04050650
:100470000708090A0B0C0D0E0F1011121314151694
:100480001718191A1B1C1D2F3130232D3504050692
:100490000708090A0B0C0D0E0F1011121314151674
:1004A0001718191A1B1C1D2F3130354C0000000085
:1004B000000000000000000000000000000000003C
:1004C000000000000000000000000000000000002C
:1004D0007E0F00D4FFFFFFC70000007800047F3FBD
:1004E0001F643214643214783C1E1E140A05222341
:1004F000252628292A2C2D2F3032333536383A3B01
:100500003D3E4042434547494A4C4E505153555752
:10051000595A5C5E6062646668696B6D6F71737571
:1005200077797B7D7F81838587898A8C8E90929471
:1005300096989A9C9E9FA1A3A5A7A8AAACAEAFB17E
:10054000B3B4B6B8B9BBBCBEBFC1C2C3C5C6C7C9C8
:10055000CACBCCCDCED0D1D2D2D3D4D5D6D7D7D882
:10056000D9D9DADADBDBDBDCDCDCDCDCDDDDDDDDD4
:10057000DCDCDCDCDCDBDBDBDADAD9D9D8D7D7D6DC
:10058000D5D4D3D2D2D1D0CECDCCCBCAC9C7C6C593
:10059000C3C2C1BFBEBCBBB9B8B6B4B3B1AFAEACD9
:1005A000AAA8A7A5A3A19F9E9C9A98969492908E84
:1005B0008C8A89878583817F7D7B79777573716F5D
:1005C0006D6B6968666462605E5C5A595755535139
:1005D000504E4C4A4947454342403E3D3B3A3836EF
:1005E000353332302F2D2C2A292826252322FFAA05
:1005F0007F554000010101010101010101020202D8
:1006000002020202020203030303030303030404BE
:100610000404040404050505050506060606060788
:100620000707070708080808090909090A0A0A0B41
:100630000B0B0C0C0C0D0D0D0E0E0E0F0F0F1010E2
:100640001111111212131314141515161617171869
:100650001819191A1A1B1B1C1D1D1E1E1F202021D4
:100660002222232424252626272829292A2B2C2D1B
:100670002D2E2F30313232333435363738393A3B3C
:100680003C3D3E3F404142434445464748494A4C31
:100690004D4E4F50515354555658595A5B5D5E5FFD
:1006A000616264656668696B6C6D6F707273757793
:1006B000787A7B7D7E8082838587888A8C8E8F91F5
:1006C000939596989A9C9EA0A2A3A5A7A9ABADAF1F
:1006D000B1B3B5B7BABCBEC0C2C4C6C9CBCDCFD109
:1006E000D4D6D8DBDDDFE2E4E7E9EBEEF0F3F5F8B2
:1006F000FAFDFF10034D0059005F004C004F0056FB
:100700000045000000160371006D006B006200756B
:100710000069006C006400650072000000040309B9
:100720000409025B00030100A0FA090400000103B0
:100730000101000921110100012240000705810388
:100740000800010904010002030000000921110151
:100750000001222200070582032000010705030390
:100760002000010904020001030000000921110119
:10077000000122B6000705840320000112010002D7
:1007800000000008EDFE606001000102000106604B
:10079000FF0961A1010962150026FF009520750877
:1007A00081020963150026FF00952075089102C09B
:1007B00005010902A10185020901A100050919012C
:1007C00029081500250195087501810205010930E8
:1007D00009311581257F9502750881060938158133
:1007E000257F950175088106050C0A3802158125BB
:1007F0007F950175088106C0C005010980A10185AA
:100800000319012AB700150126B70095017510815B
:1008100000C0050C0901A101850419012AA00215D7
:100820000126A002950175108100C005010906A1ED
:10083000018506050719E029E715002501950875CA
:100840000181020507190029EF1500250195F075B2
:100850000181020508190129059505750191029587
:100860000175039101C005010906A101050719E001
:1008700029E7150025019508750181029501750884
:1008800081010507190029FF150026FF009506754F
:100890000881000508190129059505750191029542
:1008A0000175039101C011241FBECFEFDAE0DEBF56
:1008B000CDBF04B603FE18C080911D0390911E03A6
:1008C000A0911F03B09120038730904BA740B04BFD
:1008D00059F410921D0310921E0310921F031092E0
:1008E0002003E0E0F8E3099511E0A0E0B1E0ECE8D6
:1008F000FDE502C005900D92AE3DB107D9F723E0AA
:10090000AEEDB1E001C01D92AD31B207E1F70E943A
:100910004C140C949B2E0C940000662339F06AE072
:1009200070E08AEA0E94AB0780E008956AE070E018
:1009300089EAF8CF81E0089581E008950C949C0441
:1009400008950C94A0041F93CF93DF9300D000D0A0
:100950000F92CDB7DEB749835A836B833091E101A3
:1009600089819A8131111DC06623B9F02223A9F033
:100970000E942B0B182F682F89819A810E94D70A19
:1009800069817A81812F0F900F900F900F900F90B7
:10099000DF91CF911F910C94E7210E94030B182F38
:1009A000EFCF0E942B0B69817A81EDCFFC01262FBE
:1009B000408151816281738184810C94A30481E020
:1009C0000895CF93DF93EC0160E00E94D604BE014E
:1009D000DF91CF910C94A104E1E0F0E0DF0102C0CF
:1009E000AA0FBB1F6A95E2F7BD01DF0102C0AA0F83
:1009F000BB1F4A95E2F76A2B01C0EE0F2A95EAF772
:100A0000962F9823961302C08E2B0895E0958E237F
:100A10000895242F462F682F8091EE010E94EC0448
:100A20000C94940A0C9406130C94091308950E94D4
:100A3000300A0E9416052FEF84E39CE0215080408D
:100A40009040E1F700C000000C9405260F931F931F
:100A5000CF93DF938C0161E00E94D604EC01B801D2
:100A60000E94931E882309F441C0B801CE010E9460
:100A70009E048823D9F1B801CE010E94AC238823BB
:100A8000A9F1B801CE010E94E41F882379F1B801D1
:100A9000CE010E941623882349F1B801CE010E949D
:100AA0003C1D882319F1F8018281882361F0CA3541
:100AB000FDE5DF0721F170F4C115ECE5DE07A1F0DB
:100AC000CE3DDC45C9F0C801DF91CF911F910F9158
:100AD0000C949A04CB358DE5D807A1F0CC35DD45D3
:100AE00091F70E944B0FEFCF0E94170580E0DF9136
:100AF000CF911F910F9108950E940410F7CF0E948B
:100B0000540FE1CF0E94570FDECF0E9440250C9476
:100B10006E060E9471060C944425DF92EF92FF92BC
:100B20000F931F93CF93DF93E82FF0E0E45DFB4F2B
:100B3000D490282F26952695269530E0F901E45388
:100B4000FB4F0491877010E0082E02C015950795A1
:100B50000A94E2F701701127F901E454FB4FE49085
:100B6000F12C082E02C0F594E7940A94E2F791E084
:100B7000E922FF24F901E455FB4FC491D0E002C003
:100B8000D595C7958A95E2F7C170DD270115110546
:100B900019F081EE0E94C306E114F10419F086EE0B
:100BA0000E94C3068D2D0E94C207EF2819F086EE21
:100BB0000E945507012B19F081EE0E945507CD2B9D
:100BC00051F08CE2DF91CF911F910F91FF90EF9048
:100BD000DF900C94C207DF91CF911F910F91FF908E
:100BE000EF90DF900895EF92FF920F931F93CF93B2
:100BF000DF93EC01162F0AE08881882309F454C0A2
:100C0000813009F04EC08981813099F47E0122E063
:100C1000E20EF11C8A810E94C207E7012196812F12
:100C2000815050F3EFE9FFE03197F1F700C0000089
:100C3000F7CF823041F47E0182E0E80EF11C8A8118
:100C40000E94C306EACF833041F47E01E2E0EE0E5B
:100C5000F11C8A810E945507E0CF843011F0219663
:100C6000DDCF2A81229690E080E0AE014F5F5F4F9A
:100C70002053330B2A30310548F0019778F2EFE921
:100C8000FFE03197F1F700C00000F7CF089FB001F7
:100C9000099F700D1124C901860F971F2981EA0150
:100CA000E4CF0E948D05BACFDF91CF911F910F91B4
:100CB000FF90EF90089560E00C94F30508950C9474
:100CC0005E0681E008950C9461060895CF93C82FC5
:100CD0000E945F068C2FCF910C94630680E00C94E9
:100CE00066060E9408240C9466060E9408249091CF
:100CF000E001981721F08093E0010C9466060895B6
:100D0000CF93DF93CDB7DEB72B970FB6F894DEBF46
:100D10000FBECDBF4F83588769877A878B87611154
:100D20000E94990E1E821D8285E0FE013796DE012B
:100D3000119601900D928A95E1F78C819D81892B06
:100D400089F449815A816B817C818D819E810E94C9
:100D5000BA0D2B960FB6F894DEBF0FBECDBFDF9154
:100D6000CF91089589819A8189238F3F51F3CE01D4
:100D700001960E94DF048111E4CFEBCFFC0180815A
:100D800091810C94580BCF93C82F882309F48BC002
:100D90008238C1F40E94082481FD85C089E30E9445
:100DA000540E0E94B90E2FEF81EE94E02150804046
:100DB0009040E1F700C0000089E30E945B0ECF91F4
:100DC0000C94B90E8338A1F40E94082480FD6BC0F6
:100DD00083E50E94540E0E94B90E2FEF81EE94E03D
:100DE000215080409040E1F700C0000083E5E5CF4E
:100DF0008438A1F40E94082482FD55C087E40E9433
:100E0000540E0E94B90E2FEF81EE94E021508040E5
:100E10009040E1F700C0000087E4CFCF8CEF8C0F4B
:100E2000813A90F46C2F80910201909103010E940D
:100E30007C24882329F08C2F0E945B0E0E94B90E1F
:100E40008C2F0E94540EBBCF80E28C0F883048F468
:100E5000C77081E001C0880FCA95EAF70E947C0E36
:100E6000AECFEBE5EC0FE33040F4F0E0E65AFE4F96
:100E7000808190E0CF910C943C24E8E5EC0FE731C1
:100E800050F4F0E0EE0FFF1FE45DFE4F8081918192
:100E9000CF910C945224C03F30F08C2F0E94D0147C
:100EA000CF910C94A315CF910895882309F452C0D3
:100EB000823871F40E94082481FF4CC089E30E94AB
:100EC000540E0E94B90E89E30E945B0E0C94B90E79
:100ED000833859F40E94082480FF3CC083E50E94B7
:100EE000540E0E94B90E83E5EFCF843859F40E9466
:100EF000082482FF2FC087E40E94540E0E94B90E7E
:100F000087E4E2CF9CEF980F913AF0F290E2980FCD
:100F1000983050F4877091E001C0990F8A95EAF7F4
:100F2000892F0E94820ED2CF9BE5980F933020F438
:100F300090E080E00C943C2498E5980F973120F4E1
:100F400090E080E00C945224803F20F00E942A150B
:100F50000C94A31508951F93CF93DF93182FEB01E3
:100F60000E94C306209731F4812FDF91CF911F910A
:100F70000C9455078FE99FE00197F1F700C000003E
:100F80002197F0CF70E060E0893311F460E570E004
:100F90000C94AB07882321F00E947C0E0C94B90EB0
:100FA0000895882321F00E94820E0C94B90E0895B2
:100FB000BF92CF92DF92EF92FF920F931F93CF9346
:100FC000DF936C01D62FC72FFC011281F580F294BC
:100FD0009FE0F9220E94720EE82E8823B9F0E12EDC
:100FE0001123A1F08C2F807F803421F080E28D0FBF
:100FF0008830D0F08091CE0282FD16C082E00E943F
:101000001A0F0E94720E91E0E82EE926BC2EB294CF
:101010008FE0B822FBE0FB1508F468C0EB2DF0E090
:10102000E356F14D0C94FB2DE12CF0CF0C2F0F70FB
:10103000C07F11F00295007F112399F0002359F031
:1010400080E28D0F883010F0D11107C0802F0E94F0
:101050007C0E0E94B90E8D2F41C0802F0E948C0EF5
:10106000F8CF8D2F0E945507002309F43FC080E27E
:101070008D0F883010F0D11104C0802F0E94820E95
:1010800003C0802F0E94920E0E94B90E2FC00C2F19
:101090000F70C07FC03211F00295007FDD2381F018
:1010A000D13009F469C0112309F473C0FF2009F499
:1010B00069C0F601858180FFCECF8F70858362C0C5
:1010C0008091CE0282FF38C0112359F0002329F00D
:1010D000802F0E947C0E0E94B90E80E00E94C30601
:1010E00005C080E00E9455070111C7CFEB2DE850E5
:1010F000FF0B349720F40E9408240E946606EE201D
:1011000009F44DC10E946E0E80FD49C1F6011282A4
:101110000E94680E0E94A50AC6010E94F0090E9462
:10112000680EDF91CF911F910F91FF90EF90DF90AC
:10113000CF90BF900C94B00A112389F0F11006C033
:101140000E949C0E802B0E94CA07D0CF21E0F21291
:10115000F7CF0E949C0E802B0E94A20EC7CFF110E9
:1011600006C00E94AF0E802F0E94D107BFCF31E092
:10117000F31609F4BBCFF5CF112331F085E08F15BD
:1011800008F4B4CF802FDFCF94E09F1508F4AECFE2
:10119000EACFFF2041F3D93349F4FFEF27EE33E0E4
:1011A000F15020403040E1F700C000008D2F0E9438
:1011B00055079CCF8C2F86958695837069F081307A
:1011C00009F094CF8D2F9C2F9370111102C090E0E5
:1011D00080E00E9452248ACF8D2F9C2F9370111192
:1011E00002C090E080E00E943C2480CF8D2F11232C
:1011F00029F00E94D0140E94A31578CF0E942A15CE
:10120000FACF8C2F837079F5111170CF4D2F429545
:1012100046954770440F440F8D2F8F70042E01C0E8
:10122000880F0A94EAF72D2F2071D4FF07C02FE012
:1012300030E001C0220F4A95EAF72095C695C69581
:10124000C370822BC23049F058F4C13019F00E94AB
:10125000860A4CCF0E94810A49CF0E948B0A46CF52
:101260000E947F0A43CF8695112311F08C2F817045
:10127000882309F43BCF4D2F429546954770440F84
:10128000440F8D2F8F70042E01C0880F0A94EAF747
:101290002D2F2071D4FF07C02FE030E001C0220FB6
:1012A0004A95EAF72095C695C695C370822BC23041
:1012B00049F058F4C13019F00E94CC0A17CF0E94AF
:1012C000C70A14CF0E94D10A11CF0E94940A0ECFF0
:1012D000CF70112329F08C2F0E94A50A8D2F33CFB8
:1012E0008D2F0E94D1078C2F0E94B00AFFCED23FD3
:1012F00051F160F4D03FB9F0D13F81F0112309F4EE
:1013000049C0F110A8CE8C2F8F7121C0D33F11F1AD
:10131000D43FA1F78091CE0282FF26C08C2F8F711F
:10132000112311F314C0112349F084E08F1508F440
:10133000DDCE8C2F8F710E94BC0AD8CE95E09F1510
:1013400008F4D4CEF6CF8C2F8F711111CDCF0E941F
:10135000A50ACCCE112329F08C2F8F710E949D0AF3
:10136000C5CE0E949A0AC2CE112349F0CF718C2FAC
:101370000E94A50A63E08C2F0E94FF0EB7CE81E089
:101380000E941A0FE1E0EF1508F0B0CE82E00E9453
:101390001A0FACCEF110FFCE8C2F8F71A5CFDF913D
:1013A000CF911F910F91FF90EF90DF90CF90BF9062
:1013B00008950F931F93CF93DF93EC016881798198
:1013C0008A810E94620B8C010E94D60A0E947E0ACA
:1013D000B801CE01DF91CF911F910F910C94D807E6
:1013E000CF93DF93EC018B819C81892B29F088813D
:1013F000998189238F3F59F4DF91CF910895CE01D0
:101400000E94D909CE01DF91CF910C94E104CE0165
:101410000E9426058111F3CF0E94720E882361F38A
:101420008A81882349F38091CE0282FDE5CF82E054
:10143000DF91CF910C941A0F90E080E00E943C2441
:1014400090E080E00E9452240E94990E0E94B90E02
:101450000E94CA160C94A3150E94620E0C941C0ADA
:101460000E94890E0C942C0A92959F70963091F0F0
:1014700058F4925F9F70923058F4803F19F030F426
:10148000883E30F481E008959A5FF4CF843FD1F331
:1014900080E00895883EB0F3813FD1F7F3CFFC019F
:1014A000808191810E94580B0C94340ACF93DF9372
:1014B00000D000D00F92CDB7DEB70F900F900F90F5
:1014C0000F900F90DF91CF910895CF93DF9300D0CD
:1014D00000D000D0CDB7DEB726960FB6F894DEBFA9
:1014E0000FBECDBFDF91CF91089508950C94750A7A
:1014F0000E94760A8093EF010C941C0A08950C94C4
:10150000780A9091EF01892B0C94780A9091EF0161
:1015100089230C94780A9091EF0189270C94780A1A
:101520000C94750A0C94900A0E94920A8093EE0122
:101530000C941C0A80E00C94940A91E001C0990F6D
:101540008A95EAF7892F0C94940A21E030E001C0D3
:10155000220F8A95EAF78091EE01822B0C94940A6F
:1015600021E030E001C0220F8A95EAF720958091B2
:10157000EE0182230C94940A21E030E001C0220F96
:101580008A95EAF78091EE0182270C94940A909153
:10159000EE01892B0C94940A9091EE0189230C940E
:1015A000940A9091EE0189270C94940A089527E0FB
:1015B000929F800D1124982F977041E001C0440F35
:1015C0009A95EAF786958695869593E0899FF0012E
:1015D0001124EE51FE4F90E080E070E05191DF0168
:1015E00011979B01082E02C0369527950A94E2F7C1
:1015F000217021952527242325272C9301968330BC
:10160000910561F7089527E0929F800D1124982F8E
:10161000977086958695869523E0829FF001112428
:10162000EE51FE4F50E040E080E0219130E0092E85
:1016300002C0369527950A94E2F721703327042ECD
:1016400001C0220F0A94EAF7822B4F5F5F4F4330AD
:10165000510559F70895CF92DF92FF920F931F9390
:10166000CF93DF936C010091EE018091EF01082B85
:10167000C7E0D0E010E0FC2EC8010C2E02C095950A
:1016800087950A94E2F780FD0CC02197A0F7F12C12
:101690008F2DDF91CF911F910F91FF90DF90CF9011
:1016A0000895B6018C2F0E94F011019771F3F0CFCD
:1016B000CF93DF93EC010E942B0BBE01DF91CF9102
:1016C0000C94F0111F93CF93DF93EB019091E10104
:1016D000992331F0CB01DF91CF911F910C94580BDE
:1016E000882379F0CB010E942B0B182F682FCE0195
:1016F0000E94D70ABE01812FDF91CF911F910C94D8
:10170000F011CB010E94030B182FF4CF1F93CF933E
:10171000DF93C091F00116E08091F1018C1304C0B9
:10172000DF91CF911F910895D0E01C9FF0011D9F84
:10173000F00D1124EE50FE4F408151816281738182
:10174000848195810E94650A2196C770E5CF4091FA
:10175000220250912302609124027091250280910F
:101760002602909127020C94650AFF920F931F9313
:10177000CF93DF9380912702807FD1F48091240260
:101780008823B1F08091F0011091F1016091220263
:1017900070912302A0912502B0912602062F072303
:1017A000C0910001D091010196E0F92E181306C0F6
:1017B000DF91CF911F910F91FF90089590E01097C6
:1017C00011F00F3F19F401968770F0CFF89E900149
:1017D000F99E300D1124F901EE50FE4F418147135F
:1017E000F2CF40814613EFCF42814111ECCF4381CC
:1017F00054814A1B5B0B4C175D0728F78091270229
:101800008F70806180932702F901E950FE4F80813B
:101810008F708061808382E292E00E94F009DF9104
:10182000CF911F910F91FF900C94860BAF92BF92B6
:10183000CF92DF92EF92FF920F931F93CF93DF939C
:10184000CDB7DEB761970FB6F894DEBF0FBECDBF40
:101850008C0185E0F801DE011D9601900D928A95BC
:10186000E1F7F801E28082E2C82E82E0D82E609192
:101870002502709126026115710509F45FC19091EE
:10188000220220912302892F82238F3F09F456C11F
:1018900040815181A380B480F0902402F501E61BC1
:1018A000F70BBF01E0910001F0910101FF2009F465
:1018B000F6C080912702382F307F6E177F0708F01F
:1018C000AFC0311179C0FE2C251323C0941321C061
:1018D000E1101FC08F708061809327020E94A70BC8
:1018E000C6010E94F00980912702F80185838F2D9F
:1018F00061960FB6F894DEBF0FBECDBFDF91CF91DA
:101900001F910F91FF90EF90DF90CF90BF90AF901D
:101910000895AB2829F0842F85238F3F09F027C134
:1019200080E0F82FF170DF2E80FF3CC08091F00145
:101930002091F10136E0821315C04D875E878D85B9
:101940009E850E94580B292F22952F702230F0F08F
:10195000243018F59F70F1F0F8019581907FD1F453
:10196000D12C1EC090E0389FF001399FF00D11245A
:10197000EE50FE4F6181651306C06081641303C0A1
:1019800062816E110FC001968770D5CF9F7011F0E4
:10199000882331F3805E883018F3C8010E94F00973
:1019A000FD2CA5CFEE2009F4A2CF80912702816003
:1019B00080932702F12C9BCF251306C0941304C0FB
:1019C000F801EE2009F487C0C8010E944F0A88235D
:1019D00019F1EE2009F180912702803270F02091F8
:1019E00022023091230238872F831986BB86AA866C
:1019F0008C87CE0107960E94F00986E0F801A2E2EA
:101A0000B2E001900D928A95E1F70E94B50B0E9419
:101A1000A70BFF24F3946BCFC8010E94F009F9CF04
:101A2000311113C07A2DB98AA88A6E2D89890E9436
:101A3000560A82E292E00E94F00986E0F6011192D5
:101A40008A95E9F70E94A70BB5CF25130FC0941311
:101A50000DC0E1100BC0F8018583C8010E94F00998
:101A600086E0F60111928A95E9F741CFC8010E94FC
:101A70004F0A882389F2EE2079F280912702803282
:101A800008F4BBCF20912202309123023A832983AC
:101A90001B82BD82AC828E83CE010196ACCF6E17C5
:101AA0007F0708F03EC0FE2CEE2009F4B5CF2513C9
:101AB0002AC0941328C08091270280FD1BC0982F54
:101AC000907FC1F0F8018583903F31F0982F907F8F
:101AD000905F8F70892B8583C8010E94F00986E092
:101AE000F801A2E2B2E001900D928A95E1F70E941E
:101AF000A70BFDCE86E0F801A2E2B2E001900D92C4
:101B00008A95E1F7F4CEC8010E944F0A811175CF82
:101B100080912702816080932702C8010E94F0090A
:101B2000E6CE7A2DB98AA88A6E2D89890E94560A36
:101B300086E0F60111928A95E9F7D9CFEE2009F4F3
:101B40006BCFC8010E944F0AF82E882309F464CF96
:101B500086E0F801A2E2B2E001900D928A95E1F7E9
:101B600082E292E00E94BE060E94B50BC0CF81E0E7
:101B70008E25D7CE1F93CF93DF93CDB7DEB72C97AB
:101B80000FB6F894DEBF0FBECDBF4F83588769876D
:101B90007A878B879C87CE0107960E94160C882334
:101BA00069F08A859B85892B39F04F815885842F70
:101BB00085238F3F09F071C016E05FC086E0FE010B
:101BC0003796DE01119601900D928A95E1F78A858C
:101BD0009B85892B89F38F81988589238F3F61F3BA
:101BE0002091F10130E0C901019687709927409159
:101BF000F0014817190671F40E94300A1092F101A1
:101C00001092F00186E0E2E2F2E0DF011D928A9597
:101C1000E9F7D2CF96E0929FD001939FB00D1124A7
:101C2000AE50BE4FFE01319601900D929A95E1F7AC
:101C30008093F1010E94860BBFCF819FC0011124C8
:101C40008E509E4F0E94160C8823E9F0E091F0011F
:101C50001E9FF0011124EE50FE4F408151816281A0
:101C60007381848195810E94650A8091F00190E0E2
:101C70000196877099278093F0018091F0019091EF
:101C8000F1018913DACF2C960FB6F894DEBF0FBEA0
:101C9000CDBFDF91CF911F91089569857A858B859E
:101CA0009C850E94650A88CF682F809102019091DF
:101CB00003010C94FC24682F809102019091030190
:101CC0000C94072580910201909103010C94122538
:101CD0008091480285958595859508958091480263
:101CE0008770089590914802977081E009F480E030
:101CF000089580916B02089590916B02892B8093D7
:101D00006B020895809590916B02982390936B02DB
:101D1000089510926B02089590916A02892B809326
:101D20006A020895809590916A02982390936A02BE
:101D3000089510926A0208958091490208950895C5
:101D40000C949F0E9091CE0292FD08C09091490292
:101D5000981721F0809349020C94A00E0895809169
:101D60004902882329F01092490280E00C94A00EC9
:101D70000895CF93DF93E0910201F09103018091E8
:101D80006B028083E0910201F091030180819091C8
:101D90006A02892B808390914902992381F0E09116
:101DA0000201F09103018081892B808380910201DF
:101DB000909103010E94682481110E94AF0EC0918E
:101DC0000201D091030140E250E068E272E0CE01EE
:101DD0000E94462E892B69F080E2FE01A8E2B2E063
:101DE00001900D928A95E1F7CE01DF91CF910C948D
:101DF0001424DF91CF91089508950C94FC0E9091D6
:101E0000CE0292FD10C098E0899F90011124622BB0
:101E1000609348020E94A50A8091480285958595A5
:101E200085950C94FD0E0C94A50A1092480280E052
:101E30000C94FD0E9091480280958923809348026E
:101E4000282F277091F4282F082E000C330B92179F
:101E5000130659F09091CE0292FD07C085958595A5
:101E600085950E94B00A0C94150F08959091CE02AA
:101E700092FB222720F9281769F080FB92F99093B2
:101E8000CE028091CD029091CE020E94810F82E01D
:101E90000C941A0F08958091CE0282FB882780F956
:101EA00091E089270C94360F81E00C94360F80E086
:101EB0000C94360F6FEF7FEF90E080E00C94852E4E
:101EC00090E080E00E94612E893E9E4F11F40C94B8
:101ED000301E80E0089582E090E00C94532E83E061
:101EE00090E00C94532ECF9384E090E00E94532E08
:101EF000C82F82E290E00E94532E982F8C2FCF9112
:101F00000895CF93C92F682F84E090E00E94672E38
:101F10006C2F82E290E0CF910C94672EAB01BC0154
:101F20008FE090E00C94792EAB01BC0183E190E04E
:101F30000C94792E60E070E0CB010C94940F60E07B
:101F400070E0CB010E948E0F0C949A0F69EE7EEF29
:101F500090E080E00E94852E60E082E090E00E94A8
:101F6000672E60E083E090E00E94672E1092EF0100
:101F700060E084E090E00E94672E60E082E290E002
:101F80000E94672E60E085E090E00E94672E60E08E
:101F900086E090E00E94672E6FEF87E090E00E945D
:101FA000672E40E050E0BA0188E090E00E94792E70
:101FB00060E08DE090E00E94672E40E050E0BA01C2
:101FC00088E190E00E94792E60E087E190E00E9435
:101FD000672E40E050E0BA018CE190E00E94792E3B
:101FE00070E060E080E290E00E94852E40E050E0EA
:101FF000BA0188E190E00E94792E80E00E94491E9B
:102000000E94771E0C949F0F0C94A60F682F8EE0F1
:1020100090E00C94672E0E94C6256093780270931E
:10202000790280937A0290937B026093740270939A
:102030007502809376029093770208950E94C625D8
:10204000609378027093790280937A0290937B0276
:102050006093700270937102809372029093730286
:10206000089585B7806885BF85B7806885BF089566
:10207000089508950C94391008950C943C100E9412
:1020800031108EEC92E10E94FE230E9438100C94D5
:102090003A1081E008950C944910089508950E9423
:1020A0004D100C944E100E94EB120C9465060E9489
:1020B000B1250E94861E0E94B2130E9453100E94F6
:1020C000531C0E94BB220C943D109F92AF92BF9272
:1020D000CF92DF92EF92FF920F931F93CF93DF93F4
:1020E000CDB7DEB72A970FB6F894DEBF0FBECDBFCF
:1020F0000E94C713C82E81110E940B108CE6A82ED7
:1021000082E0B82E10E000E0902E802F0E940B138A
:10211000E82EF501F1905F01F81609F445C08091B1
:102120007C0281FD0E9411138F2D8E25D12CFF245E
:10213000F394982F9F2199F10E944B10882399F0D6
:10214000DE829F82EF2081E009F480E088870E9490
:10215000BA258160782F9A8789874E815F8168854B
:102160008A850E948006F801E459FD4F8081F82697
:10217000F08281E0C11001C080E02A960FB6F89489
:10218000DEBF0FBECDBFDF91CF911F910F91FF90AA
:10219000EF90DF90CF90BF90AF909F900895D39431
:1021A000FF0CF7E0DF12C5CF0F5F1F4F04301105A2
:1021B00009F0AACF8FEF89838A831B820E94BA25F8
:1021C0008160782F9D838C8349815A816B818D81B9
:1021D0000E948006CECF0E9465100E948E1C0E9435
:1021E000CE2281110E941E100E94BE150C9475060D
:1021F000CF93DF930E94F411EC01811521E5920742
:1022000008F042C0811530E5930708F09DC0883E74
:10221000910530F5803E910508F092C0883A91050D
:1022200088F4853A910508F084C08130910509F45D
:1022300087C0009709F484C0049708F081C0D0E0FB
:10224000C0E07EC08F3B9105D0F7C85AD0E0CC0FDC
:10225000DD1FC35ADE4F0990D881C02DD46470C0F1
:102260008115904250F4C11581E0D80708F068C08C
:10227000C03FD10520F3D06563C0C11590E4D907F4
:10228000F0F2DF70D06A5CC0811525E5920700F599
:10229000811534E5930708F08BC0811543E5940759
:1022A00008F073C0C11582E5D80708F469C0CE01F3
:1022B0008370992721E030E002C0220F331F8A95F6
:1022C000E2F7C695C69580E2C89FE001112454C08C
:1022D000C11599E5D907A8F4C11528E5D20708F07A
:1022E0006CC0C11536E5D30708F0A9CF8C2F0E942A
:1022F0008B12C82FD0E0DC2FCC27CC27DF71D06227
:102300001FC0C1154AE5D40708F45CC0CE01905641
:102310008115904208F093CF8D2F8F710E948B1200
:1023200090E0982F882788279F719C012C2BE9012A
:10233000E6CFC55AD0E0C557DE4FC881D0E0D064A3
:10234000CE01DF91CF910895E4E096958795EA95C7
:10235000E1F783702C2F26952695237040E2249F69
:1023600090011124382B8C2F8370C1E0D0E002C083
:10237000CC0FDD1F8A95E2F7C22BD32BDC68E0CFB0
:10238000DC2FCC27C16FD06ADBCF8370992721E087
:1023900030E002C0220F331F8A95E2F7C695C6953A
:1023A00090E2C99FE0011124C22BD32BDA68C8CF79
:1023B000D82FCC27C46FD06AC3CFDC2FCC27C06FF7
:1023C000D06ABECF8C2F8F700E948B1234E0D695CE
:1023D000C7953A95E1F7CF709C2FEC01D069B0CF4B
:1023E0000E94E7210C94F81082389105B1F1B0F405
:1023F0008133910509F475C048F48932910509F4D7
:1024000069C08A32910509F473C008958533910536
:1024100009F459C08933910501F10895833E91056E
:10242000A9F138F4803E9105F9F0823E910549F119
:102430000895863E9105A9F1873E9105C9F1843E34
:10244000910519F52091CE0221FF1FC08091CD0288
:1024500084FD14C087EE90E008952091CD02237092
:10246000A1F080EE90E008952091CD0220FD47C0BC
:102470003091CE0230FF09C024FF44C090E080E0DC
:1024800004C02091CD0222FDF7CF08952091CD0206
:1024900022FD3BC03091CE0230FDE3CF24FFF5CFCB
:1024A000EDCF2091CD0223FFF0CF24FDE7CFD2CF97
:1024B0002091CD0223FD2CC03091CE0231FFEECF12
:1024C00084EE90E008952091CD0225FFDECF89E2D1
:1024D00090E008952091CD0225FFD7CF85E390E0CD
:1024E00008952091CD0226FFD0CF8AE290E0089592
:1024F0002091CD0226FFC9CF81E390E0089589E3C2
:1025000090E0089583EE90E0089582EE90E00895C3
:1025100086EE90E008959091CD0292FF06C0282F9C
:1025200028712830F9F4877F846093FF06C0282F34
:1025300028712831F1F4877E84612091CE0220FF3A
:1025400006C0382F38713830D9F4877F816021FF79
:1025500006C0282F28712831D1F4877E816194FD2F
:10256000877E0895282F24712430F9F68B7F8860A8
:10257000DCCF282F2471243101F78B7E8861DDCFD9
:10258000382F3171313019F78E7F8860E0CF282FD6
:102590002171213121F78E7E8861E1CF80E008959D
:1025A0000C945A0F0E94C7132FEF86E791E0215039
:1025B00080409040E1F700C000000E94C71380E017
:1025C0000E940B1380FF04C00E94D0120C940526B9
:1025D00008950C94D2120E94600F811102C00E94D3
:1025E00004100E946B0F80937C020E94730F9093E3
:1025F000CE028093CD020E94E9120E946F0F0E94CA
:102600007F0A8091EE010C94920A08950C940513B0
:1026100008950C940813E82FF0E0ED52FD4F8081EF
:102620000895089580EA8A95F1F7089500C0089505
:102630000C941213F894E82FE295EF70F0E031A1BA
:10264000282F2F7081E090E001C0880F2A95EAF7CB
:10265000982F9095932391A392A1892B82A378948C
:102660000895CF93DF9380EF0E941A1383E30E94B3
:102670001A1381E90E941A1384E30E941A13CEE808
:10268000D1E089918F3F11F00E941A1381E0C53982
:10269000D807B9F7DF91CF910895CF92DF92EF92EB
:1026A000FF920F931F93CF93DF93EC01D62E062F4B
:1026B00010E0C8018B569E4F7C01FC0180818F3F4A
:1026C00009F445C0F894E82FE295EF70F0E091A18D
:1026D0008F7021E030E001C0220F8A95EAF7892F40
:1026E000822B81A382A12095282322A378940E9483
:1026F0001613EEE8F1E045E951E031E0C12C2191FB
:102700002F3F71F1A22FA295AF70B0E090968C91FF
:1027100090E02F7002C0959587952A95E2F780FD8D
:102720001FC0832FC82A330F4E175F0741F7F701E9
:1027300080818F3F11F00E941A1361E0C11001C027
:1027400060E08D2D0E941813C00FD11FC882DF9149
:10275000CF911F910F91FF90EF90DF90CF90089550
:1027600080E0E0CF0E94311384E0E3EDF2E0DF018E
:10277000982F1D929A95E9F7EFECF2E0DF011D9298
:102780008A95E9F784E00E9409140C9412051F93BE
:10279000CF93DF9300D000D0CDB7DEB719821A8275
:1027A0001B821C8210E0612FCE0101960E944D1306
:1027B0001F5F1430C1F744E050E0BE016F5F7F4FF0
:1027C0008FEC92E00E94462E11E0009709F410E091
:1027D000892B61F089819A81AB81BC818093CF0282
:1027E0009093D002A093D102B093D202212F44E063
:1027F00063ED72E08FEC92E00E940A140E941405CF
:10280000812F0F900F900F900F90DF91CF911F911C
:1028100008950895FF920F931F93CF93DF93F82E9F
:10282000092F162FD72FC42F222349F081E0809340
:102830007F020E94BA2590937E0280937D02809150
:102840007F028823A1F080917D0290917E020E94F8
:10285000D225059760F0EF2DF02FA12FBD2FCE0FC1
:10286000DF2FD11DEC17FD0741F410927F02DF919D
:10287000CF911F910F91FF90089581918D93F2CF89
:102880000E9400280E9457100C940C280E941028C7
:102890000E94EB100C942A280E945A250E94E727D8
:1028A0000E943F100E9440140E9446140E944F1044
:1028B000FBCF8091860280FF0DC06091090170E01E
:1028C000660F771F6038710570F56115710569F144
:1028D000862F089581FF07C06091090184E0689FF9
:1028E000B0011124EFCF6091090182FD0AC08091EF
:1028F00085028823A9F020910801609109018217BF
:1029000010F088E0ECCF869FC001112433E0880FDF
:10291000991F3A95E1F7622F70E00E94C52DD2CF42
:1029200068E070E0D5CF8FE7089581E00895809149
:10293000860280FF0CC06091050170E07595679577
:10294000759567956115710549F1862F089581FF89
:1029500006C06091050170E075956795F3CF6091B1
:10296000050182FD0BC0909184029923A1F0609132
:10297000040180910501961738F0682F70E06038E7
:10298000710500F38FE70895899FC001112470E05D
:102990000E94C52DF4CF61E070E0D7CF81E00895AB
:1029A000803F31F40E945914819580938A020895E2
:1029B000813F19F40E945914F8CF823F31F40E94EC
:1029C00059148195809389020895833F19F40E94D8
:1029D0005914F8CF893F29F40E94971480938B02F1
:1029E00008958A3F21F40E9497148195F7CF8B3F79
:1029F00031F40E949714819580938C0208958C3F46
:102A000019F40E949714F8CF9CE0980F953070F459
:102A1000845F990B21E030E001C0220F8A95EAF72C
:102A200080918802822B8093880208958D3F31F433
:102A30008091860281608093860208958E3F21F402
:102A4000809186028260F7CF8F3FB9F7809186022E
:102A50008460F1CF40918902803F59F480918A02CD
:102A600087FF0DC010928A0241110BC0109285029F
:102A700008C0813F81F480918A0218169CF3442398
:102A800081F080918B0290918C02892B09F05AC0C1
:102A9000109284020895823F49F447FFF0CF1092CC
:102AA000890280918A028111ECCFE0CF833F19F433
:102AB0001416ACF3E4CF90918B02893F29F41916D8
:102AC000F4F610928B02DBCF8A3F19F497FFD7CF31
:102AD000F8CF90918C028B3F29F497FFD0CF1092C2
:102AE0008C02CDCF8C3F19F41916CCF3C8CF9CE0E3
:102AF000980F953090F4845F990B21E030E0B90194
:102B000002C0660F771F8A95E2F7CB0180959091FE
:102B10008802892380938802B2CF8D3F31F480915F
:102B200086028E7F80938602AACF8E3F21F4809109
:102B300086028D7FF7CF8F3F09F0A1CF809186026B
:102B40008B7FF0CF08950E94BA259C019091890255
:102B500080918A02982B21F0309383022093820285
:102B600090918B0280918C02982B21F030938102FE
:102B70002093800287E892E00C942E24EF92FF923B
:102B80000F931F93CF93DF9300D000D000D0CDB729
:102B9000DEB786E0E7E8F2E0DE01119601900D92E3
:102BA0008A95E1F7E0908902F0908A0200918B0209
:102BB00010918C021092890210928A0210928B025C
:102BC00010928C028E2D8F2991F08091820290912B
:102BD00083020E94D225AC0190918502992309F4C9
:102BE0003FC080910A018417150608F447C0802F62
:102BF000812B91F080918002909181020E94D225D8
:102C0000AC0190918402992309F477C08091060168
:102C10008417150608F47FC08091890290918A027A
:102C2000892B90918B02892B90918C02892B11F02A
:102C30000E94A31586E0FE013196A7E8B2E001905C
:102C40000D928A95E1F726960FB6F894DEBF0FBE77
:102C5000CDBFDF91CF911F910F91FF90EF9008951D
:102C600020910B018AE0289F900111242417350739
:102C700008F0BDCF9F5F9093850202C09F3FD1F7C0
:102C8000EE2059F00E9459149FEF1E140CF491E0AD
:102C9000899F802D112480938902FF2059F00E9482
:102CA00059149FEF1F140CF491E0899F802D11247B
:102CB00080938A0230918902332309F498CF2091BE
:102CC0008A02222309F493CF45EB3403C001112477
:102CD000992359F09093890245EB24039001112424
:102CE000332339F030938A0282CF81E080938902C6
:102CF000F3CF81E080938A027ACF209107018AE0A6
:102D0000289F900111242417350708F085CF9F5F75
:102D10009093840202C09F3FD1F7002359F00E9494
:102D200097149FEF10160CF491E0899F802D1124C9
:102D300080938B02112359F00E9497149FEF111674
:102D40000CF491E0899F802D112480938C023091A6
:102D50008B02332309F460CF20918C02222309F4E3
:102D60005BCF45EB3403C0011124992359F09093B4
:102D70008B0245EB240390011124332339F0309367
:102D80008C024ACF81E080938B02F3CF81E0809365
:102D90008C0242CF86E0E7E8F2E0DF011D928A95DF
:102DA000E9F710928502109284021092860208952B
:102DB000EF92FF920F931F93CF93DF93EB01E82FD6
:102DC000D11110C0442321F0F0E0ED50FA4FE4910E
:102DD0006E2F7E2F8E2FDF91CF911F910F91FF903D
:102DE000EF9008950D2F10E0282F30E0442329F0B4
:102DF0002D503A4FF901249130E0F6E0CF9FC00109
:102E00001124EFEFF0E0BF010E94B12DAB018C2F38
:102E100090E0880F991FA5E5A49FB001A59F700DB4
:102E20001124861B970B982F990F980FBF01601BD9
:102E3000710B629FD001639FB00D729FB00D112482
:102E40008B2F9D9FB0011124672F7727EF01C61BA1
:102E5000D70BBE01629FE001639FD00D729FD00D22
:102E600011247F01E91AF108E09EB001E19E700D86
:102E7000F09E700D1124672F7727E61BF70BE29F5A
:102E80008001E39F100DF29F100D1124E12F722F8E
:102E90004230510599F048F44115510569F041302F
:102EA000510581F0EB2F8D2F07C04430510569F09B
:102EB00080F046305105B1F76E2F8DCFE22F7B2F7A
:102EC000812FFACFE22F7D2FF7CFEB2F822F712F9B
:102ED000F3CF7B2F822FED2FEFCF41E00C94D8164C
:102EE00008950C946D17CF93DF93762FE901682F27
:102EF000842F0E947117798368838A83DF91CF9131
:102F000008958091D702982F9E7F29F48170826066
:102F10008093D70208958A34E8F381708864F8CFEB
:102F200088E090E00C945B2ECF92DF92EF92FF92BC
:102F30006B017C010E948117B701A60188E090E037
:102F4000FF90EF90DF90CF900C94792E6091D70294
:102F50007091D8028091D9029091DA020C94941762
:102F6000E7EDF2E083E0808311828FEF8283838339
:102F7000148260817181828193810C949417809175
:102F8000D70280FF02C08695089580E00895909151
:102F9000DB02933018F49F5F9093DB02882351F09B
:102FA0006091D7027091D8028091D9029091DA0293
:102FB0000C949417089581E00C94C7179091DB024C
:102FC000992319F091509093DB02882351F060917E
:102FD000D7027091D8028091D9029091DA020C94B4
:102FE0009417089581E00C94DE178091DB02089518
:102FF0008093DB02662351F06091D7027091D80272
:103000008091D9029091DA020C949417089560E0AF
:103010000C94F8178091D80208958091D9020895F0
:103020008091DA02089570E00C94041E6091100102
:103030008091D70280FF0AC080910F0123E0829F18
:10304000C001112484529D4F0C94131880911101DA
:103050009091120123E0829FF0011124E452FD4F70
:10306000891750F71182108212828F5F3396F8CF42
:103070009091D70290FF14C09091110120911201FC
:1030800033E0939FF0011124E452FD4F921710F0AA
:103090000C9416188183608342839F5F3396F6CF2A
:1030A0000895CF93DF9300D00F92CDB7DEB7909104
:1030B000D70290FF0AC09E012F5F3F4F0E947317F7
:1030C0004B8169818A810E9438180F900F900F9070
:1030D000DF91CF910895CF93DF93EC01EC81F0E085
:1030E000E251FB4F4491E7EDF2E0628181810E9461
:1030F00051188C818F5F8C83DF91CF910895CF938E
:10310000DF93EC01E7EDF2E0438162818C810E9464
:1031100051188C818F5F8C83DF91CF9108950F932D
:103120001F93CF93DF9300D00F92CDB7DEB78C0102
:1031300080918D0281110AC09E012F5F3F4F4FEF9A
:103140006FEF0E9473178A8180938D02F80164816A
:10315000613069F080918D0240E0662361F040E0CB
:10316000623011F440918D0280E060E004C0609113
:103170008D0240E080E00E943818F801848190E0E0
:10318000019663E070E00E94C52D84830F900F903C
:103190000F90DF91CF911F910F910895AF92BF9241
:1031A000CF92DF92EF92FF920F931F93CF93DF9313
:1031B00000D00F92CDB7DEB7182FF62E042FE22ED7
:1031C0009091D70290FF29C0E92FE695AE2FB0E08D
:1031D000A756BE4F8C91809397029E7F923059F5EF
:1031E0009E012F5F3F4F812F0E9473174B81698192
:1031F0008A810E9438181093D802F092D902009365
:10320000DA02EE2051F06091D7027091D8028091DD
:10321000D9029091DA020E9494170F900F900F90AC
:10322000DF91CF911F910F91FF90EF90DF90CF90A2
:10323000BF90AF900895823019F40091DA02DBCF8D
:10324000863019F41091D802D6CF8930D9F389315C
:1032500091F6E9518E2F8170D82EE695F0E0E2517B
:10326000FA4FA590B490C12CBB2460911301C616EF
:1032700018F00E941618BFCF2C2D30E0A29EC0017E
:10328000A39E900DB29E900D112470E00E94B12D6E
:10329000812FD11013C0860F40911101420F532F7F
:1032A000511D9A01220F331F240F351F24523D4F09
:1032B000402F6F2D0E947317C394D7CF861BECCF7E
:1032C000E7EDF2E09181282F4381628188E0890F48
:1032D0000C94CE1881E00C946019E7EDF2E0918136
:1032E000282F4381628188EF890F0C94CE1881E0EA
:1032F0000C946D19E7EDF2E0628128E0620F08F4AA
:103300006FEF282F438181810C94CE1881E00C94BB
:103310007A19E7EDF2E0628128E0621B08F460E0D0
:10332000282F438181810C94CE1881E00C94891957
:10333000E7EDF2E0438128E0420F08F44FEF282F39
:10334000628181810C94CE1881E00C949819E7ED8C
:10335000F2E0438128E0421B08F440E0282F62811C
:1033600081810C94CE1881E00C94A71920E00C9474
:10337000CE18EF92FF921F93CF93DF93EC0110E0F2
:10338000EE24EA94F12C60911301161770F00E945C
:1033900016189A818C8190FF27C08F5F8C83DF91F4
:1033A000CF911F91FF90EF90089520911101422F2E
:1033B000410F5527551FCA019A01220F331F280FAD
:1033C000391F24523D4F70E0C7010E94C52D962F32
:1033D0008C814091DA026091D902199F800D1124ED
:1033E0000E9473171F5FCFCF8150D8CFBF92CF926B
:1033F000DF92EF92FF920F931F93CF93DF93FC0125
:1034000082810FEF80FF01E010E080911301181717
:10341000C0F00E94161880918F02013009F051C04F
:10342000811102C080911301815080938F02DF913E
:10343000CF911F910F91FF90EF90DF90CF90BF90B1
:103440000895C0911101C12ED12CCC0DDD2DD11DBF
:10345000CE01880F991FC80FD91FC452DD4F1982A2
:1034600018821A8234E0E32EF12CB12C80918F0265
:103470008B0D813104F18F70082E000C990BC8164A
:10348000D90691F48091DA028E9DA0018F9D500D96
:10349000112455954795559547959E016091D90200
:1034A0008091D8020E947317B00EF1E0EF1AF10874
:1034B000E9F61F5FAACF87FFDFCF90911301890F35
:1034C000DBCF90E001966091130170E00E94C52D62
:1034D000ACCF0F931F93CF93DF9380911101909105
:1034E000120123E0829FF0011124E452FD4F89175D
:1034F00040F1C0E0D3E060911301C61740F10E9493
:10350000161820910D0180918E02820F80938E02F9
:1035100090910E01920F90930E01191654F4082EFB
:10352000000C990B409113014150550B84179507DE
:103530001CF0219520930D01DF91CF911F910F91E8
:1035400008951182108212828F5F3396D0CF0C2F94
:1035500010E070E0C8010E94C52D20911101820F7A
:10356000482F50E020918E02022E000C330B0217E0
:103570001307BCF020910E01022E000C330B201714
:1035800031077CF08D9F9001112424523D4F4091D2
:10359000DA026091D9028091D8020E947317CF5F3E
:1035A000AACFFA01EE0FFF1FE40FF51FE452FD4F03
:1035B000118210821282F3CF8F929F92AF92BF92AC
:1035C000CF92DF92EF92FF920F931F93CF93DF93EF
:1035D000EC014C81042F10E09801D8010E94102EBC
:1035E0009B01AC010E94262E4B015C01E0E2F0E061
:1035F000E01BF10BA5E5B0E0AC019B010E94262E7B
:103600006B017C019F01DF010E94082E9B01AC0130
:103610000E94312E9B01AC01280D391D4A1D5B1DF6
:10362000C701B6010E94D92DF22E822F90E039E217
:103630003F1560F143E0249F9001112435952795B3
:10364000122F109500E085E5E82EEF188091130108
:10365000081758F10E9416189C8181E0992319F0EF
:10366000903219F48FEF80930C0180910C01890F37
:103670008C83DF91CF911F910F91FF90EF90DF909E
:10368000CF90BF90AF909F908F90089525E530E048
:10369000B901681B790B9B01220F331F260F371FBF
:1036A00037FFCCCF2F5F3F4FC9CF8E2D01FD8F2D20
:1036B00020911101622F600F7727771F9B01220F46
:1036C000331F260F371F24523D4F412F6091D902DF
:1036D0000E9473170F5FBACF0F931F93CF93DF939F
:1036E000EC0110E000E0909113019017110609F031
:1036F0006CF40E9416188C8190E0019681709927D5
:103700008C83DF91CF911F910F910895209111012A
:10371000A801420F511D9A01220F331F240F351F9C
:1037200024523D4F4C816091D9028091D8029695E8
:103730009017110651F04CF0442349F04091DA0201
:103740000E9473170F5F1F4FCECF4423B9F340E0A1
:10375000F7CFE7EDF2E080818E7F80836081718119
:10376000828193810E949417109298022FEF80E734
:1037700092E0215080409040E1F700C000000C949E
:103780001618E7EDF2E080818E7F80831092980218
:103790002FEF80E792E0215080409040E1F700C099
:1037A00000000C9416186091D702669570E04BE00B
:1037B00050E084E191E00E94392E892B19F481E0D8
:1037C000809398020E94BA25909391028093900270
:1037D00008959091D70290FF35C09170811128C053
:1037E00092609093D702662351F06091D702709156
:1037F000D8028091D9029091DA020E9494176091C8
:10380000D702669570E04BE050E084E191E00E94C1
:10381000392E892BA1F01092980281E080939302B7
:103820004091DA026091D9028091D8020C94B619C5
:10383000853210F09864D5CF880F982BD2CF0E9494
:10384000D31BEBCF0895682F9091D702969581E016
:10385000890F853208F081E00C94E91B81E00C941B
:10386000231C682F9091D70296958FEF890F09F44A
:1038700084E20C94E91B81E00C94311C61E00C940F
:10388000E91BE7EDF2E080818160808386950C94EE
:103890003E1C8091D70280FD0C94A91B0C94411C06
:1038A00060E00C94E91B8091960281112EC00E9469
:1038B000600F811104C00E9404100E94B0170E9482
:1038C00090176093D7027093D8028093D902909397
:1038D000DA026E7F61F40E94B0170E949017609325
:1038E000D7027093D8028093D9029093DA020E9493
:1038F0008117109298028091D70280FF03C08695AD
:103900000E94501C81E0809396020895E7EDF2E05A
:1039100080818160808386950C94501C0F931F9347
:10392000CF93DF9380919802882309F486C0809119
:103930009702E091D702E695E81BE093920282306D
:1039400091F5F0E0E651FB4FE491CE2FD0E00BE68D
:1039500018E180919302882361F0109293020E94F3
:10396000BA25909391028093900210929502109242
:1039700094020E94BA25E0919002F09191028E1B70
:103980009F0B8F3F9F4708F058C0EC0FFD1FF0932F
:103990009102E093900280E992E0F801DF91CF91EB
:1039A0001F910F910994863049F4F0E0E951FB4FE3
:1039B000E491CE2FD0E00FE718E1CBCF893051F45E
:1039C000E695F0E0EC51FB4FE491CE2FD0E009EB0F
:1039D00019E1BFCF8F3051F4E695F0E0EF51FB4F86
:1039E000E491CE2FD0E006EF19E1B3CF853149F451
:1039F000F0E0E252FB4FE491CE2FD0E009E61AE16D
:103A0000A8CFC8E2D0E00CED1AE1883109F4A1CFCB
:103A1000833239F4ECEDF4E0C591D4910FE818E16C
:103A200098CFC4EFD1E00CE61BE1843209F491CFCA
:103A3000C0EDD7E000E717E18CCFDF91CF911F9168
:103A40000F910895FA01811101C0FB010994CF93F0
:103A5000DF93C82FD62F0E94BF178C1740F00E940B
:103A6000BF178D1720F4DF91CF910C942E1C8C2F53
:103A7000DF91CF910C943E1C1F93CF93DF93EC0109
:103A8000FB01128111117EC00E94790E8272CC3C22
:103A9000FCE5DF0709F49CC008F041C0C63CECE53A
:103AA000DE0709F481C0D8F4C33C9CE5D90709F4CA
:103AB00071C030F4C23CDC4509F469C011E062C059
:103AC000C43C9CE5D90709F46AC047E759E16AE6B6
:103AD00079E1C53CDC4591F70E94221D53C0C93CE9
:103AE000FCE5DF0709F46AC068F4C73CECE5DE07D3
:103AF00009F45FC046E859E165E979E1C83CDC4575
:103B000059F3DCCFCA3C9CE5D90709F45CC042EF0D
:103B100057E16BED77E1CB3CDC45F1F2CFCFC13D16
:103B2000FCE5DF0709F465C098F4CE3C9CE5D907B5
:103B300009F457C008F451C0CF3CFCE5DF0709F495
:103B400055C0C03DDC4509F0B9CF6EE089E04BC0FF
:103B5000C43D9CE5D90709F452C058F4C23DFCE5C8
:103B6000DF0709F449C0C33DDC4509F0A7CF88E170
:103B700035C0C53D9CE5D90709F444C0CD35DD45C8
:103B800009F09CCF812FDF91CF911F9108950E9462
:103B9000491CF8CF4BE35CE16EE27CE19DCF4EE245
:103BA0005CE16BE37CE198CF4AE659E167E779E1B4
:103BB00093CF45E959E166E879E18ECF43EB59E1CE
:103BC00064EA79E189CF44EA59E163EB79E184CF92
:103BD0004BED57E162EF77E17FCF81E00E943E1C21
:103BE000D1CF65E082E00E94271DCCCF68E086E05F
:103BF000FACF64E18FE0F7CF67E185E1F4CF62E2CD
:103C000089E1F1CF83E2EACF209A45B14E7F55B1E9
:103C10005160EFB7F8949B01220F331F260F371F17
:103C2000280F391F2817390741F4EFBF8FE594E0BB
:103C30000197F1F700C000000895DC016D91CD01FE
:103C400078E055B9000000C067FF45B9660F000075
:103C500000C000C000C045B900C07A9591F7E2CF1E
:103C600083E290E00E94532E823289F484E290E055
:103C70000E94532E883059F485E290E00E94532E22
:103C800091E0883009F090E0892F8170089580E0FC
:103C9000FCCFCF93C82F6FEF811162E283E290E0F7
:103CA0000E94672EC1110CC0CFEF6C2F84E290E010
:103CB0000E94672E6C2F85E290E0CF910C94672EC6
:103CC000C8E0F3CF089586E290E00E94532E682F5B
:103CD00070E090E080E008950895CF93C62F0E9491
:103CE0006C1E6C2F86E290E0CF910C94672E80E0E2
:103CF0000E94491E60E070E0CB010E946D1E0E9490
:103D000061210E944B2281E00C94491E0E94621E98
:103D10000E94631E0E946C1E0E94301E811102C010
:103D20000C94771E0895CF93FB01C281CC2309F137
:103D30009C0122513F452031310520F582510E94DE
:103D40005B22C0E08C2FCF91089581E00E94A50AEC
:103D500043E062E081E00E940905F3CF81E00E9428
:103D6000B00A43E062E081E00E940905EBCF82E007
:103D7000F6CF8031FFE59F0789F381319F45B9F385
:103D8000C1E0E0CF8031EFE59E07F9F281319F4538
:103D9000C9F682E0DBCF2FEFFC0120830895CF939B
:103DA000DF93EC0188818138A9F028F4803871F024
:103DB000DF91CF910895823881F08338C9F70E944E
:103DC0000A1889830E940D188A83F2CF0E94101866
:103DD0008983EECF0E94BF17FBCF0E94F517F8CF63
:103DE000CF93DF93EC0188818138E1F028F48038AB
:103DF00069F0DF91CF910895823811F18338C9F7C6
:103E00000E941018482F6A81898108C0D9810E94B8
:103E10000D18C82F0E940A184D2F6C2FDF91CF91DB
:103E20000C94B61989810E94501C8981811104C0AB
:103E3000DF91CF910C94C11BDF91CF910C94861C24
:103E40008981DF91CF910C940718EF92FF920F9325
:103E50001F93CF93DF93EC01062FDC01ED91CD0191
:103E6000E150E33108F0ADC0F0E0E755F14D0C94BE
:103E7000FB2D198289E08A83602FCE01DF91CF91DB
:103E80001F910F91FF90EF900C94C0268981823092
:103E900069F0833071F08130D9F40E94C6250E9408
:103EA000012E6A837B838C839D83E6CF0E94631EF1
:103EB000F6CF7E01B2E0EB0EF11C10E0812F0E94E4
:103EC0000B13F70181937F011F5F1430B9F7D4CF33
:103ED000602FCE010E94CB1ECFCF89818230C1F7E7
:103EE0006A817B818C819D810E94012E0E946D1EC2
:103EF000C3CF4B816A8189810E943321982789270A
:103F000098279D838C83B8CF2C813D81322723272E
:103F100032274B816A8189810E944C21ADCF0E945A
:103F20006121AACF0E94F01EA7CF0E94CF1EA4CF6E
:103F30000E94A617A1CF0E94F42189839DCF0E94E1
:103F4000F6219827892798279A83898395CF6B81B3
:103F500070E089819A81AE014C5F5F4F9827892775
:103F600098270E94F92188CF6B8170E089819A811E
:103F7000AE014C5F5F4F9827892798270E94202227
:103F80007BCF0E944B2278CF0E942121D6CF6B811C
:103F900070E089819A81AE014C5F5F4F9827892735
:103FA00098270E94992168CF6B8170E089819A815E
:103FB000AE014C5F5F4F9827892798270E94BE214A
:103FC0005BCF8FEF888358CFCF93DF93EC01FB015A
:103FD0008281882309F433C1C330FDE5DF07C0F5D2
:103FE000CA3F9CE5D90730F49E0122503C4524315C
:103FF0003105B0F50E94730F9093CE028093CD02ED
:10400000C1318CE5D80709F4EEC008F069C0C930A9
:10401000ECE5DE0709F4D5C0C8F5C5308CE5D80756
:1040200009F4C7C000F5C330ECE5DE0709F4B9C0F8
:1040300008F0BBC0C230DC4509F4ADC08091CD02B0
:104040009091CE020E94810F0E94300A80E008C049
:10405000C136EDE5DE0771F2C53AFDE5DF0751F245
:10406000DF91CF9108958091CD028062C7309CE5A9
:10407000D90709F493C08091CD028061C830DC4536
:1040800008F48CC08091CD02806488C08091CD02FC
:104090008B7FCD30FCE5DF0709F480C098F4809178
:1040A000CD028E7FCB309CE5D90709F477C0809193
:1040B000CD028C60CC30DC4508F470C08091CD021C
:1040C0008D7F6CC08091CD028F7ECF30FCE5DF0705
:1040D00009F464C008F47BC08091CD028F7D5EC07E
:1040E000CD3F9CE5D90709F47AC050F5C531FCE510
:1040F000DF0709F486C098F48091CD02837FC33135
:104100009CE5D90709F44AC008F471C00E94300A3E
:104110009091CD02892F97FB87F980583FC0CB3F04
:10412000FCE5DF0709F449C008F055C08091CE02D4
:104130008160CA3FDC4509F081CF8093CE027ECFFB
:10414000C130EDE5DE0709F468C0A8F4CF3F8CE587
:10415000D80709F452C08091CE028360C115DD45B5
:1041600060F38091CE02982F909591708E7F892B6D
:1041700090FB81F9E2CFC136EDE5DE0709F451C0CD
:10418000C53AFDE5DF0709F453C0C230DD4509F04B
:1041900055CF80E043C08091CD0281608093CD02F5
:1041A0004DCF8091CD028260F9CF8091CD028460A5
:1041B000F5CF8091CD028860F1CF8091CE028260F0
:1041C000BCCF0E94300A8091CD028068E7CF8091F9
:1041D000CD02877FE3CF8091CE028E7FAECF8091DC
:1041E000CE028D7FAACF8091CD028F7BD7CF0E9448
:1041F000300A8091CD028F77D1CF8091CE028C7F13
:104200009CCF8091CD0282FB992790F921E09227E3
:1042100090FB82F990FB83F9C1CF81E00E940610E8
:104220000DCF9091CD02892F8F7E94FF8061B6CF04
:104230009091CD02892F8E7F90FF8160AFCF81E07A
:104240000FCF84E0089550E0440F551F9EE0699F12
:10425000400D511D112498E3899F400D511D1124DB
:10426000CA01879608950F931F93CF93DF930E94FF
:1042700023218C010E94532EC82FD0E0DC2FCC27A5
:10428000C80101960E94532E9E01282BC901DF917F
:10429000CF911F910F9108950F931F93CF93DF93A9
:1042A000122F032F0E942321EC01602F0E94672E02
:1042B000612FCE010196DF91CF911F910F910C9448
:1042C000672EAF92BF92CF92DF92EF92FF921F9331
:1042D000CF93DF938CEAC82E80E0D82ED0E0760111
:1042E000C0E014C0F50125913491412F6C2F8D2F22
:1042F0000E944C2182E0A80EB11C1F5F173091F77D
:104300008EE0E80EF11CCF5FC43019F0570110E0C9
:10431000E9CFDF5F88E3C80ED11CD43001F7DF910D
:10432000CF911F91FF90EF90DF90CF90BF90AF9013
:104330000895EF92FF920F931F93CF93DF93EC01B9
:104340008A017C01E60EF71ECE018796CE15DF05A9
:1043500039F4DF91CF911F910F91FF90EF90089565
:10436000C03ED10540F40E94532EF80180830F5FB8
:104370001F4F2196E9CFF8011082F9CFCF92DF923B
:10438000EF92FF920F931F93CF93DF937C016A010B
:104390008C01060F171FEC01CE018796C017D107BD
:1043A00049F4DF91CF911F910F91FF90EF90DF9033
:1043B000CF900895C03ED10540F4FE01EE19FF09EB
:1043C000EC0DFD1D60810E94672E2196E5CF462FE2
:1043D000843038F4743028F4673018F4672F0C9464
:1043E000332190E080E0089580E1089589EF92E024
:1043F0000895EF92FF920F931F93CF93DF93EC01F9
:104400008A017C01E60EF71ECE01895F9E4FCE1514
:10441000DF0539F4DF91CF911F910F91FF90EF905D
:104420000895C93F22E0D20740F40E94532EF801BC
:1044300080830F5F1F4F2196E7CFF8011082F9CFDD
:10444000CF92DF92EF92FF920F931F93CF93DF9360
:104450007C016A018C01060F171FEC01CE01895FF8
:104460009E4FC017D10749F4DF91CF911F910F9153
:10447000FF90EF90DF90CF900895C93F22E0D207E0
:1044800040F4FE01EE19FF09EC0DFD1D60810E9454
:10449000672E2196E3CFCF93DF93C7E0D1E060E0B2
:1044A000CE010E94672E2196C11584E0D807B9F786
:1044B000DF91CF910895DF92EF92FF920F931F93B8
:1044C000CF93DF9300D000D0CDB7DEB7F82E8FE0CA
:1044D0008F1540F08FEF93E00E94532E07E011E01C
:1044E0008823C1F00F900F900F900F90DF91CF9124
:1044F0001F910F91FF90EF90DF900895011584E0D8
:10450000180781F3C8010E94532E811101C0FA944B
:104510000F5F1F4FF110F2CF19821A821B821C828B
:10452000DD24D39478018FEFE81AF80AC8010E94BD
:10453000532E89831A828823A9F29FEF980F933014
:1045400078F48A83D9820E5F1F4FC7010E94532ED1
:104550008B83882339F2CE0101960E945B06E2CF5D
:104560008701F9CF8FE891E00197F1F700C00000D3
:1045700008950C948D0453985B9A52985A9A0E940D
:10458000B22289B183FB882780F94A9905C090E05F
:10459000892B80939B02089592E0FACFE0919B02D1
:1045A000EE0FEE0FE0939B0249B143FB882780F9A1
:1045B00049B142FB222720F942FF02C022E030E04D
:1045C000822BE82BE0939B02EF70F0E0E254FE4F69
:1045D000808190919A02890F80939A0220E0823024
:1045E00054F0809199028F5F8093990260E080E09F
:1045F0000E94B92221E080919A028F3F54F4809169
:10460000990281508093990261E080E00E94B92272
:1046100021E080919A02082E000C990B62E070E074
:104620000E94C52D80939A02822F0895CF93DF9325
:10463000EB0186319C4511F50E94790E9A819923F0
:1046400099F08A7A91E009F490E090939C028111AC
:1046500009C089E20E94540E0E94B90E80E0DF91E9
:10466000CF91089585E3F6CF80919C02811104C01B
:1046700089E20E945B0EF0CF85E3FBCF81E0EFCFB4
:104680000F931F93CF93DF93C42FD22FFC0182810E
:104690008823C9F040939F020E94BA2590939E02FE
:1046A00080939D0280E28C0F883008F050C0C77064
:1046B00081E001C0880FCA95EAF7DF91CF911F9181
:1046C0000F910C94CA0710919F02141335C080916A
:1046D0009D0290919E020E94D225883C910560F532
:1046E000C0E2CD0F1D17B9F080E2810F883040F491
:1046F000177081E001C0880F1A95EAF70E94D10770
:10470000C83048F481E09D2F977001C0880F9A95BA
:10471000EAF70E94CA07802F0E94C207C830B8F487
:10472000D77081E001C0880FDA95EAF7DF91CF9169
:104730001F910F910C94D10780E28C0F883038F4D0
:10474000C77081E001C0880FCA95EAF7EFCFDF910B
:10475000CF911F910F9108950F939C01CB01233F9F
:104760004CE5340759F1A8F4283DFCE53F0701F179
:10477000293D4CE53407D1F1273D3C4591F406E253
:1047800021EE41EE67ED7CE50E94402380E00F9131
:104790000895253FFCE53F07E9F0B0F0263F3C4592
:1047A000F9F0FC018281882339F110929F02EFCF4A
:1047B00007E225EE45EE68ED7CE5E6CF06E221EE68
:1047C00040EE63EF7CE5E0CF07E225EE44EE64EFD8
:1047D0007CE5DACF06E221EE42EE65EF7CE5D4CF50
:1047E00007E225EE46EE66EF7CE5CECF08E221E05B
:1047F00045EE69ED7CE5C8CF81E0C9CF9093DF013C
:104800008093DE0108959093A5028093A4020895F9
:10481000E091A402F091A502309721F00190F0817F
:10482000E02D099480E00895E091A402F091A502A2
:10483000309799F020912B01222359F02091CD023D
:1048400027FF07C0DC012C9111962C93119726E0CD
:104850002C930280F381E02D09940895E091A40245
:10486000F091A502309739F022E0DC012C9304800E
:10487000F581E02D099408952091A2023091A302C0
:104880002817390771F09093A3028093A202E09158
:10489000A402F091A502309721F00680F781E02D67
:1048A000099408952091A0023091A1022817390798
:1048B00071F09093A1028093A002E091A402F09184
:1048C000A502309721F00084F185E02D0994089528
:1048D000FC01329680912B01882321F08091CD023A
:1048E0009EE187FF96E080E0915008F408952191C1
:1048F0002223D1F38F5FF8CF662301F120912B01A2
:104900002223F1F02091CD0227FF1AC0462F4695B1
:10491000469546954E3190F4677021E030E002C034
:10492000220F331F6A95E2F7840F911DFC018281EB
:1049300090E02823392381E0232B69F480E0089557
:10494000FC01329608962191261721F0E817F90705
:10495000D1F7F4CF81E008959C01FC0132969FEFDE
:1049600080E04191461751F09F3F19F4411101C079
:10497000982F8F5F8630A9F79F3F09F40895290F7C
:10498000311D97FD3A95F90162830895FC01329635
:1049900008962191261303C0DF0111971C92E81796
:1049A000F907B9F70895E62FE695E695E695EE3115
:1049B00068F4E80FF92FF11D677021E030E001C0C5
:1049C000220F6A95EAF78281822B82830895E62F6F
:1049D000E695E695E695EE3170F4E80FF92FF11DB6
:1049E000677021E030E001C0220F6A95EAF7209558
:1049F000828128232283089520912B01222329F0EC
:104A00002091CD0227FD0C94D3240C94AC2420914A
:104A10002B01222329F02091CD0227FD0C94E724BD
:104A20000C94C624FC01329680912B01882351F00E
:104A30008091CD0287FF06C08EE1DF011D928A952D
:104A4000E9F7089586E0F9CF08950C9424258111A3
:104A500005C081E08093A6020C94252582E0FACF60
:104A600083E08093A6020C9425250C94272581E0F1
:104A70008093A6020C9425250C943725089508955B
:104A80000C943F25089508950C943E25CF930E94E1
:104A900042250E94C7130E944325C0E08C2F0E942C
:104AA0000B13811105C0CF5FC430C1F7CF910895BA
:104AB00081E0FCCF08951F921FB61F9211248F939F
:104AC0009F93AF93BF938091A702811113C08091F0
:104AD0000C0390910D03A0910E03B0910F0341962A
:104AE000A11DB11D80930C0390930D03A0930E03A1
:104AF000B0930F03BF91AF919F918F911F901FBEF5
:104B00001F90189580911403843031F10E9485051F
:104B10001092A70288E190E020E40FB6F894A895DF
:104B2000809360000FBE2093600083B7817F846014
:104B300083BF83B7816083BF7894889583B78E7F66
:104B400083BF0FB6F894A895809160008861809328
:104B50006000109260000FBE08950E94300A0C940D
:104B6000890582E084BD93E095BD9AEF97BD80935F
:104B70006E0008952FB7F89480910C0390910D0367
:104B8000A0910E03B0910F032FBF08952FB7F89493
:104B900060910C0370910D0380910E0390910F03AF
:104BA0002FBF08959C014FB7F89480910C0390910A
:104BB0000D03A0910E03B0910F034FBF821B930B07
:104BC000089578941F921FB61F9211248F939F937C
:104BD000AF93BF9380910C0390910D03A0910E03AE
:104BE000B0910F030196A11DB11D80930C0390930A
:104BF0000D03A0930E03B0930F03BF91AF919F914C
:104C00008F911F901FBE1F90189581E08093E00048
:104C100080E28093D8001092C9008FE19EE4019752
:104C2000F1F700C0000087E090EBDC0180931D03EA
:104C300090931E03A0931F03B093200388E19CE090
:104C40000FB6F894A895809360000FBE9093600013
:104C5000FFCF8091CB02089508959C0184E080935A
:104C6000E9009FEF8091E800915085FD06C085ED39
:104C70008A95F1F700009111F5CF8091E80085FF4A
:104C80000CC050E040E066E070E0C9010E94D1280D
:104C90008091E8008E778093E8000895CF93DF93AA
:104CA000EC0180912B018823B1F18091CD0287FF27
:104CB00032C060E284E08093E9008FEF9091E800D9
:104CC000815095FD06C095ED9A95F1F70000811190
:104CD000F5CF8091E80085FF1BC080912B0170E02B
:104CE00050E040E0811104C050E040E068E070E036
:104CF000CE010E94D1288091E8008E778093E80051
:104D000080E2FE01ABEAB2E001900D928A95E1F7F4
:104D1000DF91CF91089568E081E0CDCF8093A80224
:104D20007093AA026093A902809114038430F9F46D
:104D30008093E9008FEF9091E800815095FD06C0C7
:104D400095ED9A95F1F700008111F5CF8091E8007B
:104D500085FF0DC050E040E063E070E088EA92E03B
:104D60000E94D1288091E8008E778093E800089512
:104D7000BC0184E00C948E26BC0183E00C948E264A
:104D8000CF93FC01603221F580911403843001F54A
:104D9000C091E900CF702091EC00922F917020FD1E
:104DA00090E8C92B82E08093E9008091E80080FFC1
:104DB0000CC050E040E060E270E0CF010E94D128DA
:104DC0008091E8008E778093E800CF70C093E9006F
:104DD000CF91089580911303811109C00E94B02AD8
:104DE0000E940D2B8091E20084608093E200089580
:104DF0001092130308950C9437256091100381E0FD
:104E0000611101C080E00C9430259091140381E081
:104E1000943009F080E0609110030C94352542E055
:104E200061EC81E00E942C2A42E261EC84E00E9465
:104E30002C2A42E261EC82E00E942C2A42E260ECE1
:104E400083E00E942C2A9091140381E0943009F0B1
:104E500080E0609110030C94272580911603833025
:104E600009F462C030F48130D9F1823009F49EC077
:104E700008958A3009F48AC08B3009F470C08930F3
:104E800009F051C080911503813209F04CC0809126
:104E9000190390911A03009719F0029709F043C083
:104EA0008091E800877F8093E8008091E80082FF8E
:104EB00036C09091F3008091F200029731F4809116
:104EC000F100813011F0863021F48091F10080935F
:104ED000CB028091E8008B778093E8000C94602AE5
:104EE00080911503813AF9F48091E800877F8093DF
:104EF000E8008091190390911A03892B61F460E214
:104F00008BEA92E070E00E946F298091E8008B7735
:104F10008093E800089560E090E080E0F3CF809116
:104F200014038111C2CF089580911503813AD9F7F6
:104F30008091190390911A03892BA9F78091E800B9
:104F4000877F8093E8008091E80080FFFCCF80910C
:104F50002B018093F1008091E8008E77BDCF809186
:104F60001503813201F78091190390911A03892B5F
:104F7000D1F68091E800877F8093E8000E94602A44
:104F80008091170380932B010C94300A80911503B4
:104F9000813249F68091E800877F8093E8000E9483
:104FA000602A809118038093CC02089580911503A4
:104FB000813A09F0B8CF8091E800877F8093E800BC
:104FC0008091E80080FFFCCF8091CC02C2CF84B7F3
:104FD000877F84BF0FB6F894A895809160008861A0
:104FE00080936000109260000FBE80E890E00FB6E2
:104FF000F89480936100909361000FBE0C943C255F
:105000000E94B02A0E940D2BE2EEF0E080818460C5
:10501000808378940C94962D8FE191E00C94032476
:10502000809114038530A9F480911403853011F028
:105030000C94AD250E948225809112038823A1F350
:105040000E944625882381F30E94BB280E94300AD3
:10505000EBCF0895CF93DF93CDB7DEB7A0970FB610
:10506000F894DEBF0FBECDBF80911403843009F5E4
:1050700083E08093E9008091E80082FF1AC080916C
:10508000E80090E085FF09C050E040E060E270E099
:10509000CE0101960E94202991E08091E8008B7753
:1050A0008093E800992329F060E2CE0101960E94E6
:1050B000251FA0960FB6F894DEBF0FBECDBFDF91BF
:1050C000CF9108950C946428292F3327233031057C
:1050D00021F168F42130310509F443C02230310553
:1050E00009F444C090E080E030E020E026C02132A6
:1050F000310551F122323105A9F76330710590F77E
:10510000FB01EE0FFF1FEF52FE4F208131816253F2
:105110007E4FFB01808190E010C09927813091057E
:1051200081F0009729F00297E9F6E3EFF6E002C07C
:10513000EDE1F7E0849190E09F01FA013183208353
:105140000895E5E0F7E0F6CF6330710558F6660F95
:10515000771FFB01E952FE4F2081318189E090E009
:10516000ECCF82E190E02CE737E0E7CF8BE590E0F1
:1051700021E237E0E2CF80E189BD82E189BD09B457
:1051800000FEFDCF8091D8008F7D8093D800809164
:10519000E00082608093E0008091E00081FDFCCF20
:1051A0000895AF92BF92CF92DF92FF920F931F9319
:1051B000CF93DF936C01EB018A010E947F2AF82EC6
:1051C000811123C00115110539F0F8018081918109
:1051D000C81BD90BC80ED91EB12CA12C2097A9F041
:1051E0008091E80085FD22C08091E8008E77809351
:1051F000E80001151105A1F0F80180819181A80E48
:10520000B91EB182A08285E0F82E8F2DDF91CF915B
:105210001F910F91FF90DF90CF90BF90AF900895B6
:105220000E947F2A8823D1F2F82EEFCFF6018191D8
:105230006F018093F1002197FFEFAF1ABF0ACECF25
:10524000AF92BF92CF92DF92FF920F931F93CF93B3
:10525000DF936C01EB018A010E947F2AF82E8111F5
:1052600023C00115110539F0F80180819181C81B17
:10527000D90BC80ED91EB12CA12C2097A9F0809172
:10528000E80085FD22C08091E8008B778093E800DC
:1052900001151105A1F0F80180819181A80EB91EB8
:1052A000B182A08285E0F82E8F2DDF91CF911F91E2
:1052B0000F91FF90DF90CF90BF90AF9008950E9424
:1052C0007F2A8823D1F2F82EEFCF8091F100F601EA
:1052D00081936F012197FFEFAF1ABF0ACECFFC0178
:1052E00080911B0390911C0386179707A0F061150E
:1052F000710529F49091E8009E779093E80090E082
:105300006115710551F4911108C08091E80082FF88
:1053100034C080E00895BC01F2CF8091140388234B
:10532000C1F18530C1F18091E80083FD30C08091EA
:10533000E80082FDEACF8091E80080FFE1CF809114
:10534000F3002091F200382F6115710519F0283013
:10535000310558F091E02830310509F090E02091B6
:10536000E8002E772093E800CBCF81918093F10065
:10537000615071092F5F3F4FE7CF8091140388235D
:1053800041F0853041F08091E80083FFBECF81E09D
:10539000089582E0089583E00895FC0180911B0345
:1053A00090911C0386179707A0F06115710529F4E9
:1053B0008091E8008E778093E80090E06115710598
:1053C00051F4911108C08091E80082FF35C080E05F
:1053D0000895BC01F2CF809114038823C9F1853070
:1053E000C9F18091E80083FD31C08091E80082FD21
:1053F000EACF8091E80080FFE1CF8091F300209117
:10540000F200382F6115710519F02830310558F078
:1054100091E02830310509F090E08091E8008E7726
:105420008093E800CBCF84918093F1003196615056
:1054300071092F5F3F4FE6CF80911403882341F01D
:10544000853041F08091E80083FFBDCF81E0089571
:1054500082E0089583E00895982F973028F08F70A8
:105460008093E90081E008959093E900242F762F3E
:1054700050E0981731F07091EC002091ED005091C0
:10548000F00021FD02C09F5FE8CF3091EB003E7F2E
:105490003093EB003091ED003D7F3093ED00309183
:1054A000EB0031603093EB007093EC002093ED0043
:1054B0005093F0002091EE0027FDE5CF80E00895A5
:1054C0008091150387FF13C08091E80082FF06C01A
:1054D0008091E8008B778093E80004C080911403EA
:1054E0008111F2CF0895809114038823D9F380911C
:1054F000E80080FFF8CF8091E8008E77ECCF209114
:10550000E4003091E50095E6A9012091EC00822F9E
:10551000817020FF06C08091E80080FF06C080E017
:1055200008952091E80022FD1AC080911403882379
:1055300089F0853089F08091EB0085FD0FC02091C6
:10554000E4003091E50042175307F9F29150E1F67B
:1055500084E0089582E0089583E0089581E008954D
:105560000E941E2B0E94262BE0EEF0E080818160DD
:105570008083E8EDF0E080818F77808319BCA7ED10
:10558000B0E08C918E7F8C9380818F7E808310928F
:10559000130308950F931F93CF93DF930E941E2B45
:1055A0000E94262BC8EDD0E088818F778883888180
:1055B0008068888388818F7D888319BC109214034A
:1055C00010921003109212031092110300EE10E0DB
:1055D000F80180818B7F808388818160888342E0AD
:1055E00060E080E00E942C2AE1EEF0E080818E7F76
:1055F0008083E2EEF0E0808181608083808188603A
:105600008083F80180818E7F808388818061888398
:10561000DF91CF911F910F910895E8EDF0E0808127
:105620008F7E8083E7EDF0E080818160808384E07D
:1056300082BF81E0809313030C94CA2AE8EDF0E066
:1056400080818E7F80831092E20008951092DA00AC
:105650001092E10008951F920F920FB60F9211243D
:105660002F933F934F935F936F937F938F939F936A
:10567000AF93BF93EF93FF938091E10082FF0BC044
:105680008091E20082FF07C08091E1008B7F8093D0
:10569000E1000E94952D8091DA0080FF19C0809171
:1056A000D80080FF15C08091DA008E7F8093DA00E9
:1056B0008091D90080FF96C080E189BD82E189BDDB
:1056C00009B400FEFDCF81E0809314030E94EA2616
:1056D0008091E10080FF19C08091E20080FF15C039
:1056E0008091E2008E7F8093E2008091E2008061F1
:1056F0008093E2008091D80080628093D80019BC2A
:1057000085E0809314030E94FD268091E10084FFD0
:105710002BC08091E20084FF27C080E189BD82E137
:1057200089BD89B5982F917080FFFBCF8091D800FB
:105730008F7D8093D8008091E1008F7E8093E1007F
:105740008091E2008F7E8093E2008091E200816090
:105750008093E20080911003882309F449C084E01B
:10576000809314030E9405278091E10083FF29C0E4
:105770008091E20083FF25C08091E100877F8093C4
:10578000E10082E080931403109210038091E10005
:105790008E7F8093E1008091E2008E7F8093E20013
:1057A0008091E20080618093E20042E060E080E06E
:1057B0000E942C2A8091F00088608093F0000E9463
:1057C000FB26FF91EF91BF91AF919F918F917F91B8
:1057D0006F915F914F913F912F910F900FBE0F905E
:1057E0001F90189519BC109214030E94F82670CFD0
:1057F0008091E30087FD93E090931403B3CF1F9251
:105800000F920FB60F9211242F933F934F935F93F4
:105810006F937F938F939F93AF93BF93CF93DF93B8
:10582000EF93FF93D091E900DF708091EC00C82FD7
:10583000C17080FDC0E81092E9008091F000877F80
:105840008093F00078940E94432C1092E90080919C
:10585000F00088608093F000CD2BCF70C093E900FA
:10586000FF91EF91DF91CF91BF91AF919F918F9178
:105870007F916F915F914F913F912F910F900FBE4C
:105880000F901F9018951F93CF93DF93CDB7DEB77E
:10589000AA970FB6F894DEBF0FBECDBF85E193E0A7
:1058A0002091F100FC012193CF01F3E08D319F079E
:1058B000B9F70E942D278091E80083FF1EC18091D7
:1058C0001503909116039A3008F017C1E92FF0E004
:1058D000E454F14D0C94FB2D803899F0823809F096
:1058E0000CC1809119038F70873008F006C1809336
:1058F000E9008091EB0085FB882780F91092E90090
:1059000006C08091110390911203911182609091D1
:10591000E800977F9093E8008093F1001092F100E7
:105920008091E8008E77E5C0882309F4D3C08230E7
:1059300009F0E3C0809117038111D6C0809119034B
:105940008F702FEF280F263008F0D7C08093E90022
:105950002091EB0020FFC8C0933031F48091EB0020
:1059600080628093EB00C0C09091EB0090619093B7
:10597000EB0021E030E001C0220F8A95EAF7209386
:10598000EA001092EA008091EB008860EACF811172
:10599000B4C0109117031F778091E3008078812BAA
:1059A0008093E3008091E800877F8093E8000E9465
:1059B000602A8091E80080FFFCCF8091E30080683E
:1059C0008093E30082E0111183E08093140395C07B
:1059D0008058823008F091C080911703909118038D
:1059E0008C3D23E09207A1F583E08A838AE28983D4
:1059F0004FB7F894DE01139620E03EE051E2E32F2A
:105A0000F0E050935700E49120FF03C0E295EF705F
:105A10003F5FEF708E2F90E0EA30C0F0C7968D9315
:105A20009D932F5F243159F74FBF8091E800877F06
:105A30008093E8006AE270E0CE0101960E946F292F
:105A40008091E8008B778093E80057C0C096E7CF3D
:105A50006091190370911A03AE014F5F5F4F0E946E
:105A60006228BC01892B09F448C09091E800977F17
:105A70009093E80089819A810E94CD29E1CF8038F6
:105A8000E1F58091E800877F8093E8008091100322
:105A90008093F10045CF811130C09091170392306F
:105AA00060F58091E800877F8093E8009093100371
:105AB0000E94602A80911003882311F084E005C0C1
:105AC0008091E30087FDFACF81E0809314030E9468
:105AD0000F2713C080911703813079F481E0933050
