:100000000C94E9020C9430030C9430030C943003EC
:100010000C9430030C9430030C9430030C94300394
:100020000C9430030C9430030C94B9210C948B2263
:100030000C94E71C0C9430030C9430030C943003A4
:100040000C9430030C9430030C9430030C94300364
:100050000C9430030C944F1D0C9430030C9430031B
:100060000C9430030C9430030C9430030C94300344
:100070000C9430030C9430030C9430030C94300334
:100080000C9430030C9430030C9430030C94300324
:100090000C9430030C9430030C9430030C94300314
:1000A0000C9430030C9430030C94300316041804A1
:1000B00023041A041C041E0420042204250427041B
:1000C000290434042B042D042F0431043304360492
:1000D00006130613381338139814981498149814A8
:1000E00078139814191419148814981498149114E6
:1000F0002614261426142614261426142614261430
:10010000261426142614261426142614261426141F
:10011000351443144A1451145B141B151B152D156B
:100120002D1524152D152D152D151B151B152915F0
:100130002D152D152915F8221F2311241F231124F5
:100140006B238E231124E423F323C25CC35CCD5CB8
:10015000C55CC75CC95CC65CC85CCA5C0000015178
:10016000005C1E001F00200021002200230024004C
:100170002500260000000100270001000100010009
:100180000100010001000100010001000000010068
:100190000100010001000100010001000100010057
:1001A0000100010000000100010001000100010048
:1001B0000100010001000100010001000000010038
:1001C0000100010001000100010001000100010027
:1001D0000100010000000100010001000100010018
:1001E0000100010001000100010001000000010008
:1001F00001000100010001000100010001000100F7
:1002000001000100000001000100010001000100E7
:1002100001000100010001000100010000000100D7
:1002200001000100010001000100010001000100C6
:1002300001000100000001000100010001000100B7
:1002400001000100010001000100010000000100A7
:100250000100010001000100010001000100010096
:100260000100010000000100010001000100010087
:100270000100010001000100010001000000010077
:100280000100010001000100010001000100010066
:100290000100010000000100010001000100010057
:1002A0000100010001000100010001000000010047
:1002B0000100010001000100010001000100010036
:1002C0000100010000000100010000047F3F1F64E5
:1002D0003214643214783C1E1E140A05222325268B
:1002E00028292A2C2D2F3032333536383A3B3D3EE3
:1002F0004042434547494A4C4E5051535557595A2D
:100300005C5E6062646668696B6D6F717375777946
:100310007B7D7F81838587898A8C8E909294969845
:100320009A9C9E9FA1A3A5A7A8AAACAEAFB1B3B457
:10033000B6B8B9BBBCBEBFC1C2C3C5C6C7C9CACBAC
:10034000CCCDCED0D1D2D2D3D4D5D6D7D7D8D9D977
:10035000DADADBDBDBDCDCDCDCDCDDDDDDDDDCDCE0
:10036000DCDCDCDBDBDBDADAD9D9D8D7D7D6D5D4FD
:10037000D3D2D2D1D0CECDCCCBCAC9C7C6C5C3C2C9
:10038000C1BFBEBCBBB9B8B6B4B3B1AFAEACAAA81E
:10039000A7A5A3A19F9E9C9A98969492908E8C8AD2
:1003A00089878583817F7D7B79777573716F6D6BAD
:1003B0006968666462605E5C5A5957555351504E85
:1003C0004C4A4947454342403E3D3B3A3836353337
:1003D00032302F2D2C2A292826252322FFAA7F55AB
:1003E00040000000000000000000000101010101C8
:1003F00001010101020202020202020203030303DD
:1004000003030304040404040505050505060606A4
:10041000060607070707080808080909090A0A0A5B
:100420000B0B0B0C0C0C0D0D0D0E0E0E0F0F1010F8
:10043000101111121213131414151516161717187C
:100440001819191A1A1B1C1C1D1D1E1F1F202121E3
:1004500022232324252526272828292A2B2C2C2D26
:100460002E2F30313132333435363738393A3B3C40
:100470003D3E3F404142434445464748494B4C4D31
:100480004E4F50525354555758595A5C5D5E6061F7
:1004900063646567686A6B6C6E6F71727476777986
:1004A0007A7C7D7F8182848687898B8D8E909294E1
:1004B0009597999B9D9FA1A2A4A6A8AAACAEB0B205
:1004C000B4B6B9BBBDBFC1C3C5C8CACCCED0D3D5E5
:1004D000D7DADCDEE1E3E6E8EAEDEFF2F4F7F9FC87
:1004E000FF0403300000000C036B0069006300612F
:1004F00000640000000E0364007A0074006500636D
:1005000000680000000403090409023B0002010026
:10051000A0FA0904000001030101000921110100F2
:10052000012240000705810308000A0904010001B7
:1005300003000000092111010001223B0007058290
:100540000320000A1201100100000008EDFE6060A7
:1005500001000102030105010906A1018505050746
:1005600019E029E7150025019508750181020508A4
:1005700019012905950575019102950175039101F0
:100580000507190029EF1500250195F07501810275
:10059000C005010906A101050719E029E715002595
:1005A00001950875018102950175088101050819F9
:1005B00001290595057501910295017503910105C4
:1005C00007190029FF150026FF0095067508810010
:1005D000C00011241FBECFEFDAE0DEBFCDBF04B6EE
:1005E00003FE27C08091420290914302A0914402F1
:1005F000B09145028730904BA740B04BD1F4109298
:10060000420210924302109244021092450214BE1C
:1006100084B7877F84BF0FB6F894A8958091600057
:10062000886180936000109260000FBEE0E0F8E304
:10063000099511E0A0E0B1E0E4E9F9E402C0059019
:100640000D92AA34B107D9F722E0AAE4B1E001C0C3
:100650001D92A234B207E1F70E94DB1E0C94C8245D
:100660000C9400000C9439030C943A0380E090E061
:1006700008950895089581E00895089581E008950A
:100680000C943B031F93CF93DF9300D000D01F92B5
:10069000CDB7DEB749835A832091720189819A814F
:1006A000211112C0662349F00E94401A182F682FAA
:1006B00089819A810E94E51903C00E94141A182F9B
:1006C00069817A81812F04C00E94401A69817A81F0
:1006D0000F900F900F900F900F90DF91CF911F917F
:1006E0000C94A405FC014081518162817381848155
:1006F0000C9442030E94701B811102C00E94EA1BED
:100700000C9432030C9434030C943D030C94840336
:1007100008950E940B150E9488032FEF84E39CE04C
:10072000215080409040E1F700C000000C94751DFE
:100730000F931F93CF93DF938C010E947203EC0100
:10074000B8010E944003882309F4F7C1B801CE0123
:100750000E94A70F882309F4F0C1CA3CFCE5DF071B
:1007600041F4F8018281882309F4E7C10E94E50B76
:10077000E4C1CB3C8CE5D80708F012C1C33C9CE532
:10078000D90761F4F8018281882309F4D6C10E9457
:10079000C01A8272E1F00E94100ECFC1C43CECE599
:1007A000DE07C0F0C63C9CE5D90709F4CAC008F0D2
:1007B000DCC0C43CFCE5DF0709F0CBC0F801828156
:1007C000882309F4BAC10E94C01A827221F30E94E0
:1007D000030EB3C1C531FCE5DF0708F07BC0C230B2
:1007E0008CE5D80708F452C0F8018281882309F407
:1007F00054C00E94701B811102C00E94EA1B0E941B
:10080000831B90E09093340280933302FE01E35007
:10081000FC45E231F10530F4EA5AFF4F8091330292
:100820000C946D2480913302816027C0826025C0C2
:10083000846023C0806121C080621FC080641DC0AD
:1008400080681BC08460886018C08E7F16C08D7F52
:1008500014C08B7F12C08F7E10C08F7D0EC08F7B27
:100860000CC08F770AC08B7F877F07C087FB22274A
:1008700020F991E0922790FB87F9809333028091D1
:1008800033020E94871B0E940B1557C1C1159CE5BE
:10089000D90751F0C130DC4579F0C801DF91CF9123
:1008A0001F910F910C943E03F8018281882309F473
:1008B00044C10E94890341C1F8018281882309F45F
:1008C0003CC18091E201982F909590FB80F9809334
:1008D000E20133C1C631FCE5DF0739F50E94C01AD9
:1008E000282FF80182814091100150911101882335
:1008F00079F02A7A91E009F490E090934A019111FD
:1009000002C069E201C065E3CA010E94511C0AC02D
:1009100080914A01811102C069E201C065E3CA0108
:100920000E945C1C0E940C1B08C1C23CDC4509F003
:10093000B4CFF8018281882309F4FFC00E941E0E03
:10094000FCC0F8018281882309F4F7C00E94A90B3A
:10095000F4C0C53CDC4509F0A0CFF80182818823B2
:1009600009F4EBC00E949C0BE8C0F8018281C83CEE
:10097000FCE5DF0731F4882309F4DFC00E94C70BD0
:10098000DCC0C93CDC4530F4882309F4D6C00E94A1
:10099000B80BD3C0882309F4D0C00E94D60BCDC0B9
:1009A000C13DECE5DE0791F4F8018281882309F46A
:1009B000C4C00E94170A8F3028F00E94170A8431A1
:1009C00008F405CF8FE00E94130EB7C0C23DFCE5CE
:1009D000DF0708F05AC0CD3C8CE5D80739F4F801A0
:1009E0008281882309F4A9C081E0EDCFCE3C9CE54B
:1009F000D907C0F4CB3CECE5DE0741F4F801828175
:100A0000882309F49AC00E941F0A97C0CC3CDC4599
:100A100009F043CFF8018281882309F48EC00E9437
:100A2000300A8BC0F8018281CF3CFCE5DF0771F40E
:100A3000882309F482C00E94170A863028F00E9499
:100A4000170A883008F4C3CE86E0BDCFC03DDC4530
:100A500070F4882309F471C00E94170A823028F0CC
:100A60000E94170A853008F4B2CE82E0ACCF88230A
:100A700009F463C00E94170A893028F00E94170AFF
:100A80008E3008F4A4CE89E09ECFC53DECE5DE07AC
:100A900039F4F8018281882309F44FC083E293CFAF
:100AA000C63DFCE5DF0740F5F8018281C33DFCE56A
:100AB000DF0729F4882309F440C088E184CFC43DCE
:100AC000DC4568F48823C9F10E94170A853128F0B3
:100AD0000E94170A873108F47ACE85E174CF882303
:100AE00061F10E94170A893128F00E94170A8232A8
:100AF00008F46DCE89E167CFCD3DECE5DE0741F42A
:100B0000F80182818823C9F082E00E947C1F15C011
:100B1000CE3DFCE5DF0739F4F8018281882369F0D6
:100B20000E94EA1B0AC0CC3DDC4509F0B6CEF801B4
:100B30008281882311F080E0E8CF80E0DF91CF91BF
:100B40001F910F9108950895272F30E0F901EE0FBE
:100B5000FF1F2E0F3F1FF9019CE0899FE00DF11D43
:100B60001124E60FF11DEE0FFF1FE65BFE4F85918E
:100B700094910895880F991FFC01E653FD4F8591CC
:100B800094910895CF93DF930E94A4050E94790762
:100B9000EC01811520E59207F0F5811530E493070B
:100BA00008F024C1883E910500F5803E910508F0CB
:100BB0009CC1883A910570F4853A910508F09FC070
:100BC0008130910509F491C108F442C1049708F0FD
:100BD0008CC13EC18F3B910508F49CC0803C9105BF
:100BE00008F436C1805C9109F4C0811540E2940795
:100BF00058F4C11581E0D80708F077C1C03FD1058E
:100C000008F426C1D06571C1811520E3920708F070
:100C1000E4C09F70DEC0811535E5930708F044C03D
:100C2000811544E5940708F0F8C0C11582E5D8079E
:100C300008F5C11521E5D20708F0DBC08C2F8370C1
:100C400021E030E002C0220F331F8A95E2F73C68B2
:100C5000CE0174E0969587957A95E1F78370382BED
:100C6000CF70C695C69580E2C89FE0011124C22BC3
:100C7000D32B3BC12C2F26952695CE018370992727
:100C8000C115D34508F0BAC040E2249F9001112459
:100C9000C1E0D0E002C0CC0FDD1F8A95E2F72C2B1B
:100CA0003D2BE901DC6821C1811549E59407A0F4D9
:100CB000C11588E5D80708F0B5C0C11526E5D207EB
:100CC00008F0C6C08C2F0E94F6078F71C82FD0E0A5
:100CD000DC2FCC27D06209C181153AE5930708F4CF
:100CE000A6C090568115904208F0B2C08D2F8F712A
:100CF0000E94F607DD27D0628F71D82BF6C0853AA7
:100D0000910509F4A8C0863A910509F0A7C0C2E888
:100D1000D0E4EBC0883A910509F4A3C0893A910563
:100D200009F4A2C08A3A910509F4A1C08B3A910551
:100D300009F4A0C08C3A910509F49FC08B3B910542
:100D400009F49EC08C3B910509F49DC08D3A910534
:100D500009F49CC0803B910509F49BC08E3A910533
:100D600009F49AC08F3A910509F499C0813B910525
:100D700009F498C0823B910509F497C0833B910523
:100D800009F496C0843B910509F495C0853B910513
:100D900009F494C0863B910509F493C0873B910503
:100DA00009F492C0883B910509F491C0893B9105F3
:100DB00009F490C08D3B910509F48FC08E3B9105DD
:100DC00009F48EC08A3B910509F48DC0C0E0D4E4DB
:100DD0008CC00E94BA05EC0188C09927D3FF03C0DC
:100DE000EC01D86C82C0EC01D06C7FC0DF70D06A9F
:100DF0007CC0DC2FCC27C16FD06A77C040E2249F33
:100E000090011124C1E0D0E002C0CC0FDD1F8A9513
:100E1000E2F7C22BD32BDA6868C0D82FCC27C46F77
:100E2000D06A63C0DC2FCC27C06FD06A5EC08F70E1
:100E30000E94F60794E0D695C7959A95E1F7CF7092
:100E4000D0E0DC2FCC27D06A8F70806EC82B4DC0CD
:100E5000C0E0D0E04AC0C1E8D0E447C0C3E8D0E475
:100E600044C0C2EED4E441C0C9EED4E43EC0CAEEF0
:100E7000D4E43BC0C5EBD4E438C0C6EBD4E435C001
:100E8000C3EBD4E432C0C4EBD4E42FC0C7EBD4E44A
:100E90002CC0CCECD4E429C0CDECD4E426C0C3E80B
:100EA000D5E423C0CAE8D5E420C0C2E9D5E41DC01A
:100EB000C4E9D5E41AC0C1E2D6E417C0C3E2D6E45F
:100EC00014C0C4E2D6E411C0C5E2D6E40EC0C6E246
:100ED000D6E40BC0C7E2D6E408C0CFE6D4E405C030
:100EE000C0E7D4E402C0CAE2D6E4CE01DF91CF91DC
:100EF00008958238910549F1B0F48133910509F4E0
:100F000058C048F48932910509F44EC08A329105DF
:100F100009F454C008958533910509F440C089331C
:100F2000910599F00895833E910529F138F4803EAA
:100F3000910591F0823E9105A1F00895863E9105BC
:100F4000F9F0873E910531F108952091330220FD9B
:100F50003AC021FD38C008958091330280FD35C02C
:100F600032C08091330282FF32C08091330284FD0F
:100F700030C083EE39C08091330282FD28C0F5CFA6
:100F80008091330283FF27C08091330284FD21C00A
:100F900087EE2AC08091330283FD1DC0F5CF80917A
:100FA000330285FD1AC01BC08091330285FD17C036
:100FB00014C08091330286FD14C015C080913302A5
:100FC00086FD11C00EC080EE0FC089E30DC082EE19
:100FD0000BC080E009C086EE07C089E205C085E34A
:100FE00003C08AE201C081E390E00895909133024A
:100FF00092FF0DC0282F2871283019F4877F846054
:1010000006C0282F2471243011F48B7F886093FF51
:101010000DC0282F2871283119F4877E846106C0FD
:10102000282F2471243111F48B7E886194FD877EF2
:101030000895E82FF0E0E55BFE4F80810895089564
:10104000A0E2B1E041E050E024E02A0F8D91E82FCA
:10105000E295EF70F0E031A18F70BA0102C0660F27
:10106000771F8A95E2F7CB01962F9095932391A352
:1010700092A1892B82A32A13E9CFADE1B1E041E02F
:1010800050E023E02A0F8D91E82FE295EF70F0E019
:1010900031A18F70BA0102C0660F771F8A95E2F7FF
:1010A000CB01962F9095932391A392A1892B82A394
:1010B0002A13E9CF10924F0110924B011092500168
:1010C00010924C011092510110924D011092520158
:1010D00010924E0184E00E94F6080C947A036F92FD
:1010E0007F928F929F92AF92BF92CF92DF92EF92B8
:1010F000FF920F931F93CF93DF9360E271E0AFE411
:10110000B1E0712C01E010E0D4E06D2E6A0E7D019B
:101110009C901C92EB018991BE01E82FE295EF7043
:10112000F0E091A18F70A80101C0440F8A95EAF701
:10113000892F842B81A392A1842F8095982392A339
:10114000D0EADA95F1F7CDE1CC2EC1E0DC2E20E03B
:1011500030E0E60199916E01A92EA2945FE0A522EC
:10116000B12CE501A8A08C90B12C9F7002C0B59461
:10117000A7949A95E2F7A0FC07C0902F022E01C019
:10118000990F0A94EAF701C090E098299C932F5F89
:101190003F4F23303105E9F691A1892381A382A134
:1011A000482B42A3119681E0F7019081991201C06A
:1011B00080E0782A6A12ABCF272D44E06BE471E01F
:1011C0008FE491E00E94F7080E948203872DDF914F
:1011D000CF911F910F91FF90EF90DF90CF90BF9034
:1011E000AF909F908F907F906F9008950895FF9299
:1011F0000F931F93CF93DF938C01F62ED72FC42F1D
:10120000222349F081E0809355010E94191D90939B
:10121000540180935301809155018823C1F080913E
:101220005301909154010E94251D069780F0EF2DE7
:10123000FD2FD8014C2F50E0CD01801B910B84175E
:1012400095071CF48D918193F7CF10925501DF9192
:10125000CF911F910F91FF900895CF92DF92EF925F
:10126000FF920F931F93CF93DF937B01282F382F8B
:10127000E82FF0E0F11006C0EF51FC4F6491762F9B
:10128000862F7BC00F2D10E046E0649FC001112423
:10129000CFEFD0E0BE010E944524AB016BEA6403AE
:1012A000C001659F900D11248E0D911D8E0D911D15
:1012B000982F990F890FBE01601B710B6E9FD00193
:1012C0006F9FB00D7E9FB00D11249B2F8F9DB0019D
:1012D0001124672F77277E01E61AF70AEE9EB001E8
:1012E000EF9E700DFE9E700D11246E01C81AD1087C
:1012F000C09E7001C19EF00CD09EF00C11240F2DE9
:101300001127C01BD10BCE9F8001CF9F100DDE9FF8
:10131000100D1124812F4230510591F04CF44115EC
:101320005105E1F041305105B9F4822F272F16C045
:101330004430510569F044F04630510579F00CC055
:10134000822F2B2F912F0AC02B2F932F872F06C070
:101350008B2F922F212F02C08B2F972FE22FF0E09F
:10136000EF51FC4F7491E82FF0E0EF51FC4F649186
:10137000E92FF0E0EF51FC4F8491DF91CF911F9165
:101380000F91FF90EF90DF90CF9008950895CF9345
:10139000DF93762FE901682F842F0E942D0979832E
:1013A00068838A83DF91CF91089580910902282F65
:1013B000269530E02115310519F48170826005C051
:1013C0002532310524F081708864809309020895E4
:1013D00088E090E00C948824CF93DF9300D000D075
:1013E000CDB7DEB7AB01BC0149835A836B837C83E5
:1013F0000E94D50949815A816B817C8188E090E007
:101400000F900F900F900F90DF91CF910C94A62426
:10141000E9E0F2E083E0808311828FEF82838383AF
:10142000148260817181828193810C94EC09809196
:10143000090280FF02C08695089580E0089580919A
:101440000D02833018F48F5F80930D0260910902C2
:1014500070910A0280910B0290910C020C94EC099D
:1014600080910D02882319F0815080930D026091C4
:10147000090270910A0280910B0290910C020C9467
:10148000EC096091040170E08091090280FF0AC0BC
:1014900080915A0123E0829FC0011124825F9D4FF9
:1014A0000C94370F8091590190910301891780F7AF
:1014B000E82FF0E09F01220F331FE20FF31FE25FDE
:1014C000FD4F1182108212828F5FF0CF909109023E
:1014D00090FF16C09091590120910301921770F46A
:1014E000E92FF0E0DF01AA0FBB1FEA0FFB1FE25F4D
:1014F000FD4F8183608342839F5FF0CF0C94410A4C
:101500000895CF93DF9300D01F92CDB7DEB79091AF
:10151000090290FF0AC09E012F5F3F4F0E94C7093A
:101520004B8169818A810E94660A0F900F900F900B
:10153000DF91CF910895CF93DF93EC01EC81F0E040
:10154000E452FD4F4491E9E0F2E0628181810E9422
:10155000810A8C818F5F8C83DF91CF910895CF9327
:10156000DF93EC01E9E0F2E0438162818C810E942B
:10157000810A8C818F5F8C83DF91CF9108950F93C7
:101580001F93CF93DF9300D01F92CDB7DEB78C01AE
:101590008091560181110AC09E012F5F3F4F4FEF8E
:1015A0006FEF0E94C7098A8180935601F8018481F8
:1015B000813051F028F0823061F4409156010AC028
:1015C0008091560140E007C06091560140E080E004
:1015D00003C040E080E060E00E94660AF8012481D8
:1015E00030E0C901019663E070E00E9459248483D1
:1015F0000F900F900F90DF91CF911F910F91089551
:10160000AF92BF92CF92DF92EF92FF920F931F9310
:10161000CF93DF9300D01F92CDB7DEB7182FF62EF1
:10162000042FE22E9091090290FF6EC0E92FE695FB
:10163000AE2FB0E0AC5DBE4F8C91809362019E7F77
:10164000923061F49E012F5F3F4F812F0E94C709A6
:101650004B8169818A810E94660A44C0823019F4F4
:1016600000910C023FC0863019F410910A023AC072
:101670008930D9F38931B1F5E9518E2F8170D82E97
:10168000E695F0E0E452FC4FA590B490C12CBB2449
:1016900060910201C61620F5EC2DF0E0EA9DC00134
:1016A000EB9D900DFA9D900D112470E00E94452451
:1016B000812FD11002C0860F01C0861B9091590165
:1016C000E90FF11D9F01220F331FE20FF31F9F014E
:1016D000225F3D4F402F6F2D0E94C709C394D8CF82
:1016E0000E94410A10930A02F0920B0200930C022E
:1016F000EE2051F06091090270910A0280910B0274
:1017000090910C020E94EC090F900F900F90DF91C6
:10171000CF911F910F91FF90EF90DF90CF90BF90EE
:10172000AF900895E9E0F2E09181282F4381628132
:1017300088E0890F0C94000B81E00C94920BE9E097
:10174000F2E09181282F4381628188EF890F0C9408
:10175000000B81E00C949F0BE9E0F2E0628128E04D
:10176000620F08F46FEF282F438181810C94000BE6
:1017700081E00C94AC0BE9E0F2E0628128E0621BAE
:1017800008F460E0282F438181810C94000B81E0F4
:101790000C94BB0BE9E0F2E0438128E0420F08F42F
:1017A0004FEF282F628181810C94000B81E00C9413
:1017B000CA0BE9E0F2E0438128E0421B08F440E074
:1017C000282F628181810C94000B81E00C94D90B4D
:1017D00020E00C94000BFF920F931F93CF93DF93A5
:1017E000EC01F12C0FEF10E060910201F616E8F425
:1017F0002091590130E02F0D311DC901880F991F2B
:10180000280F391F225F3D4F70E0C8010E94592404
:10181000962F8C8140910C0260910B02F99E800DF5
:1018200011240E94C709F394DFCF0E94410A9A81D4
:101830008C8190FF02C08F5F01C081508C83DF914B
:10184000CF911F910F91FF900895BF92CF92DF9299
:10185000EF92FF920F931F93CF93DF93FC0182814E
:1018600080FF02C00FEF01C001E010E08091020193
:101870001817E0F5C12ED12C80915901E601C80F4F
:10188000D11DCE01880F991FC80FD91FC25FDD4F30
:10189000198218821A8234E0E32EF12CB12C809147
:1018A00058018B0D87FF03C090910201890F082E0C
:1018B000000C990BC816D90691F480910C028E9DEC
:1018C000A0018F9D500D112455954795559547952D
:1018D0009E0160910B0280910A020E94C709B00E1E
:1018E000F1E0EF1AF108D9F61F5FC0CF0E94410A5C
:1018F00080915801013031F4811102C080910201C0
:10190000815007C090E001966091020170E00E9452
:10191000592480935801DF91CF911F910F91FF902F
:10192000EF90DF90CF90BF900895CF9380915901B1
:1019300090910301891770F4E82FF0E09F01220FC6
:10194000331FE20FF31FE25FFD4F118210821282FC
:101950008F5FF0CFC0E060910201C617B8F5EC2FA1
:10196000F0E070E0CF010E94592440915901480FE6
:1019700080915701082E000C990B50E0E817F907E9
:10198000C4F020910101022E000C330B2E173F07EB
:1019900084F09A01220F331F240F351F225F3D4F21
:1019A00040910C0260910B0280910A020E94C709CB
:1019B0000BC0FA01EE0FFF1F4E0F5F1FFA01E25F2F
:1019C000FD4F118210821282CF5FC5CF0E94410A63
:1019D0002091000180915701820F809357019091CF
:1019E0000101920F9093010119165CF4082E000C6E
:1019F000990B4091020150E041505109841795071D
:101A00001CF0219520930001CF9108950F931F930F
:101A1000CF93DF938C01FC018481958101968170C5
:101A2000992795838483C0E0D5E580910201C8178A
:101A3000F8F42091590130E02C0F311DC901880FB5
:101A4000991F280F391F225F3D4F4C2F4695F801F3
:101A500084819581840F911D817040910C02609169
:101A60000B028D9F802D11240E94C709CF5FDDCF0F
:101A7000DF91CF911F910F910C94410A0F931F9307
:101A8000CF93DF93EC0100E010E080910201282F5A
:101A900030E00217130724F5909159019801290F9E
:101AA000311DA901440F551F240F351F225F3D4FE3
:101AB000869590E04C81081719071CF4442331F0F7
:101AC00002C0411103C040910C0201C040E060918E
:101AD0000B0280910A020E94C7090F5F1F4FD5CFEA
:101AE0000E94410A2C8130E02F5F3F4F2170332745
:101AF0002C83DF91CF911F910F910895E9E0F2E0DF
:101B000080818E7F808360817181828193810E9438
:101B1000EC09109263012FEF80E792E021508040A2
:101B20009040E1F700C000000C94410AE9E0F2E0C7
:101B300080818E7F8083109263012FEF80E792E097
:101B4000215080409040E1F700C000000C94410A11
:101B500060910902669570E04BE050E085E091E00D
:101B60000E947324892B19F481E0809363010E9401
:101B7000191D90935C0180935B0108959091090277
:101B800090FF35C09170811102C0926006C085320D
:101B900010F0986402C0880F982B90930902662376
:101BA00051F06091090270910A0280910B029091AC
:101BB0000C020E94EC0960910902669570E04BE00E
:101BC00050E085E091E00E947324892B19F0109277
:101BD000630102C00E94A80D81E080935E014091E4
:101BE0000C0260910B0280910A020C94E80B08959C
:101BF000682F90910902969581E0890F853208F04F
:101C000081E00C94BE0D81E00C94F80D682F90914A
:101C1000090296958FEF890F09F484E20C94BE0DAA
:101C200081E00C94060E61E00C94BE0DE9E0F2E058
:101C300080818160808386950C94130E80910902C7
:101C400080FD0C947E0D0C94160E60E00C94BE0D7D
:101C500080916101811133C08091E20181608093A4
:101C6000E2010E94701B811104C00E94EA1B0E94C5
:101C7000080A0E94E8096093090270930A0280939F
:101C80000B0290930C026E7F61F40E94080A0E947E
:101C9000E8096093090270930A0280930B02909303
:101CA0000C020E94D509109263018091090280FF05
:101CB00003C086950E94250E81E0809361010895FE
:101CC000E9E0F2E080818160808386950C94250EA6
:101CD0001092630108950F931F93CF93DF93809128
:101CE0006301882309F48CC080916201E0910902AC
:101CF000E695E81BE0935D01823049F4F0E0E8529C
:101D0000FD4FE491CE2FD0E00BE91AE049C08630B8
:101D100049F4F0E0EB52FD4FE491CE2FD0E00FEA12
:101D20001AE03EC0893051F4E695F0E0EE52FD4FE6
:101D3000E491CE2FD0E00BEE1BE032C08F3051F497
:101D4000E695F0E0E153FD4FE491CE2FD0E005E2BF
:101D50001CE026C0853149F4F0E0E453FD4FE491E6
:101D6000CE2FD0E005E91CE01BC0883181F0833222
:101D700039F4EAECF2E0C591D4910FEB1AE010C00F
:101D8000843251F4C4EFD1E00EE31DE009C0C8EE87
:101D9000D3E006E01DE004C0C0EDD7E006EC19E09A
:101DA00080915E01882389F010925E010E94191DC6
:101DB0009E0120953095820F931F90935C01809334
:101DC0005B011092600110925F0180915B01909124
:101DD0005C010E94251D8C179D0790F0E0915B012E
:101DE000F0915C01CE0FDF1FD0935C01C0935B01CB
:101DF0008BE591E0F801DF91CF911F910F9109944C
:101E0000DF91CF911F910F91089521B3342F309519
:101E1000232331B3432B3FB7F894FC01680F791F9C
:101E2000E617F70789F0819198E041BB000000C0F8
:101E300087FF21BB880F000000C000C000C021BB8D
:101E400000C09A9591F7ECCF3FBF089520B3242BA3
:101E500020BB9B01220F331F620F731F0E94050FCF
:101E600087EC90E00197F1F700C00000089540E191
:101E70000C94260F0F931F93CF93DF93C62FD42F6D
:101E8000022FFC0182818823C9F0609366010E94C1
:101E9000191D909365018093640180E28C0F883056
:101EA00008F050C0C77081E001C0880FCA95EAF7FA
:101EB000DF91CF911F910F910C94C2121091660186
:101EC000161330C080916401909165010E94251D18
:101ED000883C910538F5C0E2CD0F1D17B9F080E2BE
:101EE000810F883040F4177081E001C0880F1A9587
:101EF000EAF70E94C912C83048F481E09D2F97701C
:101F000001C0880F9A95EAF70E94C212802F0E94A2
:101F1000AF12C830B8F4D77081E001C0880FDA95ED
:101F2000EAF70AC080E28C0F883060F4C77081E065
:101F300001C0880FCA95EAF7DF91CF911F910F91E9
:101F40000C94C912DF91CF911F910F9108959C01BC
:101F5000CB01203F4CE53407F9F078F4283DFCE54F
:101F60003F07B9F0293D4CE5340711F1273D3C45C9
:101F700031F526E241EE61EE1EC0223FFCE53F074F
:101F800099F070F0233F3C45D1F427E245EE66EE30
:101F900012C027E245EE0EC026E241EE60EE0BC015
:101FA00027E245EE64EE07C026E241EE62EE03C092
:101FB00028E241E065EE0E943A0F80E00895FC01BE
:101FC0008281882319F010926601089581E00895B6
:101FD00090936C0180936B010895E0916B01F091F7
:101FE0006C01309721F00190F081E02D099480E0A0
:101FF0000895E0916B01F0916C01309799F0209178
:102000001C01222359F02091330227FF07C0DC0175
:102010002C9111962C93119725E02C930280F3813B
:10202000E02D099408952091690130916A01821789
:10203000930771F090936A0180936901E0916B01BD
:10204000F0916C01309721F00680F781E02D099422
:10205000089520916701309168018217930771F00C
:102060009093680180936701E0916B01F0916C019E
:10207000309721F00084F185E02D0994089585B70B
:10208000806885BF85B7806885BF089508950895E5
:102090000C94471008950C944A100E943F100E941F
:1020A00046100C94481081E008950E94101D0E9473
:1020B00020080E94991D0E94280E0C944B10CF926C
:1020C000DF92EF92FF920F931F93CF93DF93CDB7E1
:1020D000DEB72B970FB6F894DEBF0FBECDBF0E94C0
:1020E0006F080E945310811111C08FEF89838A837A
:1020F0001B820E94191D8160782F9D838C834981EA
:102100005A816B818D810E94051156C08EE6C82EC2
:1021100081E0D82E00E010E0E02E802F0E94190808
:10212000F60141916F01F42EF82631F40F5F1F4F35
:102130000430110589F7D9CF9091E20191FF04C0D5
:102140008B870E941F088B8520E030E04F2D50E0E8
:10215000922FBA01022E02C0759567950A94E2F794
:1021600060FF24C02E83EF8221E030E0690102C0CD
:10217000CC0CDD1C9A95E2F790E08C219D21892BF7
:1021800009F420E028870E94191D8160782F9A8722
:1021900089874E815F8168858A850E940511F801D3
:1021A000E259FE4F8081C826C08206C02F5F3F4F94
:1021B0002330310569F6BACF10916D010E94ED0F01
:1021C0001817A1F00E94ED0F80936D012B960FB6AA
:1021D000F894DEBF0FBECDBFDF91CF911F910F915D
:1021E000FF90EF90DF90CF900C9486032B960FB664
:1021F000F894DEBF0FBECDBFDF91CF911F910F913D
:10220000FF90EF90DF90CF900895CF93DF93CDB7FD
:10221000DEB72B970FB6F894DEBF0FBECDBF4F834E
:10222000588769877A878B87DE01119686E0FD01E2
:1022300011928A95E9F785E0FE01379601900D929B
:102240008A95E1F749815A816B817C818D819E81DC
:102250000E94B5172B960FB6F894DEBF0FBECDBF08
:10226000DF91CF910895FC01808191810E94811AB4
:102270000895882309F413C1682F8238C1F40E949D
:10228000ED0F81FD0CC169E3809110019091110166
:102290000E94511C0E940C1B2FEF81EE94E02150F4
:1022A00080409040E1F700C0000069E319C0833826
:1022B000F9F40E94ED0F80FDF2C063E580911001FA
:1022C000909111010E94511C0E940C1B2FEF81EE76
:1022D00094E0215080409040E1F700C0000063E5A9
:1022E00080911001909111010E945C1C0C940C1BB8
:1022F0008438C1F40E94ED0F82FDD1C067E4809163
:102300001001909111010E94511C0E940C1B2FEF93
:1023100081EE94E0215080409040E1F700C0000041
:1023200067E4DECF8CEF860F813A38F4809110019C
:10233000909111010E94511CD9CF80E2860F883004
:1023400048F4677081E001C0880F6A95EAF70E943F
:10235000C31ACCCF8BE5860F833070F4653A29F031
:10236000663A31F083E890E005C081E890E002C071
:1023700082E890E00C94131088E5860F873108F00E
:102380008EC0683A09F445C0693A09F445C06A3A12
:1023900009F445C06B3A09F445C06C3A09F445C0EC
:1023A0006B3B09F445C06C3B09F445C06D3A09F438
:1023B00045C0603B09F445C06E3A09F445C06F3A28
:1023C00009F445C0613B09F445C0623B09F445C0CE
:1023D000633B09F445C0643B09F445C0653B09F41F
:1023E00045C0663B09F445C0673B09F445C0683BFE
:1023F00009F445C0693B09F445C06D3B09F445C08B
:102400006E3B09F445C06A3B09F445C080E090E0AA
:1024100044C082EE90E041C089EE90E03EC08AEE7A
:1024200090E03BC085EB90E038C086EB90E035C093
:1024300083EB90E032C084EB90E02FC087EB90E01C
:102440002CC08CEC90E029C08DEC90E026C083E895
:1024500091E023C08AE891E020C082E991E01DC0AC
:1024600084E991E01AC081E292E017C083E292E031
:1024700014C084E292E011C085E292E00EC086E2D0
:1024800092E00BC087E292E008C08FE690E005C0C2
:1024900080E790E002C08AE292E00C94291008954F
:1024A000882309F45BC0682F823879F40E94ED0F0D
:1024B00081FF54C069E380911001909111010E9445
:1024C000511C0E940C1B69E310C08338B1F40E94B8
:1024D000ED0F80FF43C063E58091100190911101E1
:1024E0000E94511C0E940C1B63E580911001909189
:1024F00011010E945C1C0C940C1B843879F40E941E
:10250000ED0F82FF2BC067E48091100190911101C3
:102510000E94511C0E940C1B67E4E7CF8CEF860FD2
:10252000813A18F380E2860F883048F4677081E0C2
:1025300001C0880F6A95EAF70E94C91ADCCF8BE5C3
:10254000860F833020F480E090E00C941310685ADA
:10255000673120F480E090E00C9429100895CF9327
:10256000C82F0E943911C93349F42FEF83EC99E049
:10257000215080409040E1F700C000008C2FCF91A7
:102580000C945012882321F00E94C31A0C940C1B47
:102590000895882321F00E94C91A0C940C1B0895F9
:1025A0004F925F926F927F92BF92CF92DF92EF92A3
:1025B000FF920F931F93CF93DF937C01062FC72FBA
:1025C000FC01D581D295DF70128111110E94E01AB1
:1025D0000E94B91A882379F0112369F080E2800FF4
:1025E000883048F082E00E94571B0E94B91A91E09F
:1025F000B82EB92601C0B12CCC2EC2948FE0C822CF
:10260000D12CF601E859FF4F0C946D248C2F807F5C
:10261000CF70882311F0C295C07F112399F0CC238D
:1026200009F461C180E2800F883010F0011104C00C
:102630008C2F0E94C31A03C08C2F0E94D31A0E94B1
:102640000C1B51C1802F0E945012CC2309F470C181
:1026500080E2800F883010F0011104C08C2F0E949E
:10266000C91A03C08C2F0E94D91A0E940C1B60C18A
:102670008C2F807FCF70803211F0C295C07F0023F5
:1026800019F00130C9F022C0112371F0DD2341F0AF
:10269000D13031F40E94F31A8C2B0E94F91A48C1F0
:1026A0000E94F31A8C2B1DC0DD2319F0D13009F4E0
:1026B0003FC10E94021B1AC0112321F0D63008F03E
:1026C00037C10EC0D53008F033C110C0112361F0FE
:1026D000DD2331F0F701858180FF05C18F7085838F
:1026E0008C2F0E94C21224C1D1110EC18C2FBAC0EE
:1026F0008C2F837009F04BC0111126C1202F229519
:1027000026952770220F220F602F6F70862F90E082
:10271000A0E0B0E02C013D01022E04C0440C551C89
:10272000661C771C0A94D2F704FF10C08FE090E07B
:10273000A0E0B0E004C0880F991FAA1FBB1F2A9514
:10274000D2F780959095A095B09503C080E090E079
:10275000DC01C695C695C370D0E0BC01CD016429EB
:10276000752986299729C230D10559F0C330D10582
:1027700059F0219719F00E94FA18E6C00E94E81853
:10278000E3C00E940C19E0C00E94E618DDC01123CE
:1027900019F08C2F817001C08695882309F4D4C06C
:1027A000202F229526952770220F220F602F6F7001
:1027B000862F90E0A0E0B0E02C013D01022E04C085
:1027C000440C551C661C771C0A94D2F704FF10C0F9
:1027D0008FE090E0A0E0B0E004C0880F991FAA1F2E
:1027E000BB1F2A95D2F780959095A095B09503C010
:1027F00080E090E0DC01C695C695C370D0E0BC01D6
:10280000CD016429752986299729C230D10559F04F
:10281000C330D10559F0219719F00E94C01994C016
:102820000E94AE1991C00E94D2198EC00E94211937
:102830008BC0802F90E0FC01E05EF109E531F105ED
:1028400008F04DC0E858FF4F0C946D240F708C2F8A
:102850008F71112321F00E944719802F42CF0E94CF
:102860006819802F0E94C91263C0112341F0D5302E
:1028700008F05EC08C2F8F710E948D1959C0D63020
:1028800008F056C0F7CF112339F08C2F8F710E94BA
:1028900047194EC01123C9F38C2F8F710E946819FC
:1028A00047C0112329F08C2F8F710E94321940C02C
:1028B0000E942D193DC0112349F0CF718C2F0E9429
:1028C000471963E08C2F0E94421B32C081E00E94B6
:1028D000571BD23068F182E00E94571B29C0112398
:1028E00031F0DD2391F2802F0E94391121C0DD23C8
:1028F00099F2093349F4FFEF23EC89E0F1502040CD
:102900008040E1F700C00000802F0E94501210C0EC
:102910004C2F4F70602FC7010E9436030E94591838
:1029200017C04C2F4F70602FC7010E94A30510C025
:1029300098E0C916D10441F05CF0FAE0CF1AD10852
:1029400022E0C216D10420F40E94ED0F0E948603FB
:10295000BB20F1F00E94B51A80FD1AC0F701128267
:102960000E94AF1A0E944719C7010E94D6140E9404
:10297000AF1ADF91CF911F910F91FF90EF90DF90F1
:10298000CF90BF907F906F905F904F900C9468199C
:10299000DF91CF911F910F91FF90EF90DF90CF903B
:1029A000BF907F906F905F904F9008950F931F930B
:1029B000CF93DF93EC01888199812B813C81232B7C
:1029C000B9F09F3F11F48F3F99F0CE010E94980318
:1029D000882371F0688179818A810E948C1A8C0128
:1029E0000E94E4190E94E518B801CE010E94D0129D
:1029F000DF91CF911F910F9108950E94E01A0E94DC
:102A0000F01A0C940C1B80911001909111010E94FE
:102A1000671C0C94FD140E94D01A0C940315E92F26
:102A2000E295EF70F0E03297EE30F105B0F4E35745
:102A3000FF4F0C946D24803F91F018F4803E68F4B1
:102A40000EC0843F51F40BC0803E48F0813F29F412
:102A500006C093FB882780F9089580E0089581E0FF
:102A600008950E94811A0E940F150895CF93DF9355
:102A700000D000D01F92CDB7DEB70F900F900F900F
:102A80000F900F90DF91CF910895CF93DF9300D0F7
:102A900000D000D0CDB7DEB726960FB6F894DEBFD3
:102AA0000FBECDBFDF91CF9108951F93CF93DF93DA
:102AB000C091730116E080917401C81799F0D0E0BD
:102AC0001C9FF0011D9FF00D1124EB58FE4F40811B
:102AD000518162817381848195810E94451521967F
:102AE000C770E9CFDF91CF911F9108954091A50163
:102AF0005091A6016091A7017091A8018091A90150
:102B00009091AA010C9445158091AA0182958F702D
:102B100009F054C08091A701882309F44FC0809127
:102B20007301A09174016091A5017091A60140917B
:102B3000A8015091A901B6E08A1709F43FC090E0BE
:102B400041155105C1F17F3F11F46F3FA1F1B89FCD
:102B5000F001B99FF00D1124EB58FE4F2181721343
:102B60002AC02081621327C02281211124C0238121
:102B700034812417350710F421503109241B350BFB
:102B8000283C3105C0F42091AA012F7020612093C8
:102B9000AA0126E0289FF001299FF00D1124E65894
:102BA000FE4F80818F708061808385EA91E00E9472
:102BB000D6140C94551501968770BECF0895CF9208
:102BC000DF92EF92FF920F931F93CF93DF93CDB7D6
:102BD000DEB762970FB6F894DEBF0FBECDBF8C0193
:102BE00085E0F801DE011D9601900D928A95E1F7CE
:102BF000D8014C9111965C91119712966C91129795
:102C00001396CD90DC9014973091A5017091A60198
:102C10008091A8019091A901009709F46BC17F3FB1
:102C200019F43F3F09F466C1E090A701EE2009F4D2
:102C3000C0C02091AA01C816D90628F0F601E81BE9
:102C4000F90BCF0104C0809590958C0D9D1DFF243C
:102C5000F394883C910578F0F12C207F09F0C6C0F0
:102C60007C2DD98AC88A89890E94361585EA91E027
:102C70000E94D614B1C0822F807F09F046C0751320
:102C800014C0341312C0611110C02F702061209342
:102C9000AA010E94761585EA91E00E94D6148091DF
:102CA000AA01D80115968C932EC0CD2819F15F3F4B
:102CB00011F44F3FF9F0F62E61111CC080917301A1
:102CC0002091740136E0821709F45AC090E0389FD1
:102CD000F001399FF00D1124EB58FE4F718157130D
:102CE00006C07081471303C07281711103C0019641
:102CF0008770E9CFF62E662309F427C18091AA01D7
:102D000081608093AA01F12C20C1751308C034138F
:102D100006C0611104C08091AA01D801C3C04D87CB
:102D20005E878D859E856A8B0E9431156A8988230E
:102D3000E1F16623D1F12091AA01822F82958F7053
:102D400090E0029774F08091A5019091A601988778
:102D50008F831986DB86CA862C87CE0107960E9450
:102D6000D61486E0F801A5EAB1E001900D928A95AB
:102D7000E1F70E9484150E947615FF24F394E5C0C4
:102D80004D875E878D859E850E94811A292F229509
:102D90002F7030E0223031050CF0CBC09F7009F06D
:102DA000C5C0805E883008F4D0C0C8010E94D61427
:102DB000E4CFC816D90608F453C0F601E81BF90B96
:102DC000CF01883C910508F450C0F12C7C2DD98AA4
:102DD000C88A89890E943615E5EAF1E086E0DF01BC
:102DE0001D928A95E9F70E947615AFC0751314C03D
:102DF000341312C0611110C08091AA01F8018583BB
:102E0000C8010E94D61486E0E5EAF1E0DF011D92D8
:102E10008A95E9F7FE2C99C04D875E878D859E8542
:102E20006A8B0E9431156A89882309F4BECF662314
:102E300009F4BBCF2091AA01822F82958F7090E078
:102E400002970CF48ECF8091A5019091A6019A83F0
:102E500089831B82DD82CC822E83CE0101967FCFB7
:102E6000809590958C0D9D1DACCFF62E662309F4B0
:102E70009CCF75132EC034132CC02091AA0120FDC5
:102E80001FC0822F82958F70D9F0D80115962C9390
:102E900015978F3049F08F5F982F9295907F822FF2
:102EA0008F70892B15968C93C8010E94D61486E0EA
:102EB000F801A5EAB1E001900D928A95E1F793CF70
:102EC00086E0F801A5EAB1E001900D928A95E1F75C
:102ED0003CC04D875E878D859E850E94311581118E
:102EE00040CF8091AA0181608093AA01C8010E940D
:102EF000D6142BC0662309F458CF4D875E878D8585
:102F00009E850E943115F82E882309F44ECF86E065
:102F1000F801A5EAB1E001900D928A95E1F785EA02
:102F200091E00E9433110E9484155DCF811139CF49
:102F30000CC0243031050CF038CF9F7009F431CF2C
:102F4000F8019581907F09F02CCF8F2D62960FB6F6
:102F5000F894DEBF0FBECDBFDF91CF911F910F91CF
:102F6000FF90EF90DF90CF9008951F93CF93DF9362
:102F7000CDB7DEB72C970FB6F894DEBF0FBECDBF2E
:102F80004F83588769877A878B879C87CE010796FE
:102F90000E94DF15882369F08F8198852A853B85FB
:102FA000232BF1F19F3F09F063C08F3F09F060C010
:102FB00037C086E0FE013796DE01119601900D9232
:102FC0008A95E1F76F817885EA85FB85309741F135
:102FD0007F3F11F46F3F21F12091740130E0C9016E
:102FE0000196877099274091730150E084179507E7
:102FF00009F447C069837A83FD83EC8396E0929F4E
:10300000D001939FB00D1124AB58BE4FFE013196F5
:1030100001900D929A95E1F7809374010E945515E5
:1030200016E080917301909174018917C1F1189F86
:10303000C00111248B589E4F0E94DF15882379F11F
:10304000E09173011E9FF0011124EB58FE4F408167
:10305000518162817381848195810E94451580919F
:10306000730190E001968770992780937301D9CFFF
:103070004F81588569857A858B859C850E94451589
:10308000CFCF0E940B151092740110927301E5EAE4
:10309000F1E086E0DF011D928A95E9F7C1CF2C9619
:1030A0000FB6F894DEBF0FBECDBFDF91CF911F9159
:1030B0000895EF92FF920F931F93CF93DF938C01AC
:1030C000892B09F46CC0F12CEE24E394E8012196DD
:1030D000F8018491843740F4843008F051C0813085
:1030E00081F0823019F15BC0853709F444C0A8F142
:1030F0009CE7980F903708F052C08F770E945012CB
:1031000041C00E5F1F4FFE01C49180E28C0F8830DA
:1031100048F4C7708E2D01C0880FCA95EAF70E9447
:10312000E31A14C08C2F0E9439112DC00E5F1F4F5F
:10313000FE01C49180E28C0F883058F4C7708E2D48
:1031400001C0880FCA95EAF70E94E91A0E940C1B79
:103150001AC08C2F0E94501216C00E5F1F4FFE0126
:10316000C491CC2381F08FE99FE00197F1F700C073
:103170000000C150F6CF0E5F1F4FFE01F49003C058
:103180000E9439118E018F2D882309F49FCFEFE91A
:10319000FFE03197F1F700C000008150F5CFDF91DB
:1031A000CF911F910F91FF90EF90089508950C9487
:1031B000D6180E94D7186093B9017093BA01809312
:1031C000BB019093BC010C94FD1408950C94D91884
:1031D0000F931F930091B9011091BA012091BB0187
:1031E0003091BC01602B712B822B932B1F910F917F
:1031F0000C94D9180F931F930091B9011091BA0143
:103200002091BB013091BC01602371238223932361
:103210001F910F910C94D9180F931F930091B9012E
:103220001091BA012091BB013091BC016027712738
:10323000822793271F910F910C94D91808950C940D
:103240001E190E941F196093B5017093B6018093F7
:10325000B7019093B8010C94FD1460E070E0CB01CD
:103260000C9421190F931F9341E050E060E070E04F
:103270008A019B0104C0000F111F221F331F8A9572
:10328000D2F7C901B8011F910F910C9421190F9326
:103290001F9341E050E060E070E004C0440F551F10
:1032A000661F771F8A95D2F78091B5019091B6017C
:1032B000A091B701B091B8018A019B01082B192B8D
:1032C0002A2B3B2BC901B8011F910F910C94211996
:1032D0000F931F9341E050E060E070E004C0440FA2
:1032E000551F661F771F8A95D2F7409550956095B8
:1032F00070958091B5019091B601A091B701B09100
:10330000B8018A019B01082319232A233B23C90101
:10331000B8011F910F910C9421190F931F9341E055
:1033200050E060E070E004C0440F551F661F771F37
:103330008A95D2F78091B5019091B601A091B7011D
:10334000B091B8018A019B01082719272A273B273A
:10335000C901B8011F910F910C9421190F931F936C
:103360000091B5011091B6012091B7013091B801DB
:10337000602B712B822B932B1F910F910C94211991
:103380000F931F930091B5011091B6012091B701E1
:103390003091B80160237123822393231F910F91F1
:1033A0000C9421190F931F930091B5011091B60150
:1033B0002091B7013091B8016027712782279327A8
:1033C0001F910F910C9421190895292F220F920F0C
:1033D000890FA82FA695A695A695877051E001C0E4
:1033E000550F8A95EAF785E0A89FD001112420E0C7
:1033F00030E070E0F901EA0FFB1FE555FE4F408118
:10340000CB01022E02C0969587950A94E2F781704F
:103410009927819584278523842780832F5F3F4FB9
:103420002530310539F70895292F220F920F890F82
:10343000682F669566956695982F977085E0689FCA
:10344000B001112440E050E080E0FA01E60FF71FE0
:10345000E555FE4F208130E0092E02C036952795B4
:103460000A94E2F721703327042E01C0220F0A9438
:10347000EAF7822B4F5F5F4F4530510531F70895D2
:10348000BF92CF92DF92EF92FF920F931F93CF9351
:10349000DF938C01C090B901D090BA01E090BB01DC
:1034A000F090BC018091B5019091B601A091B70157
:1034B000B091B801C82AD92AEA2AFB2ACFE1D0E084
:1034C000D701C6010C2E04C0B695A7959795879590
:1034D0000A94D2F780FF07C0BC2EB8018C2F0E943F
:1034E000C205019719F4219758F7B12C8B2DDF9164
:1034F000CF911F910F91FF90EF90DF90CF90BF90F1
:103500000895CF93DF93EC010E94401ABE010E9400
:10351000C205DF91CF9108951F93CF93DF93EB0105
:1035200090917201992321F0CB010E94811A13C05E
:10353000882349F0CB010E94401A182F682FCE0132
:103540000E94E51904C0CB010E94141A182FBE0175
:10355000812F0E94C205DF91CF911F910895809124
:10356000BD0185958595859508958091BD018770EC
:1035700008959091BD01977081E009F480E008956D
:103580008091E10108959091E101892B8093E101FF
:10359000089580959091E10189238093E101089538
:1035A0001092E10108959091E001892B8093E00150
:1035B000089580959091E00189238093E00108951A
:1035C0001092E00108959091DF01892B8093DF0133
:1035D000089580959091DF0189238093DF010895FC
:1035E0001092DF0108958091BE01089508950C9412
:1035F000F61A9091BE01981721F08093BE010C94A9
:10360000F71A08958091BE01882329F01092BE0117
:1036100080E00C94F71A0895E0911001F0911101E7
:103620008091E1018083E0911001F091110190817E
:103630008091E001892B8083E0911001F0911101CC
:1036400090818091DF01892B80838091BE01882346
:1036500081F0E0911001F09111019081892B80831C
:1036600080911001909111010E94EC1B81110E9428
:10367000021B80911001909111010C94F90F089593
:103680000C943F1B98E0899F90011124262B2093D6
:10369000BD010E9447198091BD018595859585954D
:1036A0000C94401B1092BD0180E00C94401B2091B3
:1036B000BD01809582238093BD01982F977079F486
:1036C00030E0482F082E000C550B2417350739F031
:1036D0008595859585950E9468190C94521B0895CF
:1036E00080E090E00E948E2421E08D3E9E4F09F004
:1036F00020E0822F089582E090E00C94802483E003
:1037000090E00C94802484E090E00C948024682F56
:1037100084E090E00C949424AB01BC018FE090E035
:103720000C94A624AB01BC0183E190E00C94A62488
:1037300060E070E0CB010C94921B60E070E0CB0184
:103740000E948C1B0C94981B6DEE7EEF80E090E045
:103750000E94B22460E082E090E00E94942460E045
:1037600083E090E00E9494241092B9011092BA0173
:103770001092BB011092BC0160E084E090E00E94D6
:10378000942460E085E090E00E94942460E086E06C
:1037900090E00E9494246FEF87E090E00E949424D0
:1037A00040E050E0BA0188E090E00E94A62460E08A
:1037B0008DE090E00E94942440E050E0BA0188E15E
:1037C00090E00E94A62460E087E190E00E949424AB
:1037D0000C949D1B0C94A41BFC01329680911C013F
:1037E000882331F08091330287FF02C09EE101C03F
:1037F00096E080E0915028F021912223D9F38F5F49
:10380000F9CF08959C01FC0132969FEF80E0419131
:10381000461789F09F3F19F4411101C0982F8F5F1F
:103820008630A9F79F3F39F0F901E90FF11D97FDA7
:10383000FA95628308950895FC01329608962081D6
:10384000261301C010823196E817F907C1F70895D1
:10385000262F2695269526952E3168F4FC01E20F39
:10386000F11D677021E030E001C0220F6A95EAF790
:103870008281282B22830895262F2695269526952A
:103880002E3170F4FC01E20FF11D677021E030E091
:1038900001C0220F6A95EAF72095828128232283AE
:1038A000089520911C01222329F02091330227FD45
:1038B0000C94281C0C94021C20911C01222329F03A
:1038C0002091330227FD0C943C1C0C941C1C20916D
:1038D0001C01FC013296222331F08091330287FFD4
:1038E00002C08EE101C086E0DF011D928A95E9F7F2
:1038F000089508950C94791C0E947A1C80913902D5
:10390000843009F439C01092E30120E488E190E0AA
:103910000FB6F894A895809360000FBE20936000C6
:1039200080E00E9486030E94680E8091E40181116C
:103930000AC081E08093E401809109028170809344
:10394000E5010E94960D0E947A1C83B7817F8460F6
:1039500083BF83B7816083BF7894889583B78E7F58
:1039600083BF0FB6F894A89580916000886180931A
:103970006000109260000FBE089508950895CF93DF
:103980000E94BD1C0E946F080E94BE1CC0E08C2FCC
:103990000E941908811104C0CF5FC430C1F701C073
:1039A00081E0CF91089508950C94D31C0E940B15CB
:1039B0000E94ED0F0E9486031092E4018091E501C0
:1039C00081110E94600E0E94A80D0C94D41C1F92BD
:1039D0000F920FB60F9211248F939F93AF93BF93C3
:1039E0008091E301811113C080912F0290913002E8
:1039F000A0913102B09132024196A11DB11D809378
:103A00002F0290933002A0933102B0933202BF9103
:103A1000AF919F918F910F900FBE0F901F901895AF
:103A200082E084BD93E095BD9AEF97BD80936E00D0
:103A300008952FB7F89480912F0290913002A091B1
:103A40003102B09132022FBF0895CF92DF92EF92F0
:103A5000FF920F931F932FB7F89440912F0250912C
:103A6000300260913102709132022FBF6A017B01F6
:103A7000EE24FF248C0120E030E0C016D106E206DF
:103A8000F30610F4415051099A01281B390BC90162
:103A90001F910F91FF90EF90DF90CF900895789451
:103AA0001F920F920FB60F9211248F939F93AF9393
:103AB000BF9380912F0290913002A0913102B0917A
:103AC00032020196A11DB11D80932F029093300206
:103AD000A0933102B0933202BF91AF919F918F9129
:103AE0000F900FBE0F901F90189581E08093E0001B
:103AF00080E28093D8001092C9008FE19EE4019784
:103B0000F1F700C0000087E090EBDC0180934202F7
:103B100090934302A0934402B09345029CE088E155
:103B20000FB6F894A895809360000FBE9093600044
:103B3000FFCF0E94701B811102C00E94EA1B0E94ED
:103B40007B1B8093E2010E94831B90E090933402E0
:103B5000809333020E947F1B682F70E080E090E02A
:103B60000C94E6188091060208950895089508952A
:103B7000CF93DF93EC010E948C1F823011F08430D0
:103B8000D9F580911C01882339F08091330287FF99
:103B900003C060E282E002C068E081E08093E90057
:103BA0008FEF9091E800815095FD06C095ED9A95B4
:103BB000F1F700008111F5CF8091E80085FF1CC06E
:103BC00080911C01811105C040E050E068E070E088
:103BD00003C070E040E050E0CE010E94A91F809138
:103BE000E8008E778093E80080E2FE01A6EEB1E067
:103BF00001900D928A95E1F7DF91CF910895809120
:103C00003802811109C00E943E210E949B218091AF
:103C1000E20084608093E2000895109238020895D3
:103C2000089508950C94D61C42E061EC81E00E9456
:103C3000B82042E261EC82E00C94B82080913B0213
:103C4000833009F460C030F4813071F0823009F4BF
:103C500099C008958A3009F485C08B3009F46BC08F
:103C6000893009F0A7C020C080913A02813A09F05A
:103C7000A1C08091E800877F8093E80080913E0298
:103C800090913F02892B21F460E286EE91E003C01F
:103C900060E080E090E070E00E94F41F8091E80016
:103CA0008B778093E800089580913A02813209F081
:103CB00081C080913E0290913F02029708F07AC045
:103CC0008091E800877F8093E8008091E80082FD82
:103CD00005C0809139028111F8CF6CC02091F300AA
:103CE0008091F20090E0922B029729F48091F100EC
:103CF0008B7F813021F48091F100809306028091C6
:103D0000E8008B7753C080913A02813A09F052C0A3
:103D100080913E0290913F02892B09F04BC0809127
:103D2000E800877F8093E8008091E80080FFFCCF67
:103D300080911C0136C080913A028132D9F5809180
:103D40003E0290913F02892BA9F58091E800877F80
:103D50008093E8000E94ED2080913C0280931C013A
:103D60000C940B1580913A02813221F58091E80084
:103D7000877F8093E8000E94ED2080913D02809330
:103D80000702089580913A02813AA1F48091E800F7
:103D9000877F8093E8008091E80080FFFCCF8091CE
:103DA00007028093F1008091E8008E778093E8000D
:103DB0000C94ED20089584B7877F84BF0FB6F894E4
:103DC000A8958091600088618093600010926000E7
:103DD0000FBE80E880936100109261000E944D1038
:103DE0000E943E210E949B218091E200846080938A
:103DF000E20078940E942A240E94551082E191E00A
:103E00000E94E80F80913902853069F40E947C1C81
:103E1000809137028823B1F30E94BF1C882391F35D
:103E20000E94931FEFCF0E945F100E946B0EEACF9B
:103E30000C941A1F292F332723303105C9F064F45D
:103E40002130310581F02230310509F04CC08BE37F
:103E500090E029E035E04BC02132310521F12232DA
:103E6000310589F140C082E190E024E435E03FC0B3
:103E700099278130910571F02CF4892BA1F5E5E0AB
:103E8000F5E00DC08230910541F0039761F5E1EE58
:103E9000F4E005C0E5EFF4E002C0E7EEF4E0849161
:103EA00090E09F0124C06115710541F061307105FA
:103EB000D1F489E090E024E335E019C089E090E096
:103EC0002BE135E014C06115710541F061307105D9
:103ED00051F48BE390E026E535E009C080E490E002
:103EE00021E935E004C080E090E020E030E0FA0114
:103EF0003183208308950895CF93C82F0E947B1F9C
:103F0000C0930802CF91089580913902843011F056
:103F100081E0089582E0089580910802811102C035
:103F20000C94841F089580E189BD82E189BD09B4A4
:103F300000FEFDCF8091D8008F7D8093D8008091C6
:103F4000E00082608093E0008091E00081FDFCCF82
:103F50000895CF92DF92EF92FF920F931F93CF932A
:103F6000DF93EC018B016A010E940C21811133C0A7
:103F7000C114D10439F0F60180819181081B190B1D
:103F8000C80FD91FE12CF12C0115110519F18091F1
:103F9000E80085FD16C08091E8008E778093E800E8
:103FA000C114D10449F0F60180819181E80EF91E17
:103FB000F182E08285E00FC00E940C21882321F36A
:103FC0000AC089918093F10001501109FFEFEF1AA7
:103FD000FF0ADACF80E0DF91CF911F910F91FF9020
:103FE000EF90DF90CF9008952091400230914102F0
:103FF0002617370748F06115710539F42091E8005C
:104000002E772093E80001C0B90140E061157105E9
:10401000A9F120913902222309F443C0253009F483
:1040200042C02091E80023FD40C02091E80022FD1D
:1040300032C02091E80020FFE9CF4091F3002091A9
:10404000F20030E0342BFC01CF016115710559F00D
:104050002830310540F481918093F100615071095D
:104060002F5F3F4FF1CF41E02830310509F040E0AC
:104070002091E8002E772093E800C8CF4111C9CFE6
:104080000AC080913902882361F0853061F0809107
:10409000E80083FD0AC08091E80082FFF2CF80E053
:1040A000089582E0089583E0089581E008952091C5
:1040B0004002309141022617370748F0611571051B
:1040C00039F42091E8002E772093E80001C0B9016F
:1040D000FC0120E06115710591F18091390288237E
:1040E00009F440C0853009F43FC08091E80083FDA9
:1040F0003DC08091E80082FD2FC08091E80080FFE4
:10410000E9CF2091F3008091F20090E0922B6115AD
:10411000710559F08830910540F424912093F10005
:104120003196615071090196F2CF21E0089709F0AC
:1041300020E08091E8008E778093E800CBCF2111BA
:10414000CCCF0AC080913902882361F0853061F0BC
:104150008091E80083FD0AC08091E80082FFF2CFE1
:1041600080E0089582E0089583E0089581E0089555
:10417000982F973058F59093E900981739F070917F
:10418000EC002091ED005091F00003C0242F762F19
:1041900050E021FF19C03091EB003E7F3093EB00DF
:1041A0003091ED003D7F3093ED003091EB003160B8
:1041B0003093EB007093EC002093ED005093F000EF
:1041C0002091EE0027FF07C09F5FD3CF8F708093B1
:1041D000E90081E0089580E0089580913A0287FF28
:1041E00011C08091E80082FD05C0809139028111E3
:1041F000F8CF11C08091E8008B770BC08091390215
:10420000882349F08091E80080FFF8CF8091E80092
:104210008E778093E80008952091E4003091E500C6
:1042200095E64091EC00842F817040FF22C0809180
:10423000E80080FD1CC080913902882391F0853010
:1042400091F08091EB0085FD10C04091E400509109
:10425000E5004217530729F39A01915011F784E0C2
:10426000089582E0089583E0089581E0089580E054
:1042700008954091E80042FFDECF08950E94AC21EE
:104280000E94B421E0EEF0E0808181608083E8ED5F
:10429000F0E080818F77808319BCA7EDB0E08C912E
:1042A0008E7F8C9380818F7E808310923802089558
:1042B0000F931F93CF93DF930E94AC210E94B421F0
:1042C000C8EDD0E088818F77888388818068888373
:1042D00088818F7D888319BC109239021092350233
:1042E000109237021092360200EE10E0F801808141
:1042F0008B7F808388818160888342E060E080E0FA
:104300000E94B820E1EEF0E080818E7F8083E2EEB3
:10431000F0E0808181608083808188608083F80103
:1043200080818E7F8083888180618883DF91CF91B7
:104330001F910F910895E8EDF0E080818F7E8083DA
:10434000E7EDF0E080818160808384E082BF81E0DE
:10435000809338020C945821E8EDF0E080818E7F44
:1043600080831092E20008951092DA001092E1002A
:1043700008951F920F920FB60F9211242F933F931F
:104380004F935F936F937F938F939F93AF93BF935D
:10439000EF93FF938091E10082FF0BC08091E200D8
:1043A00082FF07C08091E1008B7F8093E1000E9433
:1043B00029248091DA0080FF1FC08091D80080FFFF
:1043C0001BC08091DA008E7F8093DA008091D90043
:1043D00080FF0DC080E189BD82E189BD09B400FE86
:1043E000FDCF81E0809339020E94FF1D05C019BCFA
:1043F000109239020E940D1E8091E10080FF19C0C9
:104400008091E20080FF15C08091E2008E7F809352
:10441000E2008091E20080618093E2008091D80008
:1044200080628093D80019BC85E0809339020E9495
:10443000111E8091E10084FF30C08091E20084FF72
:104440002CC080E189BD82E189BD09B400FEFDCFA9
:104450008091D8008F7D8093D8008091E1008F7E7D
:104460008093E1008091E2008F7E8093E200809152
:10447000E20081608093E20080913502882311F090
:1044800084E007C08091E30087FD02C081E001C0A5
:1044900083E0809339020E94121E8091E10083FF25
:1044A00029C08091E20083FF25C08091E100877FD1
:1044B0008093E10082E0809339021092350280916E
:1044C000E1008E7F8093E1008091E2008E7F8093F7
:1044D000E2008091E20080618093E20042E060E0CF
:1044E00080E00E94B8208091F00088608093F00006
:1044F0000E94101EFF91EF91BF91AF919F918F91FC
:104500007F916F915F914F913F912F910F900FBECF
:104510000F901F9018951F920F920FB60F921124B3
:104520002F933F934F935F936F937F938F939F93BB
:10453000AF93BF93CF93DF93EF93FF93C091E900C5
:10454000CF708091EC00D82FD17080FDD0E8109210
:10455000E9008091F000877F8093F00078940E94BA
:10456000CF221092E9008091F00088608093F000E3
:10457000CD2BCF70C093E900FF91EF91DF91CF91E8
:10458000BF91AF919F918F917F916F915F914F916B
:104590003F912F910F900FBE0F901F9018951F9372
:1045A000CF93DF93CDB7DEB7AA970FB6F894DEBFEF
:1045B0000FBECDBFEAE3F2E088E08E0F9091F100EC
:1045C00091938E13FBCF0E941E1E8091E80083FF03
:1045D00028C180913A0290913B02492F50E04A3025
:1045E000510508F01EC1FA01E556FF4F0C946D24E9
:1045F000803821F0823809F014C108C08091360259
:1046000090913702992389F082600FC080913E0219
:104610008F70873008F005C18093E9008091EB002E
:1046200085FB882780F91092E9009091E800977F38
:104630009093E8008093F1001092F100D0C0282FF1
:104640002D7F09F0EEC0882319F0823061F0E9C0B7
:1046500080913C02813009F0E4C0933009F080E0A1
:10466000809337022EC080913C0281112AC0809134
:104670003E028F702FEF280F263008F0D2C08093B3
:10468000E9002091EB0020FF1CC0933021F48091C1
:10469000EB00806214C09091EB0090619093EB006E
:1046A00021E030E0A90102C0440F551F8A95E2F7CE
:1046B0004093EA001092EA008091EB0088608093BA
:1046C000EB001092E9008091E800877F8093E8007A
:1046D0000E94ED20A6C08111A4C010913C021F775A
:1046E0008091E3008078812B8093E3008091E80043
:1046F000877F8093E8000E94ED208091E80080FF92
:10470000FCCF8091E30080688093E300111102C028
:1047100082E001C083E08093390283C080588230F8
:1047200008F07FC080913C0290913D028C3D53E0A7
:10473000950779F583E08A838AE289834FB7F894F5
:10474000DE01139620E03EE051E2E32FF0E05093CB
:104750005700E49120FF03C0E295EF703F5FEF70D8
:104760008E2F90E0EA3010F0C79601C0C0968D936E
:104770009D932F5F243149F74FBF8091E800877FD9
:104780008093E8006AE270E0CE0101960E94F41F77
:1047900015C060913E0270913F02AE014F5F5F4FC6
:1047A0000E94181FBC01892BE1F19091E800977FCE
:1047B0009093E80089819A810E9457208091E800B7
:1047C0008B778093E8002DC0803859F58091E80000
:1047D000877F8093E800809135028093F10080917B
:1047E000E8008E7773CF81111CC090913C0292300B
:1047F000C0F48091E800877F8093E80090933502B1
:104800000E94ED2080913502811106C08091E30065
:1048100087FD02C081E001C084E0809339020E94DC
:10482000141E8091E80083FF0AC08091E800877F12
:104830008093E8008091EB0080628093EB00AA9661
:104840000FB6F894DEBF0FBECDBFDF91CF911F91A1
:1048500008950895CF93809139028823A1F0C091E3
:10486000E900CF709091EC00892F817090FD80E875
:10487000C82B1092E9008091E80083FD0E94CF22AE
:10488000CF70C093E900CF910895AA1BBB1B51E1E3
:1048900007C0AA1FBB1FA617B70710F0A61BB70BB0
:1048A000881F991F5A95A9F780959095BC01CD0155
:1048B000089597FB072E16F4009407D077FD09D0D2
:1048C0000E94452407FC05D03EF4909581959F4FAA
:1048D0000895709561957F4F0895EE0FFF1F059025
:1048E000F491E02D0994FC014150504030F00190CA
:1048F0000616D1F73197CF01089588279927089593
:10490000F999FECF92BD81BDF89A992780B5089597
:10491000A6E1B0E044E050E00C94BA24A8E1B0E095
:1049200042E050E00C94BA24262FF999FECF92BDB4
:1049300081BDF89A019700B4021639F01FBA20BD64
:104940000FB6F894FA9AF99A0FBE08950396272F96
:104950000E9495240E949424252F0E949524242FA0
:104960000C9495240196272F0E9495240C9494244E
:10497000DC01CB01FC01F999FECF06C0F2BDE1BD1F
:10498000F89A319600B40D9241505040B8F708950E
:04499000F894FFCFC9
:1049940001020B0B0B01191A1B1C1D1E1F202122C7
:1049A400BF01B21DB81DB51DB61DB71D013133328F
:1049B400F5F6F736000102020202060606090909A5
:1049C4000909090F0F0F0F0F0F15151518191919CC
:0A49D40019191919191919232400E3
:00000001FF
